:020000040800F2
:10000000F8040020250500082D0500082F0500082C
:100010003105000833050008350500080000000020
:1000200000000000000000000000000009020008BD
:100030003905000800000000AD0200080D030008AB
:100040003F0500083F0500083F0500083F05000880
:100050003F0500083F0500083F050008B50A0008F5
:10006000E50A0008170B0008830A00083F0500088E
:100070003F0500083F0500083F0500083F05000850
:100080003F0500083F0500083F0500083F05000840
:100090003F0500083F0500083F0500083F05000830
:1000A0003F0500083F0500083F0500083F05000820
:1000B0007D0500085D0500083F0500083F050008B4
:1000C0003F0500083F0500083F0500083F05000800
:1000D0003F0500083F0500083F0500083F050008F0
:1000E0003F0500083F0500083F0500083F050008E0
:1000F0003F0500083F0500083F0500083F050008D0
:100100003F0500083F0500083F0500083F050008BF
:100110003F0500083F0500083F0500083F050008AF
:100120003F0500083F0500083F0500083F0500089F
:100130003F0500083F0500083F0500083F0500088F
:100140003F0500083F0500083F0500083F0500087F
:100150003F0500083F0500083F0500083F0500086F
:100160003F0500083F0500083F0500083F0500085F
:100170003F0500083F0500083F0500083F0500084F
:100180003F0500083F050008DFF814D002F074FBBB
:100190000021024802F006FDFEE70000E83A0008F0
:1001A000F804002080F309887047684680F30988C6
:1001B00004480078C00714BF0220032080F314888D
:1001C00070470000B03A0008DFF818C0EFF305836D
:1001D0001B0618BF6047EFF31483DB0708BF6047B7
:1001E00000DF7047D52C0008DFF818C0EFF3058357
:1001F0001B0618BF6047EFF31483DB0708BF604797
:1002000000DF7047152F0008EFF30980816911F8AE
:10021000021C002933D190E80F1010B5E047BDE86B
:100220001040EFF3098C8CE807001D4B93E80600A3
:10023000914208BF704781B11EF0100F06BF2CED30
:10024000108A0120002081F820002CE9F00FC1F86D
:1002500024C00CB403F02CF90CBC1A60D2F824C0F2
:10026000BCE8F00F92F8200000281ABFBCEC108AFE
:100270006FF0120E6FF0020E8CF30988704710B504
:10028000084A1268914209D8074C54F8214090E876
:100290000F10A047EFF3098C8CE80F0010BD000091
:1002A0007C0000209C2800089C28000810B502F063
:1002B000D7FFBDE81040174B93E80600914208BFF6
:1002C0007047EFF3098C1EF0100F06BF2CED108A5B
:1002D0000120002081F820002CE9F00FC1F824C093
:1002E0000CB403F0E5F80CBC1A60D2F824C0BCE8EA
:1002F000F00F92F8200000281ABFBCEC108A6FF0B3
:10030000120E6FF0020E8CF30988704710B503F0DF
:1003100095F9CEE77C0000200CB5002001900090FC
:100320007548006840F480307349086000BF724827
:10033000006800F4003000900198401C0190009883
:1003400018B90198B0F5A06FF1D16B48006810F4AE
:10035000003F02D00120009001E0002000900098B2
:10036000012845D164484030006840F0805062491F
:10037000403108606148006840F480405F4908608F
:100380005D48083000685C4908310860084600682C
:1003900040F4004008600846006840F4A05008603F
:1003A0005748091F0860081F006840F08070091F47
:1003B000086000BF5048006810F0007FFAD040F29B
:1003C0000560504908604C480830006820F0030080
:1003D0004949083108600846006840F0020008609A
:1003E00000BF45480830006800F00C000828F8D12C
:1003F0000CBD10B54448006840F4700042490860E4
:100400003D48006840F001003B49086000203A493F
:1004100008310860384800683C490840364908609F
:100420003B48091D0860081F006820F48020091F50
:100430000860002030490C310860FFF76DFF4FF075
:10044000006031498039086010BD70B5002000227D
:10045000022300240221284D08352D6805F00C00E8
:1004600020B1042806D0082834D107E0294D2A4EAF
:10047000356033E0294D284E35602FE01E4D2D1D8F
:100480002D68C5F380541C4D2D1D2D6805F03F01CE
:1004900054B1224DB5FBF1F5174E361D3668C6F343
:1004A000881605FB06F209E01A4DB5FBF1F5124E70
:1004B000361D3668C6F3881605FB06F20E4D2D1D57
:1004C0002D68C5F301456D1C6B00B2FBF3F5124EB0
:1004D000356003E00F4D104E356000BF00BF064D84
:1004E00008352D68C5F303150D4E705D0A4D2D6856
:1004F000C540094E356070BD0038024000700040B4
:1005000008544007003C024088ED00E0FFFFF6FE83
:10051000103000240024F4000000002000127A00B3
:10052000040000200648804706480047FEE7FEE733
:10053000FEE7FEE7FEE7FEE7FEE7FEE7FEE7FEE793
:10054000F30300088901000800BFFEE700BFFEE7D3
:1005500010B500F06BFD002010BD000010B50121AA
:10056000804802F086F840B101217F48006802F01F
:100570006FFB01217B4802F08DF810BD10B5012101
:10058000880702F076F818B10121880702F082F896
:1005900010BD1FB500240121022001F0B4F91D2077
:1005A0008DF80C0000208DF80D0001208DF80E0054
:1005B0008DF80F0003A800F0C4FD4FF6FF70019006
:1005C0000020ADF80000ADF808006946654801F06C
:1005D00098FB322401222146624801F0CFFB012220
:1005E0001146604802F02EF801215E4801F012FC2D
:1005F0001FBD1CB50121022001F052F9684600F030
:1006000051FF4FF42050009001208DF8040003208A
:100610008DF8050000208DF806008DF8070069466A
:10062000524800F0F7FE1CBD10B58AB0012104202D
:1006300001F069F91E208DF8100000208DF81100DE
:1006400001208DF812008DF8130004A800F079FD48
:100650004FF6FF7002900020ADF80400ADF80C00DA
:10066000ADF8060001A9424801F04BFB4148006883
:1006700040084149B0FBF1F0401E84B201222146FE
:100680003B4801F07BFB7020ADF814000120ADF871
:1006900016000420ADF818004AF20100079002206D
:1006A000ADF820000020ADF822004FF48070ADF8C6
:1006B00024000020ADF8260005A92D4801F0B6FB66
:1006C00046F6AD20079005A9294801F0E8FB43F262
:1006D0005650079005A9264801F02EFC41F6AA20A5
:1006E000079005A9224801F08DFC0121204801F066
:1006F00091FB01211E4801F07EFF0AB010BD1FB51D
:1007000000240121084601F0FEF81C208DF80C00A1
:1007100000208DF80D0001208DF80E008DF80F00DF
:1007200003A800F00EFD4FF6FF7001900020ADF819
:100730000000ADF8080069464FF0804001F0E1FA92
:10074000402401222146900701F018FB01221146A6
:10075000900701F077FF0121880701F05BFBFFF7AD
:1007600048FF1FBD00040040340000200004024088
:100770000008004000000020808D5B0000B591B0B3
:10078000F3A002F08DF80121022001F089F80FA8F2
:1007900000F088FE1E200F9000208DF840000220FF
:1007A0008DF8410000208DF8420002208DF84300B2
:1007B0000FA9EF4800F02EFE0121880301F0B4F8E4
:1007C0000121022001F06CF80DA800F06BFEE02082
:1007D0000D9001208DF8380002208DF8390000209E
:1007E0008DF83A0002208DF83B000DA9E04800F09A
:1007F00011FE0421012001F09FF910200B90002030
:100800008DF8300008208DF8310001208DF832007D
:100810000BA800F011FD0A208DF8280000208DF8AB
:10082000290001208DF82A008DF82B000AA800F07D
:1008300088FC0121084601F07FF902200890002081
:100840008DF8240008208DF8250001208DF8260061
:1008500008A800F0F1FC07208DF81C0000208DF89E
:100860001D0001208DF81E008DF81F0007A800F064
:1008700068FC0221012001F05FF9042005900020AE
:100880008DF8180008208DF8190001208DF81A0045
:1008900005A800F0D1FC08208DF8100000208DF88C
:1008A000110001208DF812008DF8130004A800F04B
:1008B00048FC0321012001F03FF9082002900020AC
:1008C0008DF80C0008208DF80D0001208DF80E0029
:1008D00002A800F0B1FC09208DF8040000208DF87A
:1008E000050001208DF806008DF8070001A800F032
:1008F00028FC00209F4908609F490860E0219C482F
:1009000000F006FE11B000BD9A480068022805DA22
:1009100098480068401C9749086002E0002095490B
:100920000860704710B5142002F030F910BD10B502
:10093000E0218F4800F0ECFD8E48006820B10128CE
:1009400007D002280FD109E02021894800F0DEFD00
:1009500009E04021864800F0D9FD04E08021844868
:1009600000F0D4FD00BF00BF10BD10B5FFF7DFFFE2
:10097000814802687F48016880A001F091FFFFF77D
:10098000D1FFFFF7C1FF83480068032817D18248D1
:1009900000782A2830D18148006800B300207F49C0
:1009A00008607F480078012803D100207C49087046
:1009B00022E001207A4908707A4908701CE07548E5
:1009C000006860B974480078312809D1734800681C
:1009D00030B10020714908600120724908700BE0B5
:1009E0006D480078322807D16C48006820B100209B
:1009F0006A4908606B49087010BD5E48006820B104
:100A0000012815D0022839D125E05B48006830B1B3
:100A1000012806D0022806D0032808D105E031209D
:100A200070473420FCE73720FAE72A20F8E725E072
:100A30005148006830B1012806D0022806D00328AA
:100A400008D105E03220EBE73520E9E73820E7E779
:100A50003020E5E712E04848006830B1012806D0B0
:100A6000022806D0032808D105E03320D8E7362035
:100A7000D6E73920D4E72320D2E700BF00BF5820B3
:100A8000CEE710B500203C490860102000F03AFC89
:100A900060B1102000F047FCFFF7AFFF3E4908703F
:100AA00000203C49086001203C490860102000F00B
:100AB00025FC10BD10B501202F490860022000F070
:100AC00021FC58B1022000F02EFCFFF796FF3249BE
:100AD000087001202F49086030490860022000F0AA
:100AE0000DFC10BD10B5022023490860042000F061
:100AF00009FC60B1042000F016FCFFF77EFF2649D8
:100B0000087002202349086001202449086004205D
:100B100000F0F4FB10BD10B5032017490860082051
:100B200000F0F0FB78B1082000F0FDFBFFF765FF57
:100B3000194908700320174908601848006810B95F
:100B4000012016490860082000F0D8FB10BD000005
:100B50000A5B494E464F5D206B6579706164206980
:100B60006E6974616C697A6174696F6E000000006F
:100B70000004024044000020480000200A53636142
:100B80006E3A20636F6C2025692C20726F772025C8
:100B900069000000380000204C0000203C000020CC
:100BA000300000206400002010B5044614B1012C70
:100BB0000AD104E00421F74800F0A8FC04E0042175
:100BC000F44800F0A5FC00BF00BF10BD10B5002028
:100BD000FFF7EAFF0120FFF7E7FF012001F0D6FF52
:100BE00010BD10B5044614B1012C0AD104E0012156
:100BF000E84800F08BFC04E00121E64800F088FCA6
:100C000000BF00BF10BD10B5044614B1012C0AD1BD
:100C100004E08021E04800F079FC04E08021DE4817
:100C200000F076FC00BF00BF10BD10B5044614B143
:100C3000012C0AD104E04021D74800F067FC04E011
:100C40004021D54800F064FC00BF00BF10BD10B5C6
:100C5000044614B1012C0AD104E02021CE4800F052
:100C600055FC04E02021CC4800F052FC00BF00BF3E
:100C700010BD10B5044614B1012C0AD104E01021B6
:100C8000C54800F043FC04E01021C34800F040FCDC
:100C900000BF00BF10BD10B5044614B1012C0AD12D
:100CA00004E00821BC4800F031FC04E00821BA4807
:100CB00000F02EFC00BF00BF10BD10B5044614B1FB
:100CC000012C0AD104E00421B34800F01FFC04E029
:100CD0000421B14800F01CFC00BF00BF10BD10B5DE
:100CE000044614B1012C0AD104E00221AA4800F004
:100CF0000DFC04E00221A84800F00AFC00BF00BF80
:100D000010BD10B5044614B1012C0AD104E0012134
:100D1000A14800F0FBFB04E001219F4800F0F8FB34
:100D200000BF00BF10BD10B50446072C1FD2DFE87E
:100D300004F0041F3B546D869F0000209749087003
:100D4000FFF7DFFF0120FFF7CAFF0120FFF7B5FF24
:100D50000120FFF7A0FF0120FFF78BFF0120FFF725
:100D600076FF0120FFF761FF0120FFF74CFF98E0BD
:100D700000208A4908700120FFF7C3FF0020FFF719
:100D8000AEFF0120FFF799FF0120FFF784FF01204C
:100D9000FFF76FFF0120FFF75AFF0120FFF745FF24
:100DA0000120FFF730FF7CE00120FFF7AAFF0020C1
:100DB000FFF795FF0020FFF780FF0120FFF76BFF93
:100DC0000120FFF756FF0120FFF741FF0120FFF749
:100DD0002CFF0120FFF717FF63E00020FFF791FFD2
:100DE0000020FFF77CFF0020FFF767FF0020FFF7E0
:100DF00052FF0120FFF73DFF0120FFF728FF0120F0
:100E0000FFF713FF0120FFF7FEFE4AE00120FFF786
:100E100078FF0120FFF763FF0020FFF74EFF00205F
:100E2000FFF739FF0120FFF724FF0120FFF70FFF35
:100E30000120FFF7FAFE0120FFF7E5FE31E0012077
:100E4000FFF75FFF0120FFF74AFF0020FFF735FFA4
:100E50000020FFF720FF0020FFF70BFF0020FFF727
:100E6000F6FE0120FFF7E1FE0120FFF7CCFE18E0BF
:100E70000120FFF746FF0120FFF731FF0120FFF7B8
:100E80001CFF0120FFF707FF0120FFF7F2FE012002
:100E9000FFF7DDFE0020FFF7C8FE0020FFF7B3FEDE
:100EA00000BF00BF0120FFF79CFE10BD70B50546D6
:100EB0006BE02C7839480078182805D10620FFF718
:100EC00032FFFFF783FE04E034480078302800D179
:100ED00070BD14F0010F03D10120FFF712FF02E0F3
:100EE0000020FFF70EFF14F0020F03D10120FFF7DF
:100EF000F6FE02E00020FFF7F2FE14F0040F03D12B
:100F00000120FFF7DAFE02E00020FFF7D6FE14F022
:100F1000080F03D10120FFF7BEFE02E00020FFF71B
:100F2000BAFE14F0100F03D10120FFF7A2FE02E079
:100F30000020FFF79EFE14F0200F03D10120FFF7E1
:100F400086FE02E00020FFF782FE14F0400F03D17E
:100F50000120FFF76AFE02E00020FFF766FE14F0B2
:100F6000800F03D10120FFF74EFE02E00020FFF7C3
:100F70004AFE0020FFF735FEFFF728FE6D1C0748EC
:100F80000078401C0549087000BF2878002890D1DF
:100F900000BF9DE7000C0240001002404D00002001
:100FA00010B5044614B1012C0AD104E002213548E1
:100FB00000F0ACFA04E00221324800F0A9FA00BFC8
:100FC00000BF10BD1CB50121102000F069FC68466F
:100FD00000F068FAFF20009001208DF80400022044
:100FE0008DF8050000208DF806008DF80700694691
:100FF000254800F00FFA1CBD1CB50121082000F0A7
:101000004FFC684600F04EFA0720009001208DF852
:10101000040002208DF8050000208DF806008DF8F0
:1010200007006946174800F0F5F91CBD10B517A078
:1010300001F036FCFFF7E0FFFFF7C4FF0120FFF7E8
:10104000AFFF0120FFF7B0FD0520FFF76CFEFFF7B3
:10105000BDFD0020FFF767FEFFF7B8FD0120FFF799
:1010600062FEFFF7B3FD0220FFF75DFEFFF7AEFD66
:101070000420FFF758FEFFF7A9FD0CA42046FFF758
:1010800015FF10BD000C0240001002405B494E46A7
:101090004F5D20496E697469616C697A696E672079
:1010A000746865204C43442E0A000000416142628E
:1010B00043634464456546664767486849694A6AC8
:1010C0004B6B4C6C4D6D4E6E4F6F50705171527238
:1010D00053735474557556765777587859795A7AA8
:1010E0003031323334353637383900001149096828
:1010F00011F0010F0ED00F498039096811F0010F6E
:1011000008D000BF4FF0604109680029FAD04FF0C5
:1011100060421070704770B504460D462046FFF7D8
:10112000E5FF70BD10B504462046FFF7DFFF10BD98
:1011300000BFFEE7800E00E033490143334A1160EF
:10114000704770B5002100230F22C47824B32F4CC0
:10115000246804F4E064C4F5E064C4F30721C1F139
:101160000404E3B20A4144789C40E1B2847814401C
:1011700021430C07210E264C05786155047804F0B4
:101180001F050124AC4005786D114FF0E02606EBF9
:101190008505C5F8004109E0047804F01F04012525
:1011A000A5401C4C0678761144F8265070BD1A4AAA
:1011B0000A400243154B1B1F1A60704739B1134A8E
:1011C000121D12680243114B1B1D1A6006E00F4AE4
:1011D000121D126882430D4B1B1D1A6070470428B4
:1011E00008D14FF0E021096941F004014FF0E022FD
:1011F000116107E04FF0E021096921F004014FF08F
:10120000E0221161704700000000FA050CED00E0DB
:1012100000E400E080E100E080FFFF1F002044497F
:101220000860091D0860091D0860091D0860414823
:101230003F4914310860704700213D498279002AF6
:101240003AD00A46126803689A430B461A600A1D90
:10125000126803689A430B1D1A60027911440A68E8
:1012600003681A430A60324A0832126803689A43D4
:101270002F4B08331A601A1D126803689A432C4BCF
:101280000C331A604279102A0ED11A1F12680368B3
:101290001A43274B08331A601A1D126803681A4351
:1012A000234B0C331A600DE02149427911440A683E
:1012B00003681A430A6005E0027911440A6803686A
:1012C0009A430A6070470021016001710C2141714D
:1012D0000021817170471649103109680143144A91
:1012E00010321160704701460020114A1432126812
:1012F0000A4201D0012000E0002070470C4914315F
:1013000008607047014600200022094B1B6803EA71
:101310000102074B14331B680B4202D00AB10120B3
:1013200000E0002070470249143108607047000057
:10133000003C0140FFFF7F0010B504468C4884420A
:1013400008D10121084600F000FB0021012000F037
:10135000FCFA5EE08748844208D10121022000F0B7
:10136000F4FA0021022000F0F0FA52E082488442B0
:1013700008D10121042000F0E8FA0021042000F047
:10138000E4FA46E07D48844208D10121082000F0BB
:10139000DCFA0021082000F0D8FA3AE078488442CC
:1013A00008D10121102000F0D0FA0021102000F017
:1013B000CCFA2EE07348844208D10121202000F0AD
:1013C000C4FA0021202000F0C0FA22E06E488442D6
:1013D00008D10121402000F0B8FA0021402000F09F
:1013E000B4FA16E06948844208D10121802000F057
:1013F000ACFA0021802000F0A8FA0AE06448844298
:1014000007D10121801500F0A0FA0021A01500F0FD
:101410009CFA10BDF0B50A4600210023002400BF4D
:101420003DE0012505FA01F3156805EA03049C4235
:1014300034D105684F000326BE40B54305601579D9
:101440004E00B5400668354305601579012D02D080
:101450001579022D16D185684F000326BE40B5438D
:10146000856055794E00B54086683543856045688E
:1014700001268E40B5434560456896798E40B6B2E8
:1014800035434560C5684F000326BE40B543C5607F
:10149000D5794E00B540C6683543C560491C102952
:1014A000BFD3F0BD4FF6FF710160002101714171A2
:1014B0008171C171704708B54FF480320092009A73
:1014C0000A430092009AC261C161009AC261C26976
:1014D0000092C269009208BD0246002013690B42C7
:1014E00001D0012000E0002070470146086980B269
:1014F00070470246002053690B4201D0012000E0F2
:10150000002070470146486980B2704701837047E8
:10151000418370470AB1018300E041837047416114
:10152000704742694A4042617047F0B50023002489
:101530004D07ED0E02FA05F3CE1000F1200555F827
:1015400026504E07F70E0F26BE40B543CF1000F1D0
:10155000200646F82750CE1000F1200555F82650F9
:1015600045EA0304CE1000F1200545F82640F0BD01
:10157000000002400004024000080240000C02404B
:10158000001002400014024000180240001C0240FB
:1015900000200240FA48006840F00100F849086065
:1015A0000020F74908310860F5480068F54908400F
:1015B000F3490860F448091D0860081F006820F41A
:1015C0008020091F08600020ED490C310860704739
:1015D0000021EB4A921C117011460870704710B53B
:1015E00001460022002300204A11012A02D1E44CC6
:1015F000236808E0022A03D1E14C7034236802E03A
:10160000DF4C7434236801F01F02012494401C4213
:1016100001D0012000E0002010BD38B5002000906E
:101620000024002500BF3120FFF7D9FF05460098B0
:10163000401C00900098B0F5A06F01D0002DF2D0B2
:101640003120FFF7CCFF08B1012400E00024204640
:1016500038BD01460020CA4A106820F0F80040EA70
:10166000C10010607047C949086070470021C44A32
:10167000703211701170012802D004280AD104E0E0
:101680000121BF4A7032117005E00521BC4A703259
:10169000117000E000BF00BF7047BD49086070478F
:1016A00070B5049C41EA82150126C6EB530645EA53
:1016B0000645054345EA0465B14E361D356070BDEB
:1016C000B24908667047820142EA0172AC4B84332A
:1016D0001A607047AD4988667047AC49C864704766
:1016E00002460020A64B0833186820F0EC6042EA5E
:1016F00001031843A24B08331860704702460020CC
:101700009F4B0833186820F0784042EA01031843E1
:101710009B4B08331860704701460020984A0832F6
:10172000106820F0030008431060704794480830A8
:10173000006800F00C00704701460020904A083213
:10174000106820F0F0000843106070470146002048
:101750008B4A0832106820F4E0500843106070474C
:1017600001460020864A0832106820F4604040EAB2
:10177000C10010607047F0B500210022002402254E
:10178000002602237E4F08373F6807F00C0121B185
:10179000042905D0082937D105E07E4F076036E0DF
:1017A0007D4F076033E0764F3F1D3F68C7F380569B
:1017B000734F3F1D3F6807F03F036EB1764FB7FB95
:1017C000F3F7DFF8BCC10CF1040CDCF800C0CCF37B
:1017D000881C07FB0CF40CE06E4FB7FBF3F7DFF847
:1017E000A0C10CF1040CDCF800C0CCF3881C07FB92
:1017F0000CF4634F3F1D3F68C7F301477F1C7D001A
:10180000B4FBF5F7076002E0624F076000BF00BF5E
:101810005B4F08373F6807F0F00109095F4F7A5CBA
:101820000768D7404760564F08373F6807F4E051D4
:10183000890A5A4F7A5C4768D7408760504F08370B
:101840003F6807F46041490B544F7A5C4768D740C2
:10185000C760F0BD002100F44072B2F5407F0AD1AC
:10186000474A0832116821F4F8114D4A02401143E9
:10187000434A08321160424A70321268C0F30B03C7
:101880001A433F4B70331A6070474149443908602E
:1018900070473F49403908607047424908607047C7
:1018A00039B1374A303212680243354B30331A604F
:1018B00006E0334A303212688243314B30331A60CB
:1018C000704739B12E4A3432126802432C4B3433FC
:1018D0001A6006E02A4A343212688243284B3433B5
:1018E0001A60704739B1264A383212680243244BD5
:1018F00038331A6006E0224A383212688243204B9D
:1019000038331A60704739B11D4A403212680243B9
:101910001B4B40331A6006E0194A4032126882437A
:10192000174B40331A60704739B1154A4432126878
:101930000243134B44331A6006E0114A44321268E2
:1019400082430F4B44331A60704739B10C4A10324E
:10195000126802430A4B10331A6006E0084A10323C
:1019600012688243064B10331A607047E1B1044A93
:10197000143212680243024B14331A6019E000005B
:1019800000380240FFFFF6FE1030002400004742FE
:10199000800E47420024F40000127A006500002007
:1019A000FFFCFF0F5C0147425B4A126882435A4BBF
:1019B0001A60704739B1584A121D12680243564BDB
:1019C0001B1D1A6006E0544A121D12688243524BD6
:1019D0001B1D1A60704739B14F4A0C32126802431E
:1019E0004D4B0C331A6006E04B4A0C3212688243AE
:1019F000494B0C331A60704739B1474A10321268AC
:101A00000243454B10331A6006E0434A1032126815
:101A10008243414B10331A60704739B13E4A3C3221
:101A2000126802433C4B3C331A6006E03A4A3C32AF
:101A300012688243384B3C331A60704739B1364ADA
:101A4000403212680243344B40331A6006E0324A97
:101A5000403212688243304B40331A60704739B1CC
:101A60002D4A4432126802432B4B44331A6006E07D
:101A7000294A443212688243274B44331A60704724
:101A800039B1254A4C3212680243234B4C331A6059
:101A900006E0214A4C32126882431F4B4C331A60D5
:101AA000704739B11C4A5032126802431A4B503306
:101AB0001A6006E0184A503212688243164B5033BF
:101AC0001A60704739B1144AD21F12780243124B80
:101AD000DB1F1A7006E0104AD21F127882430E4BA9
:101AE000DB1F1A7070470C486030006840F080704F
:101AF000094960310860704701460020064A083AEB
:101B000012680A4201D0012000E00020704702491B
:101B1000891F0870704700001438024010B5012179
:101B20008803FFF769FF00214FF48040FFF764FF4F
:101B300010BD1A490860704730B500228B071C0F92
:101B40000F2303FA04F2154B08338C1053F824309A
:101B50009343124C08348D1044F8253023468C10E2
:101B600053F824308C07240F00FA04F423430B4C61
:101B700008348D1044F8253030BD0949086070479D
:101B8000084908607047002004492031096811F4B1
:101B9000807F01D0012000E0002070470038014024
:101BA000DC0027420004274210B50446FE48844268
:101BB00008D101210846FFF71FFF00210120FFF790
:101BC0001BFF9DE0B4F1804F08D101210846FFF7CB
:101BD00002FF00210120FFF7FEFE91E0F34884425E
:101BE00008D101210220FFF7F6FE00210220FFF7B5
:101BF000F2FE85E0EE48844208D101210420FFF77F
:101C0000EAFE00210420FFF7E6FE79E0E94884427D
:101C100008D101210820FFF7DEFE00210820FFF790
:101C2000DAFE6DE0E448844208D101211020FFF77C
:101C3000D2FE00211020FFF7CEFE61E0DF48844293
:101C400008D101212020FFF7C6FE00212020FFF748
:101C5000C2FE55E0DA48844208D101210220FFF794
:101C6000CBFE00210220FFF7C7FE49E0D5488442A1
:101C700009D101210804FFF7BFFE00214FF4803095
:101C8000FFF7BAFE3CE0D048844209D10121480464
:101C9000FFF7B2FE00214FF40030FFF7ADFE2FE05A
:101CA000CA48844209D101218804FFF7A5FE00211A
:101CB0004FF48020FFF7A0FE22E0C548844208D1FF
:101CC00001214020FFF787FE00214020FFF783FE1F
:101CD00016E0C048844208D101218020FFF77BFE36
:101CE00000218020FFF777FE0AE0BB48844207D13D
:101CF00001218015FFF76FFE0021A015FFF76BFE95
:101D000010BD00220288A84B98420ED0AC4B9842DE
:101D10000BD0B0F1804F08D0A44B984205D0A44B13
:101D2000984202D0A34B984204D14FF68F731A40C9
:101D30004B881A43A04B984207D0A04B984204D03E
:101D40004FF6FF431A400B891A4302804B68C36267
:101D50000B880385944B984202D0994B984201D14D
:101D60008B7A03860123838270474FF0FF314160F5
:101D7000002101800181418081727047018582824A
:101D800070470A46002101884FF68F7319401143AE
:101D90000180704741627047C16270470146486ADE
:101DA00070470146088D704721B1028842F0020257
:101DB000028004E002884FF6FD731A4002807047EB
:101DC00021B1028842F00402028004E002884FF64A
:101DD000FB731A400280704721B1028842F08002F2
:101DE000028004E002884FF67F731A400280704739
:101DF00002884FF6F7731A40028002880A43028075
:101E0000704702884FF6FF431A40028002880A4357
:101E10000280704721B1028842F00102028004E092
:101E200002884FF6FE731A400280704770B5002496
:101E300000220023058C4FF6FE7635400584028C87
:101E40008388048B4FF68F752C40B51E2C400D886F
:101E50002C43751E2A408D892A434D882A43524DB2
:101E6000A84202D0564DA84213D14FF6F7752A402A
:101E7000CD892A434FF6FB752A408D882A434FF6B9
:101E8000FF652B404FF6FF552B400D8A2B434D8AA3
:101E90002B43838004838D684563028470BD70B5D5
:101EA000002400220023058C4FF6EF763540058490
:101EB000028C8388048B48F6FF752C404FF6FF4553
:101EC0002C400D884FF6FF7606EA05252C434FF689
:101ED000DF752A408D8906EA05152A434D8806EAF2
:101EE00005152A43304DA84202D0354DA8421DD1D8
:101EF0004FF67F752A40CD894FF6FF7606EA051525
:101F00002A434FF6BF752A408D8806EA05152A43F5
:101F10004FF6FF352B404FF2FF752B400D8A06EA36
:101F200085052B434D8A06EA85052B438380048370
:101F30008D688563028470BD70B500240022002383
:101F4000058C4FF6FF6635400584028C8388848BB0
:101F50004FF68F752C404FF6FC752C400D882C43A6
:101F60004FF6FF552A408D894FF6FF7606EA052584
:101F70002A434D8806EA05252A430B4DA84202D084
:101F80000F4DA84238D14FF2FF752A40CD894FF648
:101F9000FF7606EA05252A434FF6FF352A408D884D
:101FA00006EA05252A4319E000000140000400402C
:101FB00000080040000C00400010004000140040E9
:101FC000000401400040014000440140004801403D
:101FD00000180040001C0040002000404EF6FF7535
:101FE0002B404DF6FF752B400D8A06EA05152B4355
:101FF0004D8A06EA05152B43838084838D68C5636B
:10200000028470BD70B5002200230024058C4EF6BA
:10201000FF7635400584038C8488828B48F6FF75F3
:102020002A404FF6FF452A400D884FF6FF7606EA14
:1020300005252A434DF6FF752B408D8906EA0535A7
:102040002B434D8806EA05352B43FE4DA84202D0AE
:10205000FD4DA84208D14BF6FF752C400D8A4FF676
:10206000FF7606EA85152C43848082838D6805649B
:10207000038470BD00210180418081808160818165
:10208000C18101824182704770B50346002000245F
:102090001846183001258D40ACB21D8CA5431D8417
:1020A00009B108290AD100EB610005684FF68F7667
:1020B000354005600568154305600FE00D1FC5F349
:1020C0004E052844056848F6FF76354005600568EA
:1020D0004FF6FF7606EA02263543056070BD416380
:1020E000704781637047C1637047016470470A4657
:1020F0000021018B4FF68F73194011430183704704
:102100000A460021018B48F6FF7319404FF6FF7312
:1021100003EA02231943018370470A460021818B99
:102120004FF68F7319401143818370470A4600218F
:10213000818B48F6FF7319404FF6FF7303EA0223C1
:102140001943818370470A460021018B4FF6F773CC
:1021500019401143018370470A460021018B4FF259
:10216000FF7319404FF6FF7303EA022319430183FB
:1021700070470A460021818B4FF6F77319401143CF
:10218000818370470A460021818B4FF2FF7319400B
:102190004FF6FF7303EA02231943818370470A460F
:1021A0000021018B4FF6FB731940114301837047E7
:1021B0000A460021018B4FF6FF3319404FF6FF739B
:1021C00003EA02231943018370470A460021818BE9
:1021D0004FF6FB7319401143818370470A46002173
:1021E000818B4FF6FF3319404FF6FF7303EA02234A
:1021F0001943818370470A460021018B4FF67F7394
:1022000019401143018370470A460021018BC1F335
:102210000E014FF6FF7303EA02231943018370474F
:102220000A460021818B4FF67F7319401143818349
:1022300070470A460021818BC1F30E014FF6FF73F0
:1022400003EA02231943818370470A460021018C67
:102250004FF6FD7319401143018470470A4600216F
:10226000018C4FF6F77319401143018470470A46F9
:102270000021018C4FF6DF7319404FF6FF7303EA1C
:1022800002131943018470470A460021018C4FF65E
:102290007F7319404FF6FF7303EA02131943018459
:1022A00070470A460021018C4FF6FF5319404FF644
:1022B000FF7303EA02231943018470470A46002191
:1022C000018C4FF2FF7319404FF6FF7303EA0223AC
:1022D0001943018470470A460021018C4DF6FF73B3
:1022E00019404FF6FF7303EA023319430184704724
:1022F00030B5002301248C40A3B2048C9C43048499
:10230000048C02FA01F5ADB22C43048430BD30B523
:10231000002304248C40A3B2048C9C430484048CCA
:1023200002FA01F5ADB22C43048430BD828B4FF22A
:10233000FF331A408283828B4FF6FF7303EA012337
:102340001A4382837047F0B50C46154600210022DF
:102350000026078C4EF6FF7C07EA0C070784818B6A
:10236000028C4FF6FF7707EA043640F6FF47394004
:102370004FF6FF7707EA052739434FF6FF7707EA5D
:102380000337394345F6FF773A4046F480573A43DE
:1023900081830284F0BD828B4FF6F3731A408283EF
:1023A000828B0A4382837047F0B50C4615460021A4
:1023B00000220026078C4FF6FF6C07EA0C07078403
:1023C000818B028C4FF6FF7707EA04264FF60C77D5
:1023D00039404FF6FF7707EA03172F4339434FF28F
:1023E000FF573A4046F480773A4381830284F0BD38
:1023F000028B4FF2FF331A400283028B4FF6FF73BA
:1024000003EA01231A4302837047F0B50C461546D0
:10241000002100220026078C4FF6EF7C07EA0C070C
:102420000784018B028C4FF6FF7707EA041640F60B
:10243000FF4739404FF6FF7707EA033739434FF636
:10244000FF7703E0000001400004014007EA052790
:1024500039434FF65F773A4046F010073A4301831D
:102460000284F0BD028B4FF6F3731A400283028B95
:102470000A4302837047F0B50C461546002100223E
:10248000068C4FF6FE773E400684018B028C4FF699
:102490000C7631407E1C06EA03162E4331434FF67C
:1024A000F576324044F00106324301830284F0BDE8
:1024B00070B505460C46208850B92389A2886188EA
:1024C0002846FFF7D8FFE1882846FFF7CBFF25E035
:1024D000208804280AD12389A28861882846FFF72A
:1024E00094FFE1882846FFF783FF17E0208808283B
:1024F0000AD12389A28861882846FFF755FFE18821
:102500002846FFF748FF09E02389A288618828460A
:10251000FFF719FFE1882846FFF708FF70BD00218B
:1025200001804180012181800021C18001817047AB
:102530002DE9F04105460C4600260127608808B9C0
:10254000022600E00026A088012801D1022700E031
:1025500001272088A0B92389A28861882846FFF72F
:102560008AFFE1882846FFF77DFF23893A463146F6
:102570002846FFF74AFFE1882846FFF739FF13E0B6
:102580002389A28861882846FFF73FFFE188284613
:10259000FFF72EFF23893A4631462846FFF76BFFA7
:1025A000E1882846FFF75EFFBDE8F0810146486BF1
:1025B00070470146886B70470146C86B70470146FB
:1025C000086C70470A884B881A438B881A43CB885B
:1025D0001A430B891A434B891A438B891A43A0F873
:1025E000442070470021018041808180C1800181A9
:1025F00041818181704731B1B0F8442042F40042FA
:10260000A0F8442005E0B0F84420C2F30E02A0F880
:102610004420704721B1828842F00402828004E0A5
:1026200082884FF6FB731A408280704721B18288FE
:1026300042F00102828004E082884FF6FE731A4065
:10264000828070471AB183890B43838102E08389BA
:102650008B43838170478182704702460020138A32
:102660000B4201D0012000E000207047CA430282E3
:10267000704730B50246002000230024158A05EA81
:102680000103958905EA010413B10CB1012000E0B2
:10269000002030BDCA430282704741EA0203A0F81D
:1026A000483070471AB183890B43838102E08389E4
:1026B0008B438381704721B1828842F00802828077
:1026C00004E082884FF6F7731A40828070470189D0
:1026D0004FF6F8721140018170470A4600210189C6
:1026E0004FF68F73194011430181704730B504468E
:1026F0000D4629462046FFF7F0FF208940F00700ED
:10270000208130BD2DE9F04104460D4616461F4696
:10271000602D06D13B46012231462046FFF775FE6B
:1027200005E03B46012231462046FFF7A4FE29463C
:102730002046FFF7D2FF208940F007002081BDE846
:10274000F08130B50C4600210189C9B24FF6FF7502
:1027500005EA0325154325432943018130BD2DE9B1
:10276000F04105460E4617469846002443463A4631
:1027700031462846FFF7E5FF2C894FF6F8700440F4
:1027800044F007044FF68F70044044F070042C812D
:10279000BDE8F081F0B504460D4616461F463B469F
:1027A000324629462046FFF7CCFF208940F480407E
:1027B0002081F0BD82884FF68F731A408280828814
:1027C0000A438280704702894FF6F8731A400281EB
:1027D00002890A430281704702894FF67F731A40CB
:1027E000028102890A4302817047F0B50C46154602
:1027F0001E460021002200230189028B038C4FF624
:10280000F877394021434FF6FC473A4040F2011730
:102810003A434FF6DD773B404FF6FF7707EA06175E
:102820002F433B43018102830384F0BD21B18288A1
:1028300042F08002828004E082884FF67F731A4063
:1028400082807047A0F85010704730B50B460146A3
:1028500000202022012409E021FA02F59D4205D33F
:1028600003FA02F5491B04FA02F52844151EA2F1E9
:102870000102F1DC30BD0000064C074D06E0E068C7
:1028800040F0010394E8070098471034AC42F6D3B7
:10289000FDF77EFCF83A0008283B00080000000025
:1028A0000FB4054B10B503A9044A029800F03AF89A
:1028B00010BC5DF814FB0000171100085000002048
:1028C00002E008C8121F08C1002AFAD170477047F9
:1028D000002001E001C1121F002AFBD1704710B592
:1028E000002A06DA22F00042D21D22F0070310224D
:1028F00003E0D21C22F003030C2213B19C188C427B
:1029000001D9012010BD024401448360C0E90021C7
:10291000C91AD018884202D810600246F9E7002090
:10292000106010BD2DE9FF4F89B09B46044600257D
:1029300097E0252833D10027641C4E49B846012270
:102940002378203B02FA03F0084202D00743641CBC
:10295000F6E720782E2819D114F8010F47F0040764
:102960002A280ED06FF02F022078A0F1300109291B
:102970000CD808EB880102EB410100EB0108641C54
:10298000F2E70A98641C50F8048B0A90207800281B
:102990006BD0642808D0692806D0752820D05A4604
:1029A0000B9990476D1C5BE00A994FF00A0901C929
:1029B0000A91002804DAC0F100004FF02D0102E076
:1029C000390504D52B218DF82010012103E0F907EA
:1029D00004D02021F7E78A4608AE0EE00021FAE78E
:1029E0000A994FF00A0901C90A91F7E74946FFF72A
:1029F0002CFF01F1300106F8011D0028F6D1ADEBE6
:102A0000060000F12009780701D44FF00108C845FD
:102A100002DDA8EB090000E000208046002706E068
:102A200008A85A46C05D0B9990476D1C7F1C5745FE
:102A3000F6DB04E030205A460B9990476D1CB8F144
:102A40000001A8F10108F5DC05E016F8010B5A4673
:102A50000B9990476D1CB9F10001A9F10109F4DC53
:102A6000641C207800287FF464AF0DB02846BDE8D0
:102A7000F08F00000928010008480068C0010BD54C
:102A800007480068C00707D005488038006800285C
:102A900002DA04490120087070470000FCED00E0F4
:102AA000800E00E08A0000204FF06042D36F002BC0
:102AB000FCD0C36AD367D36F002BFCD0C07840EA48
:102AC0000120A2F87C0070474FF06041CA6F002AD5
:102AD000FCD081F87C00704770B504000D4603D02F
:102AE00012B92078012801D0802070BD204600F066
:102AF000AFFA28B12946204600F040F8002070BD0A
:102B0000812070BD0246084810B500EB810050F8E6
:102B1000040C002806D0114600F0EEFBBDE8104082
:102B200000F0DABB10BD00005428001010B50446B8
:102B30008089002821D0608904EB8000006908604A
:102B40006078022805D10021204600F0D5FB00F076
:102B5000C3FB04F10C0000BFD0E85F1F491EC0E8B2
:102B6000521F002AF8D16089401C80B26081E1893F
:102B7000884201D100206081042010BD10B500F012
:102B8000BBFBBDE8104000F0A7BB0000EFF30581E0
:102B900009B182207047DFF808C000DF70470000ED
:102BA00005380008EFF305820AB182207047EFF381
:102BB0001482144B12F0030206D0012A1BD0022A01
:102BC00011D0032A19D113E0EFF3088282F30988A8
:102BD0001A78D2070AD0022282F31488BFF34F8FEB
:102BE000BFF36F8F09E01A78D20706D10322F3E70B
:102BF0001A78D20701D0FF207047DFF80CC000DF41
:102C000070470000B03A0008193800082DE90E405E
:102C1000EFF30582B2B102004FF0800000D021B185
:102C20000090DDE9011203B000BD11780129F7D150
:102C300001A91046FFF77AFF042801D00020EFE732
:102C40001020EDE7DFF804C000DFECE711390008E1
:102C50002DE97040EFF3058272B10C4600F00CFDD7
:102C60004FF0004530B1210C04D1058BC178A0B2E2
:102C7000FFF748FF284670BDDFF804C000DF70BDD5
:102C80004B390008DFF80CC000DFDFF80CC000DFB4
:102C9000FEE70000E1390008FD390008DFF804C054
:102CA00000DF7047353A0008094C4FF0FF352946E0
:102CB0002068FFF7ABFF02460846102AF7D1FFF75E
:102CC000EDFF0028F3D0024608469047EFE70000EA
:102CD000200000204FEA000151E8000F28B10368EE
:102CE00041E80032002AF7D17047BFF32F8F7047B9
:102CF00010B568B161B10B3121F00302016844687D
:102D00000B1A1B1B934205D2084609680029F5D10E
:102D1000002010BD3CB121180368C1E900320160F8
:102D200001F1080010BD4260083010BD70B50C46BE
:102D3000002812D04FF6FF71084D884204D22A684D
:102D40000146104600F004FB28684470044800F077
:102D500005F9BDE8704000F0BDBB70BD7C000020EF
:102D6000C40000200F4810B50D4942680E480B689A
:102D70000088934204D00A60CB88421E1A448A809D
:102D80008A8882420AD100200860064800F0E6F8EE
:102D90000146BDE81040034800F008BB10BD00002C
:102DA0008C000020C40000208800002070B5194D60
:102DB000E86800282CD0A88A401EA882002621E0BE
:102DC000A06838B161684160606810B1A168816035
:102DD0006660A6600F482146183800F0E7FAA08A1E
:102DE000A8826078042804D10B49E08A0988084445
:102DF000A08201206070E068E860E06808B10561C9
:102E0000E6602661A88A002802D1EC68002CD7D1A0
:102E100070BD0000DC0000208800002070B50400B8
:102E20000FD00D4DA17801262868827891420CD9E7
:102E300000F0D8FA286846702046BDE8704000F0DF
:102E400049BB064800F08AF8F7E766702146BDE8FE
:102E50007040024800F0AABA7C000020C4000020A4
:102E60000321FFF763BF000010B50446008B084341
:102E700020836278618B062A18D0052A19D108426E
:102E800017D001EA0002628388432083204600F0C5
:102E9000C9FA01206070628B0821204600F0BAFA5E
:102EA0002146BDE81040034800F080BA31EA000234
:102EB000EAD010BDC40000200246154810B500EB52
:102EC000810050F8044C002C21D0208B104320832B
:102ED0006278618B062A17D0052A18D1084216D0CD
:102EE00001EA0002628388432083204600F09AFAB8
:102EF00001206070628B0821204600F08BFA20468A
:102F0000BDE81040FFF78ABF31EA0002EBD010BDE8
:102F100054280010814202D342688A4201D801201D
:102F2000704750E8002F0A6040E80012002AF8D1EC
:102F30000020704768B161B10839002202E0024602
:102F4000006830B18842FAD12AB1006810600020D0
:102F500070470120704700214160F8E70146406852
:102F600042684A600B780022022B05D0012B03D067
:102F7000032B01D04260704743680BB199604260F7
:102F800082607047810700D00020704770B504460A
:102F900000201546207001226270A1706060A06060
:102FA000E0602061A082E0822083608384F82000BA
:102FB000608C18B90448FFF78DFEA06229462046B0
:102FC000BDE8704000F01CB82002001008B10829CC
:102FD00001D2012070470144091F002201600A60EC
:102FE0004260104670470000034800210160034919
:102FF0000968C180704700008C000020A83A0008D2
:1030000010B5428C920803D10F4A1268C2F38D02A8
:10301000836A03EB8202530700D5121F403A4FF038
:103020008073C2E90E1300234FEA030442F82340E1
:103030005B1C0E2BFAD3C36913624262C162806AC1
:103040000249016010BD0000A43A0008A52E5AE212
:10305000C1898089081A70470122027000224270DB
:103060008270426002814281103982818908C18167
:10307000704700002DE9F0410446407800270E46D5
:103080004FF00108012855D004F10C0502282BD07F
:10309000032818D0A089E189884262D2208904EBF4
:1030A00080000661D5E85F0F401CC5E8510F00297C
:1030B000F8D12089401C80B22081E189884200D16A
:1030C0002781BDE8F0810846FFF704FE0600F8D02E
:1030D0002046FFF743FF0546606800B96770314638
:1030E000284600F091F931E02046FFF737FF064609
:1030F000606800B967700021304600F085F92189C9
:10310000F06904EB81010861D5E85F0F401CC5E858
:10311000510F0029F8D12089401C80B22081E1891B
:10312000884200D1278186F80180304600F07AF984
:10313000314611E02046FFF711FF0546606800B9EF
:10314000677032461021284600F064F985F8018046
:10315000284600F067F92946BDE8F041034800F031
:1031600025B9BDE8F0410320FDF7F0B9C400002007
:1031700070B50446808915460026C8B3608904EB03
:103180008000006908606089401C80B26081E1892C
:10319000884200D16681607802280AD014F10C04BC
:1031A000D4E85F0F401EC4E8510F0029F8D1002079
:1031B00070BD2046FFF7D2FE0546606800B9667014
:1031C0000021284600F020F92189E86904EB8101FB
:1031D00008612089401C80B22081E189884200D1A9
:1031E0002681284600F01EF92846FFF717FEDEE785
:1031F000FFE73DB10A48626801682AB1204600F045
:10320000D5F807E0012070BD61600068C0E9016485
:103210000120607008212846FFF788FDF2E70000D2
:103220007C000020411C13D00B4A4FF6FE719042E7
:103230000CD800EB4002C2EBC0120848036803EB55
:10324000C202521EB2FBF3F0884200D90846704712
:103250004FF6FF707047000000093D00B43A0008C7
:1032600070B51A4801210068417000F0BBF8184D94
:103270006C7816E005EBC40148680278E2B1012AD7
:103280001FD000F0FBF8E878641C844200D10024D1
:103290000F48801CD0E84F1F491EC0E8421F002A7B
:1032A000F8D1A8780028E5D16C700A48FFF756FEDF
:1032B000BDE8704000F00EB9896889B2FFF7D4FD0F
:1032C000E1E78968FFF7D6FEDDE700007C0000201B
:1032D000D0270010C40000200548017811B1012159
:1032E0004170704703494FF08050086070470000FC
:1032F0008400002004ED00E0F0B4144B9C1CDD7849
:103300004FEA030CD4E84F2FAA4202D1BFF32F8F0C
:103310000EE0521CC4E8462F002EF3D1DCE84F2FFC
:10332000541CAC4200D10024CCE8464F002EF5D10D
:10333000DC78944205D903EBC202C2E90101F0BC7A
:103340007047F0BC0220FDF701B90000D027001043
:10335000154A10B5D368FBB113469B8A09E000BF3C
:10336000D2F80CC0BCF1000F16D0BCF81440624675
:1033700023448B42F4D3D468C460D0600261D0F897
:103380000CC0BCF1000F01D0CCF81000591A81829A
:10339000908A401A908210BD0024C460D060C91A7F
:1033A00002619182848210BDDC00002010B5027899
:1033B0000023022A03D0012A01D0032A00D10123CD
:1033C00091F802C000E01046426812B1947864455A
:1033D000F9D24A6041601BB102B19160886010BDB2
:1033E0000020FBE703494A6842600022826048608F
:1033F00070470000C400002090F82010406A09B116
:10340000603070472030704710B50C46FFF7F4FF6E
:10341000046010BD70B50C461546FFF7EDFFC0E91E
:10342000004570BD10B5016900290ED0C268CA60A0
:10343000C36800223BB18B8A848A23448B82C36891
:103440001961C26000E08A82026110BD816839B1F1
:1034500042684A604168002901D0806888607047EE
:10346000054906E04A68824202D1406848607047D8
:1034700011460029F6D17047C400002010B54168FC
:1034800081B1FFF76BFD0446FFF7CCFF01206070B0
:1034900001462046FFF7B8FF2146BDE8104003482B
:1034A000FFF784BF4188491C418010BDC400002043
:1034B00006480068D0E90910814203D30068044936
:1034C000884202D00120FDF741B870477C000020FF
:1034D000A52E5AE20749022248604270064A127835
:1034E000002A05D006C98A4202D0C078FFF7ECBA9C
:1034F000704700007C0000208A0000202DE9F04188
:1035000004460D469046FFF7B7FA002006463849B4
:10351000384B02E041F82060401C1A889042F9D3F1
:103520003548302201883548FFF7D9F9344800681A
:1035300080B240F00042334801683348FFF7CFF9CA
:1035400032480822018832480068FFF7C8F9314F35
:10355000FF20314AF8707E8400213846FFF716FDBF
:103560002E480421017046602D480170C660066136
:103570008682786A2030FCF715FE2A482B490760BE
:10358000022078702848067046700978C170284873
:1035900001684FF0E0204161866107210161254803
:1035A0000168254A114301600068224900F07F400C
:1035B000C0431439B0FA80F00968C0F10800C1F3C3
:1035C0000221814200DB481C1A49091F0B686FF079
:1035D0008072824063F317020A60FFF705FD4246DE
:1035E00029462046BDE8F041002300F06DB80000F8
:1035F00054280010A03A0008BC3A0008000000104F
:10360000A43A0008C03A000820020010E43A00087A
:10361000180000209400002049050008C400002084
:10362000DC0000207C000020D0270010C83A0008F1
:10363000AC3A000820ED00E00000FFFF0B4810B599
:10364000006801214170FFF7CDFEFFF78BFB0849B1
:103650000888401C0880FFF7A9FB00F0F7F905482F
:10366000FFF77CFCBDE81040FFF734BF7C00002072
:1036700088000020C4000020002805D0810702D166
:103680000178002900D000207047000030B50D4CB3
:103690000023226808E000BFB2F808C08C4505D8B6
:1036A00013461268A1EB0C01002AF5D189B2026021
:1036B000018112B11589691A11810BB1186030BDF1
:1036C000206030BD780000202DE9F041804616468C
:1036D0001F460D4611F0FF0F00D14D1C1648FFF795
:1036E000F9FA040026D0280AA6626084E9B24246AC
:1036F0002046E761FFF74AFC01251048104905E024
:1037000000EB850252F8042C22B16D1C0A88954208
:10371000F6D9002500EB850040F8044C0948E57017
:10372000007818B101212046FFF7BEF92046FFF7C7
:1037300075FB2846BDE8F0810000001054280010F9
:10374000A03A00088A0000202DE9F041244C234FC4
:10375000244B22680026D17808B1814218D103EBAE
:103760008100567040F8046C1F48916AFFF7D2FB45
:1037700020688662397811B10021FFF795F91B485E
:103780002168FFF7C7FB00202660FFF747FB1FE01B
:103790001749098888421ED803EB800555F8044C68
:1037A000CCB12046FFF752FE2046FFF73BFE45F81E
:1037B000046C0D48A16AFFF7ADFBA662387818B11A
:1037C00000212046FFF770F921460848FFF7A2FBC9
:1037D0000020BDE8F081FF20FBE700008A00002008
:1037E0007C0000205428001020020010000000106F
:1037F000A03A000802480068002800D0C07870474E
:103800007C00002010B5002805D0FFF70BFD80B22A
:10381000FFF726FB402010BD70B504000D4608D010
:10382000206830B1B4F9040010F1030F01DB032864
:1038300001DD862070BD244E306840B1204600F086
:1038400097F8A0B100F0CCF800F0D8F837E01F48A6
:1038500040070CD11E4801681C48FFF7B7FB30B980
:10386000E16831B11948FFF743FA020002D185201F
:1038700070BD0022B4F90400E168001D40EA012196
:103880002068FFF73BFE7068D8B1C078114901EBA2
:10389000800050F8040C3060416A0D62406A0E49A5
:1038A000416300210D4800F021F80D490860002116
:1038B0000C4800F05DF80C490860002030600020E2
:1038C00070BDFF2070BD00007C0000207021001042
:1038D000C43A000854280010852C0008DC3A00087F
:1038E00020000020CC3A00081C00002010B5040085
:1038F00005D0216819B1606808B102780AB10020CA
:1039000010BD8900103189B2FFF7A6FB606810BDB9
:103910003EB504000D464FF0800012D021780129F9
:103920000FD12846FFF77EFC82B201A92046FFF79F
:103930001FFC012801D0102003E00DB1402000E061
:103940000020DDE9011203B030BD70B50C46FFF771
:1039500093FE4FF0004108B1220C01D0084670BD23
:10396000058BC178A0B2FFF7A7FA284670BD00000A
:1039700070B504000E462BD0206848B3B4F904009B
:1039800010F1030F24DB032822DCE16829B1114880
:10399000FFF7AEF9050015D000E00025B4F90400EA
:1039A000E168001D40EA012133462A462068FFF7FE
:1039B0008BFE40B1084901EB8000084950F8040C27
:1039C000426A516370BD1DB129460248FFF7B2FA41
:1039D000002070BD7021001054280010852C0008B4
:1039E00010B5FFF707FF002804D0034901EB800062
:1039F00050F8040C10BD00005428001070B5FFF7FB
:103A00003BFE040003D0608C18B1A56A02E0802060
:103A100070BD0025E078FFF797FEFF2806D01DB1A6
:103A20000348A16AFFF786FA002070BD812070BDAF
:103A30007021001010B5FFF7A5FA20B101690A68DE
:103A4000C168104610BD0020014610BD2DE9F041AF
:103A5000114E3468002C18D02089104F401E208150
:103A60004FF001080EE02546246834600022294604
:103A70003868FFF731F86879012808D085F80480A4
:103A8000002C02D020890028EDD0BDE8F0816989A2
:103A90002846FFF7FBFDF3E7780000202000002018
:103AA0000B00000020030201050001003F9002000E
:103AB00001000000E8030000000000001C020000FC
:103AC000501F00006006000010000000A92C000834
:103AD00002000000010000002003000004000000BC
:103AE00080280010000000005105000800000000C0
:103AF0000100000020030000283B00080000002017
:103B000094000000C0280008283B000800000010B6
:103B1000A0280000D0280008BC3B0008940000202A
:103B200064040000D0280008007A030A00000000A6
:103B3000000000000102030406070809000000005D
:103B400000000000000000000000000000007A44B7
:103B50000000000000000000000000000000000065
:103B6000FFFFFFFF00000000000000000000000059
:103B70000000000000000000000000000000000045
:103B800000007A4400000000000000000000000077
:103B900000010203040102030406070809000000F3
:103BA0000000000000000000000000000000000015
:0C3BB00000000000000000000000000009
:040000050800018965
:00000001FF
