:020000040800F2
:10000000D0050020250500082D0500082F05000853
:100010003105000833050008350500080000000020
:1000200000000000000000000000000009020008BD
:100030003905000800000000AD0200080D030008AB
:100040003F0500083F0500083F0500083F05000880
:100050003F0500083F0500083F0500083F05000870
:100060003F0500083F0500083F0500083F05000860
:100070003F0500083F0500083F0500083F05000850
:100080003F0500083F0500083F0500083F05000840
:100090003F0500083F0500083F0500083F05000830
:1000A0003F0500083F0500083F0500083F05000820
:1000B000B50A0008950A00083F0500083F0500083A
:1000C0003F0500083F0500083F0500083F05000800
:1000D0003F0500083F0500083F0500083F050008F0
:1000E0003F0500083F0500083F0500083F050008E0
:1000F0003F0500083F0500083F0500083F050008D0
:100100003F0500083F0500083F0500083F050008BF
:100110003F0500083F0500083F0500083F050008AF
:100120003F0500083F0500083F0500083F0500089F
:100130003F0500083F0500083F0500083F0500088F
:100140003F0500083F0500083F0500083F0500087F
:100150003F0500083F0500083F0500083F0500086F
:100160003F0500083F0500083F0500083F0500085F
:100170003F0500083F0500083F0500083F0500084F
:100180003F0500083F050008DFF814D003F0CEFA61
:100190000021024804F068FDFEE70000A05E0008B0
:1001A000D005002080F309887047684680F30988ED
:1001B00004480078C00714BF0220032080F314888D
:1001C00070470000685E0008DFF818C0EFF3058391
:1001D0001B0618BF6047EFF31483DB0708BF6047B7
:1001E00000DF7047F94D0008DFF818C0EFF3058312
:1001F0001B0618BF6047EFF31483DB0708BF604797
:1002000000DF704779500008EFF30980816911F829
:10021000021C002933D190E80F1010B5E047BDE86B
:100220001040EFF3098C8CE807001D4B93E80600A3
:10023000914208BF704781B11EF0100F06BF2CED30
:10024000108A0120002081F820002CE9F00FC1F86D
:1002500024C00CB405F07AFA0CBC1A60D2F824C0A1
:10026000BCE8F00F92F8200000281ABFBCEC108AFE
:100270006FF0120E6FF0020E8CF30988704710B504
:10028000084A1268914209D8074C54F8214090E876
:100290000F10A047EFF3098C8CE80F0010BD000091
:1002A00084000020703700087037000810B505F092
:1002B0000BF9BDE81040174B93E80600914208BFC8
:1002C0007047EFF3098C1EF0100F06BF2CED108A5B
:1002D0000120002081F820002CE9F00FC1F824C093
:1002E0000CB405F033FA0CBC1A60D2F824C0BCE898
:1002F000F00F92F8200000281ABFBCEC108A6FF0B3
:10030000120E6FF0020E8CF30988704710B505F0DD
:10031000E3FACEE7840000200CB5002001900090A5
:100320007548006840F480307349086000BF724827
:10033000006800F4003000900198401C0190009883
:1003400018B90198B0F5A06FF1D16B48006810F4AE
:10035000003F02D00120009001E0002000900098B2
:10036000012845D164484030006840F0805062491F
:10037000403108606148006840F480405F4908608F
:100380005D48083000685C4908310860084600682C
:1003900040F4004008600846006840F4A05008603F
:1003A0005748091F0860081F006840F08070091F47
:1003B000086000BF5048006810F0007FFAD040F29B
:1003C0000560504908604C480830006820F0030080
:1003D0004949083108600846006840F0020008609A
:1003E00000BF45480830006800F00C000828F8D12C
:1003F0000CBD10B54448006840F4700042490860E4
:100400003D48006840F001003B49086000203A493F
:1004100008310860384800683C490840364908609F
:100420003B48091D0860081F006820F48020091F50
:100430000860002030490C310860FFF76DFF4FF075
:10044000006031498039086010BD70B5002000227D
:10045000022300240221284D08352D6805F00C00E8
:1004600020B1042806D0082834D107E0294D2A4EAF
:10047000356033E0294D284E35602FE01E4D2D1D8F
:100480002D68C5F380541C4D2D1D2D6805F03F01CE
:1004900054B1224DB5FBF1F5174E361D3668C6F343
:1004A000881605FB06F209E01A4DB5FBF1F5124E70
:1004B000361D3668C6F3881605FB06F20E4D2D1D57
:1004C0002D68C5F301456D1C6B00B2FBF3F5124EB0
:1004D000356003E00F4D104E356000BF00BF064D84
:1004E00008352D68C5F303150D4E705D0A4D2D6856
:1004F000C540094E356070BD0038024000700040B4
:1005000008544007003C024088ED00E0FFFFF6FE83
:10051000103000240024F4000000002000127A00B3
:10052000040000200648804706480047FEE7FEE733
:10053000FEE7FEE7FEE7FEE7FEE7FEE7FEE7FEE793
:10054000F30300088901000800BFFEE700BFFEE7D3
:1005500000F0F4F900F0B9FA00F002FB00210848BD
:1005600004F016FC074908600021074804F010FC5D
:100570000649086003E04FF0FF3004F069FBFAE73A
:10058000B05E00084C000020C05E0008380000206B
:1005900008B502223921684602F0E7FC08BD00B523
:1005A000B5B007202C90EE202B9055202A90FF20EC
:1005B000299007208DF8BA0000208DF8BC008DF836
:1005C000BB008DF8B90040208DF8B8002EA802F0CD
:1005D000B6FC40208DF8B40015208DF8B500002041
:1005E0008DF8B6002DA802F0FEFC7F202890012196
:1005F000102001F0F1F900208DF8C4008DF8C7003B
:100600000120309030A9B14800F0A0FF0122222142
:100610002CA802F0E4FB01223C212BA802F0DFFB16
:1006200001223B212AA802F0DAFB01223D2129A860
:1006300002F0D5FB01223E2128A802F0D0FB0121C7
:10064000880301F00DFA0021042001F00BFD0120C8
:10065000339000208DF8D00008208DF8D1000120C3
:100660008DF8D20033A800F083FE06208DF8C80074
:1006700001208DF8C9008DF8CA008DF8CB0032A892
:1006800000F0FBFDFFF784FF9FED910A914880ED9C
:10069000000A9FED910A80ED010A9FED900A80ED1E
:1006A000020A9FED8F0A80ED030A9FED8E0A80ED0E
:1006B000040A9FED8D0A80ED050A9FED8C0A80EDFE
:1006C000060A9FED8B0A80ED070A9FED8A0A80EDEE
:1006D000080A9FED890A80ED090A9FED880A80EDDE
:1006E0000A0A9FED870A80ED0B0A1BA800F0ABFBFE
:1006F0000EA800F0A8FB01A800F0A5FB35B000BDD6
:1007000030B50B46002122E0002440F821400022B1
:100710001AE001EB41046F4D05EB840404EB820405
:10072000D4ED000A53F8224000EE104AB8EEC00A99
:1007300020EE800ABDEEC00A10EE104A50F821509B
:100740002C4440F82140521C042AE2DB491C0329B6
:10075000DADB0468083404604468113C446084684F
:10076000123C846030BD1FB50446684602F0A3FC0D
:100770004FF47A700390FFF70BFF69462046FFF7AE
:10078000BFFF1FBD70B52DED048B04460D46164608
:1007900000EE106AB8EEC01A00EE105AF8EEC00A69
:1007A00000EE104AB8EEC00A00F084FAB0EE409AAB
:1007B000F0EE609A9FED530B53EC102B51EC190B9C
:1007C00002F061FD41EC100BB0EE408AF0EE608A61
:1007D00051EC180B02F0DCFD00EE100ABDEC048BAE
:1007E00070BD70B52DED048B04460D46164600EE27
:1007F000106AB8EEC01A00EE105AF8EEC00A00EE09
:10080000104AB8EEC00A00F0A7FAB0EE409AF0EE37
:10081000609A9FED3C0B53EC102B51EC190B02F03E
:1008200032FD41EC100BB0EE408AF0EE608A51ECE4
:10083000180B02F0ADFD00EE100ABDEC048B70BD8C
:1008400086B042E04FF0FF31012004F095FA8DE8C8
:10085000070003A8FFF787FF2C48039900F0D2FA9E
:100860002B48049900F0CEFA2A48059900F0CAFAFC
:100870004FF0FF312848006804F058FA254BDA6A37
:10088000234BD96A214BD86AFFF77CFF234880EDC0
:10089000000A204BDA6A1E4BD96A1C4BD86AFFF754
:1008A000A0FF1F4880ED000A1B48006804F032FAE0
:1008B00001211C48006804F045FA1948D0ED000AEF
:1008C000164890ED000A00F07EF8BBE700100240E9
:1008D0009621863FA000002075029ABC17B7D13B35
:1008E0005839B43B1826833F2E9020BC304CA6BC10
:1008F0003B70CEBB9A99813F39D6453DDC4683BDDE
:10090000CDCC4CBCAA9F9622DCA54C40D000002048
:100910000401002038010020680000206000002051
:10092000640000203800002010B5574C2060241DC2
:100930002160241D2260241D236010BD1CB50121EF
:10094000082001F049F84FF47840009002208DF81B
:10095000040003208DF8050000208DF8060001201A
:100960008DF807006946494800F0F0FD02220B218E
:10097000464800F076FE02220C21444800F071FE49
:1009800002220D21414800F06CFE02220E213F4858
:1009900000F067FE02220F213C4800F062FE0023B7
:1009A0001A4619461846FFF7BFFF1CBDF0EE400A75
:1009B000F5EEC00AF1EE10FA02D2B1EE600A70470D
:1009C000B0EE600AFBE71FB5F0EE401AB0EE601A19
:1009D000B0EE080AB4EEC01AF1EE10FA0ADD0020FB
:1009E00000909FED2B0A21EE000ABDEEC00A8DEDAE
:1009F000020A18E0B0EE080AB4EEC01AF1EE10FADE
:100A00000ED2B0EE410AFFF7D1FFDFED210A20EE52
:100A1000200ABDEEC00A8DED000A0020029002E01F
:100A2000002000900290B0EE080AF4EEC01AF1EE39
:100A300010FA0ADD002001909FED150A21EE800AD0
:100A4000BDEEC00A8DED030A18E0B0EE080AF4EE20
:100A5000C01AF1EE10FA0ED2B0EE610AFFF7A6FF4F
:100A6000DFED0B0A20EE200ABDEEC00A8DED010A73
:100A70000020039002E00020019003909DE80F0009
:100A8000FFF752FF1FBD000034080040000C024079
:100A90000000364410B50121804802F080F840B1D2
:100AA00001217F48006804F04DF901217B4802F0E4
:100AB00087F810BD10B50121880702F070F818B151
:100AC0000121880702F07CF810BD1FB50024012128
:100AD000022000F0B4FF1D208DF80C0000208DF8DE
:100AE0000D0001208DF80E008DF80F0003A800F016
:100AF000C4FB4FF6FF7001900020ADF80000ADF888
:100B000008006946654801F092FB32240122214623
:100B1000624801F0C9FB01221146604802F028F842
:100B200001215E4801F00CFC1FBD1CB50121022013
:100B300000F052FF684600F051FD4FF42050009045
:100B400001208DF8040003208DF8050000208DF8A9
:100B500006008DF807006946524800F0F7FC1CBDFE
:100B600010B58AB00121042000F069FF1E208DF825
:100B7000100000208DF8110001208DF812008DF872
:100B8000130004A800F079FB4FF6FF7002900020DC
:100B9000ADF80400ADF80C00ADF8060001A942481C
:100BA00001F045FB4148006840084149B0FBF1F0C5
:100BB000401E84B2012221463B4801F075FB7020A3
:100BC000ADF814000120ADF816000420ADF81800AF
:100BD0004AF2010007900220ADF820000020ADF895
:100BE00022004FF48070ADF824000020ADF82600FC
:100BF00005A92D4801F0B0FB46F6AD20079005A9E8
:100C0000294801F0E2FB43F25650079005A9264817
:100C100001F028FC41F6AA20079005A9224801F01E
:100C200087FC0121204801F08BFB01211E4801F0C7
:100C300078FF0AB010BD1FB500240121084600F05E
:100C4000FEFE1C208DF80C0000208DF80D00012008
:100C50008DF80E008DF80F0003A800F00EFB4FF684
:100C6000FF7001900020ADF80000ADF80800694663
:100C70004FF0804001F0DBFA40240122214690072A
:100C800001F012FB01221146900701F071FF0121D2
:100C9000880701F055FBFFF748FF1FBD0004004027
:100CA0004C0000200004024000080040000000202A
:100CB000808D5B0010B52DED108BB0EE408AF0EE0C
:100CC000608AB0EE419A19EE100A02F04EFB41EC38
:100CD000100BB0EE40EAF0EE60EA9FED481B02F028
:100CE000C7FFB0EE40CAF0EE60CA18EE900A02F0FC
:100CF0003CFB41EC100BB0EE40EAF0EE60EA9FEDF9
:100D00003F1B02F0B5FFB0EE40DAF0EE60DA53ECD4
:100D10001C2B51EC1D0B02F00FFA41EC100BB0EE46
:100D200040BAF0EE60BA03F0EBFDB0EE40AAF0EE90
:100D300060AA18EE100A02F018FB41EC100BB0EE9E
:100D400040FAF0EE60FAB0EE4A1AF0EE6A1A02F0DB
:100D50009FFEBDEC108B10BD10B52DED108BB0EECD
:100D6000408AF0EE608AB0EE419A19EE100A02F065
:100D7000FCFA41EC100BB0EE40EAF0EE60EA9FEDB9
:100D80001F1B02F075FFB0EE40CAF0EE60CA18EE0D
:100D9000100A02F0EAFA41EC100BB0EE40EAF0EE75
:100DA00060EA9FED161B02F063FFB0EE40DAF0EE52
:100DB00060DA53EC1C2B51EC1D0B02F0BDF941EC39
:100DC000100BB0EE40BAF0EE60BA03F099FDB0EE51
:100DD00040AAF0EE60AA18EE900A02F0C6FA41ECC2
:100DE000100BB0EE40FAF0EE60FAB0EE4A1AF0EEF8
:100DF0006A1A02F04DFEBDEC108B10BD0000000021
:100E000000000040B0F9303050F82330826AD21A26
:100E10008262B0F9302040F82210B0F9303050F83A
:100E20002330826A1A448262028E521C12B20286F7
:100E3000028E0A2A01D1002202860A23826A92FBCC
:100E4000F3F2C2627047002103E0002240F8212043
:100E5000491C0A29F9DB002282620286704710B51C
:100E60000446FFF79CFBFFF7EBFC10BD10B50446F2
:100E700000F0CEF800F0B9F910BD000000BFFEE7A9
:100E800070B50446F348058805E02800A5F1010582
:100E900001D1FFF7F3FF0221EF4801F09AF8002893
:100EA000F3D02146EC4801F05DF8EA48058805E0FA
:100EB0002800A5F1010501D1FFF7E0FF0121E64877
:100EC00001F087F80028F3D0E34801F048F8C0B2F9
:100ED00070BD2DE9F047074688461546012D01DD16
:100EE000402600E000264FF48051DC4800F0ACFBC7
:100EF00048EA0600FFF7C4FF8146002404E0385D9D
:100F0000FFF7BEFF8146641CAC42F8DB4FF4805112
:100F1000D24800F097FB4846BDE8F08700B587B09F
:100F20000121880300F08BFD0121022000F054FD17
:100F30000121022000F050FD05220D21C74800F0DC
:100F400090FB05220E21C54800F08BFB05220F21E6
:100F5000C24800F086FB02208DF8180000208DF8B2
:100F600019008DF81A0002208DF81B00000305906F
:100F700005A9BA4800F0EAFA4FF48040059005A9A7
:100F8000B64800F0E3FA4FF40040059005A9B348D5
:100F900000F0DCFAB04800F05DFE0020ADF8000083
:100FA000ADF80400ADF80600ADF808004FF400708D
:100FB000ADF80A001820ADF80C000020ADF80E00C6
:100FC0000720ADF810004FF48270ADF802006946BA
:100FD000A14800F065FE01219F4800F042FF01207A
:100FE0008DF8180000208DF819008DF81A004FF4C4
:100FF0008050059001208DF81B0005A9974800F04E
:10100000A5FA4FF48051954800F01CFB07B000BDD5
:101010001FB5FFF783FF29208DF800000122002172
:101020006846FFF756FF06208DF8000001221146A2
:101030006846FFF74EFF07208DF8000001220321CC
:101040006846FFF746FF02208DF8000004208DF867
:1010500001008DF8020000208DF803008DF80400D7
:101060000C208DF8050000208DF806005D208DF81D
:10107000070094208DF8080002208DF809000E204A
:101080008DF80A003B208DF80B0073208DF80C00C2
:1010900042208DF80D00F8208DF80E0000208DF80C
:1010A0000F00102206216846FFF713FF18208DF865
:1010B00000001D208DF801001C208DF80200C720C3
:1010C0008DF8030040208DF80400B0208DF8050055
:1010D000062218216846FFF7FCFEB6208DF80000B6
:1010E00010208DF80100EA208DF802000A208DF80A
:1010F000030000208DF8040019208DF80500062259
:1011000021216846FFF7E5FE59208DF800000122F5
:1011100029216846FFF7DDFE88208DF80000312088
:101120008DF801000B208DF8020003222C21684667
:10113000FFF7CFFE1FBD2DE9F04106468846144655
:101140001F462FB9012C01DDC02504E0802502E0F7
:10115000012F00D1C0254FF48051404800F074FAAF
:1011600048EA0500FFF78CFE06E00020FFF788FE46
:101170003070601E84B2761C002CF6DC4FF4805177
:10118000364800F05FFABDE8F0812DE9F0410646EF
:101190000C46012C01DD402500E0002501223D2107
:1011A0003046FFF796FE074645F03F01224630469F
:1011B000FFF78FFE074601231A4635213046FFF719
:1011C000BAFF002235213046FFF783FE0746002292
:1011D00031213046FFF77DFE07460022352130469B
:1011E000FFF777FE0746BDE8F0811FB530E04FF00E
:1011F000FF31012003F0C0FD8DE807004FF0FF3103
:101200001748006803F092FD164890ED000ADFEDE4
:10121000160A30EE200ABCEEC00A10EE100AC0B268
:101220008DF80C00114890ED000ADFED0F0A30EE4A
:10123000200ABCEEC00A10EE100AC0B28DF80D00F4
:101240000748006803F066FD022103A8FFF79DFF31
:10125000CDE70000540000200038004000040240A8
:1012600068000020600000200000B44264000020FC
:1012700033490143334A1160704770B500210023A0
:101280000F22C47824B32F4C246804F4E064C4F51E
:10129000E064C4F30721C1F10404E3B20A414478D5
:1012A0009C40E1B28478144021430C07210E264C67
:1012B00005786155047804F01F050124AC400578D9
:1012C0006D114FF0E02606EB8505C5F8004109E0F9
:1012D000047804F01F040125A5401C4C0678761103
:1012E00044F8265070BD1A4A0A400243154B1B1F92
:1012F0001A60704739B1134A121D12680243114B2C
:101300001B1D1A6006E00F4A121D126882430D4B26
:101310001B1D1A607047042808D14FF0E0210969AD
:1013200041F004014FF0E022116107E04FF0E021AD
:10133000096921F004014FF0E022116170470000BB
:101340000000FA050CED00E000E400E080E100E0C0
:1013500080FFFF1F002044490860091D0860091D27
:101360000860091D086041483F4914310860704712
:1013700000213D498279002A3AD00A461268036862
:101380009A430B461A600A1D126803689A430B1DA4
:101390001A60027911440A6803681A430A60324AE3
:1013A0000832126803689A432F4B08331A601A1DDB
:1013B000126803689A432C4B0C331A604279102A46
:1013C0000ED11A1F126803681A43274B08331A609C
:1013D0001A1D126803681A43234B0C331A600DE080
:1013E0002149427911440A6803681A430A6005E0FA
:1013F000027911440A6803689A430A607047002121
:10140000016001710C214171002181717047164901
:10141000103109680143144A1032116070470146C7
:101420000020114A143212680A4201D0012000E063
:10143000002070470C4914310860704701460020B5
:101440000022094B1B6803EA0102074B14331B6897
:101450000B4202D00AB1012000E00020704702498F
:101460001431086070470000003C0140FFFF7F001E
:1014700010B504468C48844208D10121084600F08A
:1014800000FB0021012000F0FCFA5EE08748844266
:1014900008D10121022000F0F4FA0021022000F01E
:1014A000F0FA52E08248844208D10121042000F081
:1014B000E8FA0021042000F0E4FA46E07D48844286
:1014C00008D10121082000F0DCFA0021082000F0FA
:1014D000D8FA3AE07848844208D10121102000F07F
:1014E000D0FA0021102000F0CCFA2EE0734884429C
:1014F00008D10121202000F0C4FA0021202000F0B2
:10150000C0FA22E06E48844208D10121402000F058
:10151000B8FA0021402000F0B4FA16E0694884428D
:1015200008D10121802000F0ACFA0021802000F0D9
:10153000A8FA0AE06448844207D10121801500F02E
:10154000A0FA0021A01500F09CFA10BDF0B50A46E3
:1015500000210023002400BF3DE0012505FA01F32E
:10156000156805EA03049C4234D105684F00032640
:10157000BE40B543056015794E00B5400668354359
:1015800005601579012D02D01579022D16D18568D7
:101590004F000326BE40B543856055794E00B540E7
:1015A000866835438560456801268E40B5434560B1
:1015B000456896798E40B6B235434560C5684F00A0
:1015C0000326BE40B543C560D5794E00B540C66818
:1015D0003543C560491C1029BFD3F0BD4FF6FF71DC
:1015E00001600021017141718171C171704708B5BD
:1015F0004FF480320092009A0A430092009AC2612E
:10160000C161009AC261C2690092C269009208BDBC
:101610000246002013690B4201D0012000E00020A7
:1016200070470146086980B270470246002053693E
:101630000B4201D0012000E00020704701464869BC
:1016400080B2704701837047418370470AB10183BC
:1016500000E0418370474161704742694A404261FE
:101660007047F0B5002300244D07ED0E02FA05F394
:10167000CE1000F1200555F826504E07F70E0F2624
:10168000BE40B543CF1000F1200646F82750CE10DB
:1016900000F1200555F8265045EA0304CE1000F16C
:1016A000200545F82640F0BD00000240000402403D
:1016B00000080240000C02400010024000140240EA
:1016C00000180240001C024000200240FA48006856
:1016D00040F00100F84908600020F749083108602F
:1016E000F5480068F5490840F3490860F448091DC9
:1016F0000860081F006820F48020091F086000208F
:10170000ED490C31086070470021EB4A921C1170C2
:1017100011460870704710B50146002200230020D2
:101720004A11012A02D1E44C236808E0022A03D1BD
:10173000E14C7034236802E0DF4C7434236801F01C
:101740001F02012494401C4201D0012000E000202F
:1017500010BD38B5002000900024002500BF3120C6
:10176000FFF7D9FF05460098401C00900098B0F59F
:10177000A06F01D0002DF2D03120FFF7CCFF08B1CF
:10178000012400E00024204638BD01460020CA4A5A
:10179000106820F0F80040EAC10010607047C949A5
:1017A000086070470021C44A70321170117001281E
:1017B00002D004280AD104E00121BF4A703211701E
:1017C00005E00521BC4A7032117000E000BF00BF87
:1017D0007047BD490860704770B5049C41EA8215A6
:1017E0000126C6EB530645EA0645054345EA04656E
:1017F000B14E361D356070BDB24908667047820132
:1018000042EA0172AC4B84331A607047AD49886676
:101810007047AC49C864704702460020A64B0833A5
:10182000186820F0EC6042EA01031843A24B083329
:1018300018607047024600209F4B0833186820F05C
:10184000784042EA010318439B4B08331860704705
:1018500001460020984A0832106820F0030008432F
:101860001060704794480830006800F00C00704722
:1018700001460020904A0832106820F0F00008432A
:1018800010607047014600208B4A0832106820F42F
:10189000E05008431060704701460020864A083235
:1018A000106820F4604040EAC10010607047F0B555
:1018B0000021002200240225002602237E4F083743
:1018C0003F6807F00C0121B1042905D0082937D160
:1018D00005E07E4F076036E07D4F076033E0764FCE
:1018E0003F1D3F68C7F38056734F3F1D3F6807F0A9
:1018F0003F036EB1764FB7FBF3F7DFF8BCC10CF1D5
:10190000040CDCF800C0CCF3881C07FB0CF40CE0E2
:101910006E4FB7FBF3F7DFF8A0C10CF1040CDCF855
:1019200000C0CCF3881C07FB0CF4634F3F1D3F68DD
:10193000C7F301477F1C7D00B4FBF5F7076002E0A9
:10194000624F076000BF00BF5B4F08373F6807F07A
:10195000F00109095F4F7A5C0768D7404760564F2E
:1019600008373F6807F4E051890A5A4F7A5C4768A4
:10197000D7408760504F08373F6807F46041490BF4
:10198000544F7A5C4768D740C760F0BD002100F42F
:101990004072B2F5407F0AD1474A0832116821F4FB
:1019A000F8114D4A02401143434A08321160424A3D
:1019B00070321268C0F30B031A433F4B70331A6046
:1019C000704741494439086070473F4940390860D1
:1019D000704742490860704739B1374A303212685F
:1019E0000243354B30331A6006E0334A3032126816
:1019F0008243314B30331A60704739B12E4A34324A
:101A0000126802432C4B34331A6006E02A4A3432FF
:101A100012688243284B34331A60704739B1264A22
:101A2000383212680243244B38331A6006E0224AE7
:101A3000383212688243204B38331A60704739B10C
:101A40001D4A4032126802431B4B40331A6006E0C5
:101A5000194A403212688243174B40331A6070476C
:101A600039B1154A443212680243134B44331A60A9
:101A700006E0114A4432126882430F4B44331A6025
:101A8000704739B10C4A1032126802430A4B1033C6
:101A90001A6006E0084A103212688243064B10337F
:101AA0001A607047E1B1044A143212680243024BD3
:101AB00014331A6019E0000000380240FFFFF6FE00
:101AC0001030002400004742800E47420024F400FA
:101AD00000127A006C000020FFFCFF0F5C014742FF
:101AE0005B4A126882435A4B1A60704739B1584AB0
:101AF000121D12680243564B1B1D1A6006E0544A21
:101B0000121D12688243524B1B1D1A60704739B177
:101B10004F4A0C32126802434D4B0C331A6006E0F8
:101B20004B4A0C3212688243494B0C331A6070479F
:101B300039B1474A103212680243454B10331A60DC
:101B400006E0434A103212688243414B10331A6058
:101B5000704739B13E4A3C32126802433C4B3C3339
:101B60001A6006E03A4A3C3212688243384B3C33F2
:101B70001A60704739B1364A403212680243344B1A
:101B800040331A6006E0324A403212688243304BDA
:101B900040331A60704739B12D4A4432126802430B
:101BA0002B4B44331A6006E0294A443212688243C0
:101BB000274B44331A60704739B1254A4C321268BA
:101BC0000243234B4C331A6006E0214A4C32126820
:101BD00082431F4B4C331A60704739B11C4A503254
:101BE000126802431A4B50331A6006E0184A50320A
:101BF00012688243164B50331A60704739B1144A49
:101C0000D21F12780243124BDB1F1A7006E0104AF3
:101C1000D21F127882430E4BDB1F1A7070470C489C
:101C20006030006840F0807009496031086070479A
:101C300001460020064A083A12680A4201D00120F3
:101C400000E0002070470249891F087070470000BB
:101C50001438024010B50446F648844208D10121E8
:101C60008014FFF765FF0021A014FFF761FF16E065
:101C7000F148844208D101210014FFF748FF0021F8
:101C80002014FFF744FF0AE0EC48844207D1012109
:101C9000C013FFF73CFF0021E013FFF738FF10BD32
:101CA00010B50022028802F441520B884C8823436D
:101CB0008C882343CC8823430C8923434C892343BA
:101CC0008C892343CC8923431A430280838B4FF2B0
:101CD000FF74234083830B8A038210BD2DE9F04FEC
:101CE0000025022300240127002200269446904666
:101CF0009146B0F81CA04FF2400B0AEA0B0AA0F87C
:101D00001CA04FF0020AA0F820A0858BD1F808A0F3
:101D1000BAF1020F01D100BF6AE0B1F804A0BAF134
:101D2000000F01D1012700E00227DFF814A3DAF841
:101D300000A01AF4000F09D0DFF804A3DAF800A01D
:101D40002AF4000ADFF8F8B2CBF800A0DFF8F0A21E
:101D50000AF17C0ADAF800A0CAF38818DFF8E0A2DA
:101D60000AF17C0ADAF800A0CAF30279DFF8D0A2FF
:101D7000AAF1040ADAF800A00AF03F0CDFF8C4A2C6
:101D8000BAFBFCFA0AFB08FABAFBF9F6B1F806A0AE
:101D9000BAF5007F0ED14FEA162A0AEB8A0A4FEAFB
:101DA0004A0AD1F808B0BAFBFBFA0AF1050A1FFA91
:101DB0008AF20FE04FEA471AB6FBFAFA0AEB8A0AF0
:101DC0004FEA4A0AD1F808B0BAFBFBFA0AF1050A51
:101DD0001FFA8AF24FF00A0AB2FBFAF202F001048B
:101DE000A2EB040ACAF34F034FF6FF7A0AEA04246F
:101DF000022B01DBFF2B01DD02230024B1F806A03A
:101E00004AEA040A4AEA030AA0F820A0B1F804A0AA
:101E1000B1F80CB04AEA0B0AB1F802B04AEA0B0A70
:101E2000B1F800B04AEA0B0A4AF4006A4AEA05052A
:101E30008583BDE8F08F0021018041808180C180D1
:101E4000018141818181C181072101827047002187
:101E5000018041808180C1800221816000218181D7
:101E6000704721B1028842F04002028004E00288FB
:101E70004FF6BF731A400280704721B1828B42F443
:101E80008062828304E0828B4FF6FF331A408283A4
:101E9000704702884FF2FF731A40028002880A439B
:101EA00002807047B1F5804F04D1028842F480422D
:101EB000028004E002884BF6FF731A4002807047EC
:101EC000A1F57E42FF3A04D0028842F4807202807B
:101ED00004E002884FF6FF631A400280704721B188
:101EE000828842F00402828004E082884FF6FB730D
:101EF0001A408280704721B1828842F010028280AD
:101F000004E082884FF6EF731A408280704730B544
:101F100000220023848B4FF240052C40848302244E
:101F20000484828B0C88B4F5007F01D00C8814B92E
:101F30004FF4807308E00C88B4F5407F03D00C8820
:101F4000B4F5807F00D100238C888D892C434D8887
:101F50002C431C4344F400642243828330BD014679
:101F6000888970478181704721B1028842F400520C
:101F7000028004E002884DF6FF731A400280704729
:101F8000018841F4805101807047024600200129F8
:101F900001D0108B00E0908A70470146088A704794
:101FA0001AB183880B43838002E083888B4383804C
:101FB000704730B5002400230C110125A540ABB2B9
:101FC0001AB185881D43858002E085889D43858000
:101FD00030BD0246002013890B4201D0012000E0F1
:101FE00000207047CA4302817047F0B502460020C6
:101FF00000240023002501F00F070126BE40B4B2E3
:102000000B1101269E40B3B2968806EA0305168995
:10201000264202D00DB1012000E00020F0BD10B535
:10202000002201F00F040123A3409AB2D34303819D
:1020300010BD00000030014000380040003C00406E
:102040000838024000127A0010B501218803FFF71A
:102050006FFD00214FF48040FFF76AFD10BD1A4963
:102060000860704730B500228B071C0F0F2303FA5E
:1020700004F2154B08338C1053F824309343124C60
:1020800008348D1044F8253023468C1053F8243042
:102090008C07240F00FA04F423430B4C08348D10F2
:1020A00044F8253030BD0949086070470849086088
:1020B0007047002004492031096811F4807F01D065
:1020C000012000E00020704700380140DC0027427A
:1020D0000004274210B50446FE48844208D101217D
:1020E0000846FFF725FD00210120FFF721FD9DE0B7
:1020F000B4F1804F08D101210846FFF708FD002107
:102100000120FFF704FD91E0F348844208D101214A
:102110000220FFF7FCFC00210220FFF7F8FC85E01D
:10212000EE48844208D101210420FFF7F0FC002191
:102130000420FFF7ECFC79E0E948844208D1012152
:102140000820FFF7E4FC00210820FFF7E0FC6DE029
:10215000E448844208D101211020FFF7D8FC002177
:102160001020FFF7D4FC61E0DF48844208D1012150
:102170002020FFF7CCFC00212020FFF7C8FC55E011
:10218000DA48844208D101210220FFF7D1FC002166
:102190000220FFF7CDFC49E0D548844209D1012156
:1021A0000804FFF7C5FC00214FF48030FFF7C0FCA6
:1021B0003CE0D048844209D101214804FFF7B8FC33
:1021C00000214FF40030FFF7B3FC2FE0CA488442EF
:1021D00009D101218804FFF7ABFC00214FF48020D6
:1021E000FFF7A6FC22E0C548844208D10121402027
:1021F000FFF78DFC00214020FFF789FC16E0C04866
:10220000844208D101218020FFF781FC0021802039
:10221000FFF77DFC0AE0BB48844207D1012180150D
:10222000FFF775FC0021A015FFF771FC10BD00221F
:102230000288A84B98420ED0AC4B98420BD0B0F11C
:10224000804F08D0A44B984205D0A44B984202D0AE
:10225000A34B984204D14FF68F731A404B881A4310
:10226000A04B984207D0A04B984204D04FF6FF43B2
:102270001A400B891A4302804B68C3620B8803859E
:10228000944B984202D0994B984201D18B7A0386A5
:102290000123838270474FF0FF31416000210180AC
:1022A00001814180817270470185828270470A46B0
:1022B000002101884FF68F73194011430180704748
:1022C00041627047C16270470146486A70470146E3
:1022D000088D704721B1028842F00202028004E0BA
:1022E00002884FF6FD731A400280704721B10288C0
:1022F00042F00402028004E002884FF6FB731A40A9
:102300000280704721B1028842F08002028004E01E
:1023100002884FF67F731A400280704702884FF69A
:10232000F7731A40028002880A43028070470288CD
:102330004FF6FF431A40028002880A43028070472A
:1023400021B1028842F00102028004E002884FF6C7
:10235000FE731A400280704770B5002400220023EB
:10236000058C4FF6FE7635400584028C8388048BFD
:102370004FF68F752C40B51E2C400D882C43751ED2
:102380002A408D892A434D882A43524DA84202D0C3
:10239000564DA84213D14FF6F7752A40CD892A43EE
:1023A0004FF6FB752A408D882A434FF6FF652B4078
:1023B0004FF6FF552B400D8A2B434D8A2B438380CC
:1023C00004838D684563028470BD70B500240022CB
:1023D0000023058C4FF6EF7635400584028C838808
:1023E000048B48F6FF752C404FF6FF452C400D88B6
:1023F0004FF6FF7606EA05252C434FF6DF752A4097
:102400008D8906EA05152A434D8806EA05152A43F3
:10241000304DA84202D0354DA8421DD14FF67F75F0
:102420002A40CD894FF6FF7606EA05152A434FF676
:10243000BF752A408D8806EA05152A434FF6FF35F9
:102440002B404FF2FF752B400D8A06EA85052B4382
:102450004D8A06EA85052B43838004838D68856356
:10246000028470BD70B5002400220023058C4FF655
:10247000FF6635400584028C8388848B4FF68F7508
:102480002C404FF6FC752C400D882C434FF6FF5521
:102490002A408D894FF6FF7606EA05252A434D88A6
:1024A00006EA05252A430B4DA84202D00F4DA8424B
:1024B00038D14FF2FF752A40CD894FF6FF7606EAF4
:1024C00005252A434FF6FF352A408D8806EA052563
:1024D0002A4319E0000001400004004000080040C9
:1024E000000C0040001000400014004000040140B7
:1024F00000400140004401400048014000180040F5
:10250000001C0040002000404EF6FF752B404DF6A9
:10251000FF752B400D8A06EA05152B434D8A06EA06
:1025200005152B43838084838D68C563028470BD49
:1025300070B5002200230024058C4EF6FF7635404E
:102540000584038C8488828B48F6FF752A404FF6F9
:10255000FF452A400D884FF6FF7606EA05252A43F7
:102560004DF6FF752B408D8906EA05352B434D88C6
:1025700006EA05352B43FE4DA84202D0FD4DA84288
:1025800008D14BF6FF752C400D8A4FF6FF7606EA10
:1025900085152C43848082838D680564038470BD17
:1025A000002101804180818081608181C18101821F
:1025B0004182704770B50346002000241846183049
:1025C00001258D40ACB21D8CA5431D8409B108299D
:1025D0000AD100EB610005684FF68F763540056043
:1025E0000568154305600FE00D1FC5F34E0528442F
:1025F000056848F6FF763540056005684FF6FF76BA
:1026000006EA02263543056070BD41637047816369
:102610007047C1637047016470470A460021018B0F
:102620004FF68F7319401143018370470A4600210A
:10263000018B48F6FF7319404FF6FF7303EA02233C
:102640001943018370470A460021818B4FF68F732F
:1026500019401143818370470A460021818B48F657
:10266000FF7319404FF6FF7303EA02231943818376
:1026700070470A460021018B4FF6F773194011434A
:10268000018370470A460021018B4FF2FF73194006
:102690004FF6FF7303EA02231943018370470A468A
:1026A0000021818B4FF6F7731940114381837047E6
:1026B0000A460021818B4FF2FF7319404FF6FF73DA
:1026C00003EA02231943818370470A460021018BE4
:1026D0004FF6FB7319401143018370470A460021EE
:1026E000018B4FF6FF3319404FF6FF7303EA0223C5
:1026F0001943018370470A460021818B4FF6FB7313
:1027000019401143818370470A460021818B4FF69F
:10271000FF3319404FF6FF7303EA02231943818305
:1027200070470A460021018B4FF67F731940114311
:10273000018370470A460021018BC1F30E014FF659
:10274000FF7303EA02231943018370470A460021FD
:10275000818B4FF67F7319401143818370470A467E
:102760000021818BC1F30E014FF6FF7303EA0223B0
:102770001943818370470A460021018C4FF6FD738F
:1027800019401143018470470A460021018C4FF61D
:10279000F77319401143018470470A460021018CE8
:1027A0004FF6DF7319404FF6FF7303EA0213194324
:1027B000018470470A460021018C4FF67F7319404F
:1027C0004FF6FF7303EA02131943018470470A4668
:1027D0000021018C4FF6FF5319404FF6FF7303EAB7
:1027E00002231943018470470A460021018C4FF2ED
:1027F000FF7319404FF6FF7303EA02231943018464
:1028000070470A460021018C4DF6FF7319404FF6C0
:10281000FF7303EA023319430184704730B5002384
:1028200001248C40A3B2048C9C430484048C02FADF
:1028300001F5ADB22C43048430BD30B5002304242F
:102840008C40A3B2048C9C430484048C02FA01F5EE
:10285000ADB22C43048430BD828B4FF2FF331A405B
:102860008283828B4FF6FF7303EA01231A4382832C
:102870007047F0B50C461546002100220026078C53
:102880004EF6FF7C07EA0C070784818B028C4FF61B
:10289000FF7707EA043640F6FF4739404FF6FF77E7
:1028A00007EA052739434FF6FF7707EA033739432D
:1028B00045F6FF773A4046F480573A4381830284D5
:1028C000F0BD828B4FF6F3731A408283828B0A43EA
:1028D00082837047F0B50C46154600210022002681
:1028E000078C4FF6FF6C07EA0C070784818B028C7C
:1028F0004FF6FF7707EA04264FF60C7739404FF67C
:10290000FF7707EA03172F4339434FF2FF573A4047
:1029100046F480773A4381830284F0BD028B4FF204
:10292000FF331A400283028B4FF6FF7303EA012341
:102930001A4302837047F0B50C4615460021002269
:102940000026078C4FF6EF7C07EA0C070784018B03
:10295000028C4FF6FF7707EA041640F6FF4739402E
:102960004FF6FF7707EA033739434FF6FF7703E067
:10297000000001400004014007EA052739434FF6F3
:102980005F773A4046F010073A4301830284F0BD76
:10299000028B4FF6F3731A400283028B0A430283C1
:1029A0007047F0B50C46154600210022068C4FF604
:1029B000FE773E400684018B028C4FF60C76314048
:1029C0007E1C06EA03162E4331434FF6F57632405D
:1029D00044F00106324301830284F0BD70B5054620
:1029E0000C46208850B92389A28861882846FFF7C1
:1029F000D8FFE1882846FFF7CBFF25E02088042890
:102A00000AD12389A28861882846FFF794FFE188CC
:102A10002846FFF783FF17E0208808280AD123897A
:102A2000A28861882846FFF755FFE1882846FFF70E
:102A300048FF09E02389A28861882846FFF719FF2B
:102A4000E1882846FFF708FF70BD00210180418022
:102A5000012181800021C180018170472DE9F04171
:102A600005460C4600260127608808B9022600E0CA
:102A70000026A088012801D1022700E00127208834
:102A8000A0B92389A28861882846FFF78AFFE188D8
:102A90002846FFF77DFF23893A4631462846FFF74F
:102AA0004AFFE1882846FFF739FF13E02389A2880F
:102AB00061882846FFF73FFFE1882846FFF72EFF91
:102AC00023893A4631462846FFF76BFFE1882846BE
:102AD000FFF75EFFBDE8F0810146486B7047014695
:102AE000886B70470146C86B70470146086C704799
:102AF0000A884B881A438B881A43CB881A430B8960
:102B00001A434B891A438B891A43A0F84420704713
:102B10000021018041808180C180018141818181CA
:102B2000704731B1B0F8442042F40042A0F844208C
:102B300005E0B0F84420C2F30E02A0F8442070472C
:102B400021B1828842F00402828004E082884FF63C
:102B5000FB731A408280704721B1828842F00102E3
:102B6000828004E082884FF6FE731A4082807047AC
:102B70001AB183890B43838102E083898B4383816C
:102B800070478182704702460020138A0B4201D0B1
:102B9000012000E000207047CA430282704730B530
:102BA0000246002000230024158A05EA01039589C6
:102BB00005EA010413B10CB1012000E0002030BD92
:102BC000CA430282704741EA0203A0F848307047C6
:102BD0001AB183890B43838102E083898B4383810C
:102BE000704721B1828842F00802828004E0828826
:102BF0004FF6F7731A408280704701894FF6F872DA
:102C00001140018170470A46002101894FF68F73F8
:102C1000194011430181704730B504460D462946DD
:102C20002046FFF7F0FF208940F00700208130BDEB
:102C30002DE9F04104460D4616461F46602D06D18B
:102C40003B46012231462046FFF775FE05E03B4634
:102C5000012231462046FFF7A4FE29462046FFF711
:102C6000D2FF208940F007002081BDE8F08130B517
:102C70000C4600210189C9B24FF6FF7505EA03250C
:102C8000154325432943018130BD2DE9F041054617
:102C90000E4617469846002443463A463146284693
:102CA000FFF7E5FF2C894FF6F870044044F0070465
:102CB0004FF68F70044044F070042C81BDE8F08121
:102CC000F0B504460D4616461F463B463246294699
:102CD0002046FFF7CCFF208940F480402081F0BDE2
:102CE00082884FF68F731A40828082880A438280DE
:102CF000704702894FF6F8731A40028102890A432D
:102D00000281704702894FF67F731A40028102895F
:102D10000A4302817047F0B50C4615461E46002155
:102D2000002200230189028B038C4FF6F87739408B
:102D300021434FF6FC473A4040F201173A434FF621
:102D4000DD773B404FF6FF7707EA06172F433B43FB
:102D5000018102830384F0BD21B1828842F08002A8
:102D6000828004E082884FF67F731A408280704729
:102D7000A0F850107047000000BFFEE710B50446F1
:102D80004FF48050E849086007E0E7490868411EB1
:102D9000E54A116008B9FFF7EFFF0221E348FFF7AA
:102DA00018F90028F1D02146E048FFF7DBF84FF48E
:102DB0008050DD49086007E0DB490868411EDA4AB7
:102DC000116008B9FFF7D8FF0121D848FFF701F9D2
:102DD0000028F1D0D548FFF7C2F8C0B210BD70B5D9
:102DE00005460E461446012C01DD46F0400608213A
:102DF000CF48FEF729FC3046FFF7C0FF05E02878F2
:102E0000FFF7BCFF601E84B26D1C012CF7DA0821AD
:102E1000C748FEF717FC70BD00B587B00121080355
:102E2000FEF71EFE01210846FEF7D6FD0121102007
:102E3000FEF7D2FD01211020FEF7CEFD012110206A
:102E4000FEF7CAFD05221146BA48FEF70AFC052224
:102E50000621B848FEF705FC05220721B548FEF714
:102E600000FC02208DF8180000208DF81A000220C6
:102E70008DF81B008DF819002020059005A9AD489C
:102E8000FEF764FB8020059005A9AA48FEF75EFBCB
:102E90004020059005A9A748FEF758FBA348FEF778
:102EA000D9FE0020ADF80000ADF80400ADF8060032
:102EB000ADF808004FF40070ADF80A000820ADF836
:102EC0000C000020ADF80E000720ADF810004FF404
:102ED0008270ADF8020069469448FEF7E1FE0121D8
:102EE0009248FEF7BEFF0820059001208DF81800DB
:102EF00000208DF81A0002208DF8190005A98C48D1
:102F0000FEF724FB08218A48FEF79CFB0120059070
:102F100000208DF818008DF81A0002208DF8190095
:102F200000208DF81B0005A98148FEF70FFB022049
:102F3000059005A97E48FEF709FB07B000BD38B52E
:102F4000044600200090FFF767FF6078217808436F
:102F5000E178084321790843A178084300900122D1
:102F600020216846FFF73BFF38BD70B506460C468A
:102F70001546012D02DD44F0C00401E044F0800458
:102F800008216B48FEF760FB2046FFF7F7FE06E0DE
:102F90000020FFF7F3FE3070681E85B2761C002D0E
:102FA000F6DC08216248FEF74DFB70BD38B50446DB
:102FB00000200090012221216846FFF7D6FF9DF8EE
:102FC000000000F0D0000090207861780843A178DC
:102FD00008439DF800100843009001222121684613
:102FE000FFF7FDFE38BD38B50446002000900122F1
:102FF00038216846FFF7B9FF207861780843A17847
:1030000008430090012238216846FFF7E8FE38BDEA
:1030100038B50446012220216846FFF7A6FF9DF837
:10302000000000F0BF0000909DF8000020430090D9
:10303000012220216846FFF7D2FE38BD38B504468C
:10304000012220216846FFF790FF9DF8000000F064
:103050007F0000909DF80000204300900122202175
:103060006846FFF7BCFE38BD38B504460122202172
:103070006846FFF77AFF9DF8000000F0DF0000903F
:103080009DF8000020430090012220216846FFF7B0
:10309000A6FE38BD08B5012221216846FFF765FF6D
:1030A0009DF8000040F04000009001222121684678
:1030B000FFF795FE08BD3EB50546002401222021FC
:1030C0006846FFF752FF0622292101A8FFF74DFFAE
:1030D0009DF8000010F0200002D0202820D10FE041
:1030E00000240AE001A911F8140040B200EBC0006E
:1030F000400028602D1D601CC4B2032CF2DB10E0E0
:1031000000240AE001A911F8140040B200EBC0004D
:10311000C00028602D1D601CC4B2032CF2DB00E04F
:1031200000BF00BF3EBD00007C0000200030014019
:1031300000100240000002402DE9FE4F804681EA67
:103140000300C00F0C46009021F0004123F0004521
:10315000B8EB0200A94105D24046214690461C46E4
:103160000B46024623F00040104304D1404621465E
:1031700003B0BDE8F08F270DC7F30A00C3F30A516F
:103180000290401A0190402866DAC3F3130040F41D
:10319000801B0098924620B10023D2EB030A63EB18
:1031A0000B0B01985946C0F14002504600F00CF953
:1031B00006460D4650465946019A00F014F910EBA8
:1031C00008006141002487EA115284EAE7731A4338
:1031D0003BD0009A3AB3019A012A4FEA075210DC19
:1031E000001B61EB02014FF0004202EA0752CDE9F9
:1031F0000042001C41F5801132462B4600F048F990
:10320000B6E7001B61EB0201001C41F580130018BA
:103210005B412018A2F5001747EB030140EAD57087
:10322000B6196D4111E06D084FEA360645EAC075E2
:103230004FEA0752001B61EB0201001C41F58011AF
:1032400049084FEA30000019514132462B4603B07D
:10325000BDE8F04F00F00FB90098012240000023B4
:10326000D0EB020263EBE073009821464FEAE07472
:10327000B8EB000061EB0401E9E783F000435BE792
:1032800081F0004158E72DE9FE4F81EA030404F084
:10329000004421F0004100944FF0000B23F0004364
:1032A00050EA010402D052EA030404D1002001468E
:1032B00003B0BDE8F08FC3F30A54C1F30A552C44A0
:1032C000A4F2F3340194A0FB0254C1F3130141F4BE
:1032D0008011C3F3130343F4801301FB024400FB8A
:1032E000034E840A970A44EA815447EA8357A4FBB1
:1032F000076802958D0A05FB07854FEA932C04FBAE
:103300000C542705029D4FEA065847EA1637B5EBDD
:1033100008056EEB070C870E920E47EA811742EA0A
:103320008312A7FB0201B6EB0B0164EB00042B0D2B
:1033300043EA0C335E1844EB1C50DA465146E7FB77
:103340000201C5F313044FEA0B3343EA14534FEA67
:103350000432019C43EA0603A4F10C040294009C8D
:10336000CDE900B400F094F8A2E700F0004230F09C
:1033700000400AD0C10D01F56071C0F3160042EAA9
:103380000151C208400711437047002001467047B1
:1033900001F0004330B421F0004150EA010206D0B0
:1033A0000A0DA2F56072C1F31301002A02DC30BCE1
:1033B00000207047440F44EAC104C100E01830BC4B
:1033C00000EBC25000F021B8202A04DB203A00FABA
:1033D00002F1002070479140C2F1200320FA03F36C
:1033E000194390407047202A06DBCB17203A41FA58
:1033F00002F043EAE07306E041FA02F3D040C2F182
:10340000200291400843194670470029A8BF704721
:10341000401C490008BF20F00100704710B4B0FA0A
:1034200080FC00FA0CF050EA010404BF10BC7047A5
:1034300049B1CCF1200421FA04F411FA0CF118BFBF
:10344000012121430843A3EB0C01CB1D0106000A17
:10345000002BBEBF002010BC704700EBC3501044CF
:103460000029A4BF10BC7047401C490008BF20F0D1
:10347000010010BC704710B5002B08DA401C41F168
:10348000000192185B411A4301D120F0010010BDE8
:103490002DE9F04D92469B4611B1B1FA81F202E05E
:1034A000B0FA80F220329046FFF78EFF04460F46B6
:1034B00040EA0A0041EA0B0153465A46084303D149
:1034C00020463946BDE8F08D114653EA010015D07B
:1034D000C8F14002504600F03BF905460E46504602
:1034E00059464246FFF770FF084301D0012000E033
:1034F0000020054346EAE0762C4337430A984FEA1A
:103500004453A0EB08004FEAD4240A304FF00002E5
:1035100044EA47544FEAD72502D500200146D1E7B7
:10352000010510196941DDE9084500196941BDE847
:10353000F04DA0E72DE9F04D81EA030404F0004BC3
:1035400021F0004514464FF0000A23F0004150EAF4
:10355000050220D054EA01021DD0C5F30A570246E5
:10356000C5F31303C1F31300C1F30A5640F48015E9
:1035700043F48013A7EB0608101BD64608F2FD386B
:1035800073EB050002D308F1010801E092185B41DA
:10359000B8F1000F03DA00200146BDE8F08D0020ED
:1035A0004FF48011064684460EE0171B73EB0507A7
:1035B00005D3121B63EB050306434CEA010C4908D3
:1035C0004FEA300092185B4150EA0107EDD152EA10
:1035D000030012D082EA040083EA0501084303D104
:1035E00000224FF0004308E0101BAB4102D2012241
:1035F000002302E06FF0010253101AEB06004CEBBF
:10360000085110EB0A0041EB0B01BDE8F04DFFF74C
:1036100032BF70B521F0004303430CD0C1F30A550B
:103620000024D5EB040564EB0403D617AD1AB341AF
:1036300002DB0020014670BD201841EB025170BD35
:103640002DE9F04D00231A461B1A8A4103DB0020A6
:103650000146BDE8F08DC1F30A52C1F3130141F4F4
:1036600080154FF0000BD10702D100186D41521E9A
:103670000027044640F2FF11384601EB620A3E463D
:103680008046024600204FF4801100F061F8C21914
:103690007141BB1846EB0100B4EB030C75EB000C59
:1036A00004D3E41A65EB000517460E46241908F109
:1036B00001006D4180463428E3DDF91946EB060030
:1036C000091BA84103D24FF0FF32134601E000224C
:1036D00013461BEB070046EB0A51BDE8F04DFFF720
:1036E000CABE0EB5C10F80EAE0700844CA070021C7
:1036F00040F233438DE80E000A460B46FFF7C8FE42
:1037000003B000BD30B5002904DB4FF00044404257
:1037100064EB0101002B04DB4FF00044524264EBE8
:103720000303994208BF904230BD0000064C074D8C
:1037300006E0E06840F0010394E807009847103481
:10374000AC42F6D3FCF724FDF85F000828600008BF
:10375000202A04DB203A21FA02F00021704721FAE6
:1037600002F3D040C2F1200291400843194670474D
:103770000000000003B401984100009850EAC12005
:1037800018BF04204A0D18BF40F0010040F2FF723C
:10379000B2EB515F08BF40F00200012808BF0520CE
:1037A00002B070470000000070B59F482DED020B7D
:1037B0002DED068B079D25F00044A0421DDC9B48A3
:1037C000844202DC0FD1069868B19DED060B53ECE4
:1037D000102B51EC100BFFF7AFFCBDEC068B02B0C9
:1037E00041EC100B70BD002DCCBF9FED910B9FEDF8
:1037F000920BBDEC068B02B070BD9148A04215DD66
:103800009048A042D8BF4FF0FF3440DD9DED060B3D
:1038100051EC100BFFF7AEFF042808BF01F02CF9A4
:103820009DED060BBDEC068B02B070BD9DED060B49
:1038300051EC100B01F0A2F941EC100B82488DED18
:10384000060B9FED838BA0423CDD8348A0421FDD29
:1038500000249FED839B51EC100B53EC192BFFF7C9
:103860006BFC9DED060B41EC1A0B53EC192B51EC44
:10387000100BFFF708FD53EC182BFFF7FEFC53EC81
:103880001A2BFFF757FE41EC100B8DED060B49E0AC
:10389000012453EC182B51EC100BFFF74DFC9DED60
:1038A000060B41EC190B53EC182B51EC100BFFF7E6
:1038B000E4FC53EC192BFFF73DFE41EC100B8DEDB2
:1038C000060B2FE06848A0421FDD02249FED689B95
:1038D00051EC100B53EC192BFFF7D5FC53EC182BC4
:1038E000FFF72AFC9DED060B41EC180B53EC192B4E
:1038F00051EC100BFFF7C1FC53EC182BFFF71AFE2D
:1039000041EC100B8DED060B0CE053EC102B032457
:103910009FED590B51EC100BFFF70CFE41EC100B17
:103920008DED060B9DED060B53EC102B51EC100B9F
:10393000FFF7A9FC41EC180B53EC182BFFF7A3FC85
:1039400041EC190B4E480621B0EE490AF0EE690A27
:10395000784401F012F853EC182B51EC100BFFF7E0
:1039600092FC41EC180B4748B0EE490AF0EE690AA8
:103970000521784401F001F853EC192B51EC100BA0
:10398000FFF781FC41EC100B51EC180B53EC102BA2
:10399000002C0EDAFFF7D0FB9DED061B53EC112B2C
:1039A000FFF771FC9DED061B53EC112BFFF768FC34
:1039B00035E0FFF7C1FB9DED061B53EC112BFFF724
:1039C00062FC41EC100B3048784400EBC40090EDF1
:1039D000001B51EC100B53EC112BFFF74EFC9DED2F
:1039E000061B53EC112BFFF748FC41EC110B274849
:1039F000784400EBC40090ED000B51EC110B53EC3C
:103A0000102BFFF73DFC41EC100B002DA2BFBDECCD
:103A1000068B02B070BD51EC100B81F0004141ECFF
:103A2000100BFFE600000000000010440000F07FD3
:103A3000182D4454FB21F93F182D4454FB21F9BFA4
:103A40000000DC3F0000203E0000F33F00000000CB
:103A5000000000000000F03F0000E63F0000000012
:103A60000000000000000040008003400000000053
:103A7000000000000000F83F000000000000F0BF60
:103A80006C26000022260000AC2500006425000002
:103A900070B52DED040B2DED028B82B0DDE9053400
:103AA000DDF81CC062422CF00041224341EAD2758D
:103AB0005F4A049E23F00040954205D87542354385
:103AC00040EAD575954210D99DED060B53EC102BAD
:103AD0009DED040B51EC100BFFF72EFB41EC100B8E
:103AE00002B0BDEC028B04B070BDACF14055A5F145
:103AF0007F6525430BD0022505EAAC7545EAD375F1
:103B000006439FED4D8B9FED4E2B07D010E09DEDB2
:103B1000040B51EC100B00F0F8FF39E0002D14BF3E
:103B2000012D9DED040BDBD0022D34D0032D37D0B9
:103B30000C439FED451B9FED460B0AD0914218D1D7
:103B4000904209D121F0804120F0804007910590FA
:103B50000FE0002BC4DA10E03F4C7C44002D08BF7E
:103B600094ED000BBCD0012D0CD0022D13D0032DF1
:103B700016D0904219D1002BB2DAB0EE410AF0EE25
:103B8000610AADE794ED000B51EC100B81F00041A0
:103B900041EC100BA4E7B0EE480AF0EE680A9FE78C
:103BA000B0EE420AF0EE620A9AE7401A00153C288D
:103BB00017DCBCF1000FBCBF10F13C0F9FED280BD0
:103BC0000FDB9DED060B53EC102B9DED040B51EC20
:103BD000100BFFF7AFFC00F0D1FF00F096FF41ECB7
:103BE000100B002D8DED000B3FF47AAF012D10D09E
:103BF000022D9FED1D0B53EC102B9DED000B51EC96
:103C0000100B0ED0FFF739FB53EC182BFFF735FBE9
:103C1000BEE710EE900A80F0004001909DED000B91
:103C20005EE7FFF72AFB53EC182BFFF729FBAFE702
:103C30000000F07F00000000182D4454FB210940D3
:103C4000182D4454FB2109C0182D4454FB21F9BF01
:103C5000182D4454FB21F93F92240000000000007D
:103C60000000000000000000075C143326A6A13C01
:103C70002DE9F04D2DED040B2DED0E8B94B0DDE90B
:103C80002350259CDDF888A025F0004624F000484C
:103C9000BAF1000F14BF0121002101EB4502FE49DA
:103CA00053184A1093422AD3002814BF012300233B
:103CB00003EB44030B44F9498B4220D358EA00013B
:103CC0009FEDF78B6FD0DFF8E0B35D4503D1BAF11C
:103CD000000F05D181E0BAF1000F08BF002100D02C
:103CE000012101EB450111F5001F08D8002814BF80
:103CF0000121002101EB440111F5001F0AD99DEDBE
:103D0000240B53EC102B9DED220B51EC100BFFF705
:103D100013FA40E00027002DBCBFE449884521DAB2
:103D2000E3498845A8BF02271CDAC3451ADCE149EC
:103D300001EB2851142908DDC1F1340220FA02F107
:103D400001FA02F282420DD108E058B9C1F1140221
:103D500028FA02F101FA02F2424503D101F0010111
:103D6000C1F1020756EA0A019FEDD3AB1CD1002C2A
:103D70001ADA002D18BF022F01D0012F07D0022020
:103D800000F09AFE53EC1A2B51EC180B05E10220BF
:103D900000F092FE7DE041EC100B14B0BDEC0E8BF8
:103DA00004B0BDE8F08D18E09FEDC5BB9FEDC69B4C
:103DB000002877D1BD48804522D105F1804010F51B
:103DC000801008BFBAF1000F07D0B3450ADC002C01
:103DD000A8BF9DED240BE0DA0DE0B0EE480AF0EE4E
:103DE000680ADAE7002C06DA9DED240B51EC100B83
:103DF00081F00041CFE7B648784490ED000BCCE766
:103E0000D84553D1002C4EDA2EB1864240D1BAF1BA
:103E1000000F48D12CE0BAF1000F19D0022000F0B9
:103E20004BFE53EC192B51EC190BFFF72CFA41EC1C
:103E3000100B8DED020B9DED220B8DED000B10EEA6
:103E4000900A039961F31E0003909DED020BA4E715
:103E50008DED02BB9DED220B1BEE901A10EE900A29
:103E60008DED000B61F31E0003909DED020B94E7B6
:103E70008DED02AB9DED220B1AEE901A10EE900A1A
:103E80008DED000B61F31E0003909DED020B84E7A6
:103E900009DA9DED220B51EC180B53EC102BFFF7B8
:103EA00049FB78E71DE09DED220B76E7864218DAA4
:103EB000B4F1804F0DD0A4F10050B0F1FF5010D1FB
:103EC000002D0EDB9DED220B51EC100B01F0E8FDF7
:103ED00061E79DED220B53EC102B51EC100B00F021
:103EE000E1BC9DED220B51EC100B00F047FE41ECC4
:103EF000100BBAF1000F8DED120B34D19FED760B44
:103F0000DEB1A6F1E040B0F17F602CD1002D01DDE3
:103F1000002C0DDA002D01DD002C1FDB002D16DA40
:103F2000002C14DB012F08BF9FED6D0B3FF435AF64
:103F3000B0EE4B0AF0EE6B0A2FE7022F18BF002DF0
:103F40000CD0012F0AD1002DFFF627AF06E0002D7F
:103F5000B8BF002C07DA012F3FF41FAFB0EE4A0ABA
:103F6000F0EE6A0A19E7012000EBE570049038438F
:103F70000CD05D48002580457DDD5C495C48884566
:103F800013DDB0420CDB002C18DB30E0012000F028
:103F900093FD53EC1A2B51EC1A0BFFF7CBFAFAE610
:103FA000B34502DC002C09DC21E0864202DA002C59
:103FB0001DDA03E05E452DDD002C18DD022000F047
:103FC0007BFD53EC192B51EC190BFFF75CF941EC1D
:103FD000100B1BEE900A10EE901A8DED020B8DED7A
:103FE00000BB61F31E0003909DED020BD5E602209D
:103FF00000F062FD00F040FD10EE901A18EE900AFD
:104000008DED020B8DED008B61F31E0003909DED95
:10401000020BC2E69DED220B53EC182B51EC100B5A
:10402000FFF72BF941EC100B8DED0C0B9FED320BD4
:1040300053EC102B9DED0C0B51EC100BFFF723F9FB
:104040009FED2F1B53EC112BFFF71AF99DED0C1B65
:1040500053EC112BFFF717F99FED2B1B53EC112B92
:10406000FFF70EF99DED0C0B41EC1A0B53EC102BE6
:1040700051EC100B00E08AE0FFF705F953EC1A2B26
:10408000FFF701F99FED220B41EC1B0B53EC102BBA
:104090009DED0C0B40E00000FFFF1F00FFFF0F0035
:1040A000000000000000F03F0000F03F0000F07F43
:1040B0000000404301FCFFFF000000000000000082
:1040C000000000000000F07F000000000000007011
:1040D000F42100000000000000000000000000804B
:1040E000000000000000F0FF0000E0410000F0438D
:1040F000FFFFEF3F00000000000000000000D03F85
:10410000555555555555D53F000000000000E03F7E
:10411000000000604715F73F51EC100BFFF7B3F8B4
:1041200041EC1A0B9FEDFE0B51EC1B0B53EC102BCB
:10413000FFF7A9F841EC1B0B9FEDFB0B53EC102B89
:104140009DED0C0B51EC100BFFF79DF853EC1B2B66
:10415000FFF793F841EC1B0B51EC1A0B53EC1B2BA4
:10416000FEF7EAFF41EC100B53EC1A2B8DED080B18
:1041700008959DED080B51EC100BFFF77EF853EC02
:104180001B2BFFF77DF841EC100B00F0AFB90020BE
:10419000B6F5801F11DA9FEDE60B53EC102B9DED69
:1041A000120B51EC100BFFF76EF841EC100B6FF097
:1041B000340010EE906A8DED120BDF4900EB2650B3
:1041C000A0F2FF38C6F3130040F07F6646F0405679
:1041D0008842D8BF002409DDD8498142C8BF0124E4
:1041E00004DC002408F10108A6F58016D4487844C0
:1041F00000EBC40A13969AED000B53EC102B9DEDC7
:10420000120B51EC100BFFF738F89AED000B41EC54
:104210001B0B53EC102B9DED120B51EC100BFEF70A
:104220008BFF41EC100B51EC180B53EC102BFFF7EC
:1042300081F941EC1C0B51EC1B0B53EC1C2BFFF7D1
:1042400022F841EC1A0BBF488DED0AAB78440A9571
:1042500090ED000B4FF0005040EA660000EB844008
:104260008DED100B00F5002011909AED000B53EC32
:10427000102B9DED100B51EC100BFEF7FEFF9DED8A
:10428000121B53EC112BFEF7FBFF41EC100B53EC10
:10429000102B9DED0A0B51EC100BFEF7F4FF9DED7A
:1042A000100B41EC1D0B53EC102B9DED0A0B51EC48
:1042B000100BFEF7E8FF53EC1B2BFEF7E1FF53EC6E
:1042C0001D2BFEF7DAFF53EC1C2BFEF7DCFF41EC55
:1042D0001C0B53EC1A2B51EC1A0BFEF7D4FF41ECDC
:1042E0001B0B99480621B0EE4B0AF0EE6B0A78449E
:1042F00000F043FBB0EE40DAF0EE60DA53EC1B2B3B
:1043000051EC1B0BFEF7BFFF53EC1D2BFEF7BBFF61
:104310009DED0A0B41EC1B0B53EC1A2B51EC100BCF
:10432000FEF70AFF53EC1C2BFEF7ADFF53EC1B2BE3
:10433000FEF702FF9DED0A0B41EC1D0B53EC102B19
:1043400051EC100BFEF79FFF41EC1B0B9FED80EB38
:1043500053EC1E2BFEF7F0FE53EC1D2BFEF7ECFE8C
:1043600041EC100B53EC1E2B8DED100B10959DEDB9
:10437000100B51EC100BFEF780FF53EC1B2BFEF7DC
:104380007CFF53EC1D2BFEF77BFF9DED100B41ECEA
:104390001D0B53EC102B9DED0A0B51EC100BFEF78F
:1043A00072FF41EC1B0B53EC1A2B51EC1D0BFEF76B
:1043B0006AFF9DED100B41EC1A0B53EC102B51ECE6
:1043C0001C0BFEF760FF53EC1A2BFEF7B5FE41EC19
:1043D0001A0B51EC1B0B53EC1A2BFEF7ADFE41EC04
:1043E000100B53EC1B2B8DED0A0B0A959DED0A0B60
:1043F00051EC100BFEF741FF53EC1A2BFEF740FF78
:1044000041EC1A0B9FED540B53EC102B9DED0A0B56
:1044100051EC100BFEF737FF41EC1B0B9FED500BDF
:1044200051EC1A0B53EC102BFEF72DFF41EC1A0B3D
:104430009FED4D0B53EC102B9DED0A0B51EC100B27
:10444000FEF721FF53EC1A2BFEF776FE41EC100B22
:104450004748784400EBC40090ED001B51EC100B72
:1044600053EC112BFEF768FE41EC1A0B4046FFF7A8
:1044700038F941EC100B53EC1A2B8DED0C0B51EC71
:104480001B0BFEF759FE41EC100B3A48784400EB49
:10449000C40451EC100B94ED001B53EC112BFEF7F0
:1044A0004BFE9DED0C1B53EC112BFEF745FE41EC32
:1044B000100B8DED080B08959DED0C0B53EC102B9C
:1044C0009DED080B51EC100BFEF7D7FE94ED000BA1
:1044D00053EC102BFEF7D1FE53EC1B2BFEF7CDFE59
:1044E00053EC1A2BFEF7CCFE41EC100B0498791E0E
:1044F000B0EE48BAF0EE68BA084308BF9FED1E8BD5
:104500009DED241B53EC102B8DED001B00959DEDB4
:10451000240B51EC100BFEF7B6FE41EC1A0B2FE00A
:10452000FE822B654715F73F44DF5DF80BAE543E26
:1045300000000000000040438E9803007AB60B0094
:10454000DE1C0000A01D00000E1C0000000000008A
:104550000000000000000840000000E009C7EE3F36
:10456000FD033ADC09C7EE3FF5015B14E02F3EBEC8
:104570009A1A0000501A0000000000000000F0BF6E
:104580009DED000B53EC102B9DED240B51EC100B0B
:10459000FEF773FE9DED081B53EC112BFEF773FE27
:1045A00053EC1A2BFEF7C8FD9DED080B41EC1A0BDE
:1045B00053EC102B9DED000B51EC100BFEF763FE3E
:1045C00041EC100B51EC1A0B8DED0A0B53EC102B38
:1045D000FEF7B2FD41EC100BB54910EE904A10EE1B
:1045E000100A8DED020B8C4235DB611A084318D19D
:1045F0009DED0A0B53EC102B9DED020B51EC100BB3
:10460000FEF73BFE41EC1C0B9FEDAB0B51EC1A0B84
:1046100053EC102BFEF790FD53EC1C2BFFF772F8B8
:1046200033D2022000F048FA53EC192B51EC190B4D
:10463000FEF729FE41EC100B18EE900A10EE901ACE
:104640008DED020B8DED008B61F31E0003909DED4F
:10465000020BFFF7A2BB9A4A24F00041914214D307
:104660009849214408437FF4C2AC9DED0A0B53ECFA
:10467000102B9DED020B51EC100BFEF7FEFD53ECE1
:104680001A2BFFF73FF87FF6B2AC24F000408E49BA
:104690008E4A002601EB20519042D8BF9DED0A0BB7
:1046A0002DDD481C4FF4801121FA00F02044C0F3A6
:1046B0000A51874AA1F2FF317A4492ED000B854AF4
:1046C0008DED0C0BCA4020EA0202C0F3130040F447
:1046D0008010C1F1140120FA01F60D92002CB8BF30
:1046E00076429DED0C0B53EC102B9DED0A0B51EC1B
:1046F000100BFEF7C2FD41EC100B8DED0A0B53ECD5
:10470000102B51EC1A0BFEF717FD41EC100B8DED41
:104710000C0B9FED710B0C9553EC102B9DED0C0BBE
:1047200051EC100BFEF7AFFD41EC190B9FED6C0B3C
:1047300053EC102B9DED0C0B51EC100BFEF7A3FD71
:104740009DED0A0B41EC1C0B53EC102B9DED0C0B5B
:1047500051EC100BFEF791FD53EC1A2BFEF790FD78
:104760009FED611B53EC112BFEF78DFD53EC1C2BC1
:10477000FEF7E2FC41EC1A0B51EC190B53EC1A2B2F
:10478000FEF7DAFC41EC100B53EC192B8DED020B0C
:10479000FEF773FD53EC1A2BFEF772FD9DED020B35
:1047A00041EC190B53EC102B51EC100BFEF76BFD89
:1047B00041EC100B4E488DED0C0B0521784400F0B8
:1047C000DCF89DED0C1B51EC100B53EC112BFEF79C
:1047D0005AFD9DED021B53EC112BFEF751FD41ECF0
:1047E000100B53EC192B8DED080B9DED020B51ECCA
:1047F000100BFEF748FD53EC192BFEF79DFC9FEDC7
:104800003E0B41EC1A0B53EC102B9DED080B51ECB9
:10481000100BFEF732FD9DED080B41EC190B53EC2C
:10482000102B9DED020B51EC100BFEF72CFD53EC01
:10483000192BFEF77FFE53EC1A2BFEF71EFD9DEDA4
:10484000021B53EC112BFEF718FD53EC1B2BFEF74C
:1048500017FD41EC100B10EE900A8DED020B00EBF2
:10486000065001150029C4BF03909DED020B15DC15
:10487000324651EC100BFEF7CCFEFEF77BFF04280E
:1048800008BF00F0F9F832469DED020B51EC100B19
:10489000FEF7BFFE41EC100B8DED020B53EC102B1D
:1048A00051EC180BFEF7EFFCFFF775BA00000000A3
:1048B0000000904000000000FE822B654715973CE9
:1048C00000CC904000346F3F01FCFFFF0000E03F50
:1048D00034190000FFFF0F0000000000432EE63FE8
:1048E000396CA80C615C20BEEF39FAFE422EE63F1F
:1048F00070170000000000000000000000000040F1
:1049000000B52DED048BB0EE408AF0EE608A83B0E6
:1049100051EC180BFEF794FE41EC190B19EE100A3E
:1049200019EE901A8DED009B002818BF0120084356
:1049300020F00040C0F17F6000F1E040C00F14D0D3
:1049400018EE101A18EE900A8DED008B002918BF92
:104950000121084320F00040C0F17F6000F1E040F9
:10496000C00F04BF012000F0A7F8B0EE490A03B061
:10497000F0EE690ABDEC048B00BD70B504462DED68
:10498000028B4D1E00EBC500B0EE408AF0EE608A4F
:1049900090ED000B35F0060017D053EC182B51ECBE
:1049A000100BFEF770FC41EC100B6D1E04EBC50004
:1049B00090ED001B51EC100B53EC112BFEF7BCFBE0
:1049C00041EC100B35F00600E7D1022D36D0042D56
:1049D0001CD0062D1CBFBDEC028B70BD53EC182BF8
:1049E00051EC100BFEF74FFC94ED0A1B53EC112B0E
:1049F000FEF7A2FB53EC182BFEF745FC94ED080BD9
:104A000053EC102BFEF798FB41EC100B53EC182BDA
:104A100051EC100BFEF737FC94ED060B53EC102B0A
:104A2000FEF78AFB53EC182BFEF72DFC94ED041BCC
:104A300053EC112BFEF780FB41EC100B53EC182BC1
:104A400051EC100BFEF71FFC94ED020B53EC102BF6
:104A5000FEF772FB53EC182BFEF715FC94ED000BE0
:104A600053EC102BFEF768FBBDEC028B41EC100BF6
:104A700070BD0000000000009FED050B10B553EC69
:104A8000102B51EC100BFEF7FEFB41EC100B10BD90
:104A9000000000000000001002E008C8121F08C15A
:104AA000002AFAD170477047002001E001C1121FAF
:104AB000002AFBD1704700000149086070470000E0
:104AC0009C00002010B5002A06DA22F00042D21D18
:104AD00022F00703102203E0D21C22F003030C2271
:104AE00013B19C188C4201D9012010BD024401442D
:104AF0008360C0E90021C91AD018884202D810602A
:104B00000246F9E70020106010BD10B541EC100B13
:104B1000FEF74AFE51EC100B10BD0000084800687B
:104B2000C0010BD507480068C00707D0054880388A
:104B30000068002802DA044901200870704700006C
:104B4000FCED00E0800E00E0920000204FF060429B
:104B5000D36F002BFCD0C36AD367D36F002BFCD07C
:104B6000C07840EA0120A2F87C0070474FF0604115
:104B7000CA6F002AFCD081F87C00704741EC100B12
:104B800082B010EE900A8DED000B20F000400190F5
:104B90009DED000B02B051EC100B704770B5040096
:104BA0000D4603D012B92078012801D0802070BDB5
:104BB000204600F0FFFA28B12946204600F040F8D0
:104BC000002070BD812070BD0246084810B500EB82
:104BD000810050F8040C002806D0114600F0C0FCFB
:104BE000BDE8104000F0ACBC10BD0000542800101F
:104BF00010B504468089002821D0608904EB80002C
:104C0000006908606078022805D10021204600F084
:104C1000A7FC00F095FC04F10C0000BFD0E85F1F7A
:104C2000491EC0E8521F002AF8D16089401C80B29A
:104C30006081E189884201D100206081042010BD9B
:104C400010B500F08DFCBDE8104000F079BC00000C
:104C5000EFF3058109B182207047DFF808C000DF5B
:104C6000704700000F5B0008EFF305820AB1822055
:104C70007047EFF31482144B12F0030206D0012A9E
:104C80001BD0022A11D0032A19D113E0EFF30882B6
:104C900082F309881A78D2070AD0022282F3148894
:104CA000BFF34F8FBFF36F8F09E01A78D20706D199
:104CB0000322F3E71A78D20701D0FF207047DFF80C
:104CC0000CC000DF70470000685E0008255B00082C
:104CD0002DE90E40EFF30582B2B102004FF08000E3
:104CE00000D021B10090DDE9011203B000BD1178C0
:104CF0000129F7D101A91046FFF77AFF042801D056
:104D00000020EFE71020EDE7DFF804C000DFECE75C
:104D10001D5C0008EFF3058109B182207047DFF8C0
:104D200008C000DF70470000575C0008EFF3058201
:104D30000AB182207047DFF808C000DF704700002A
:104D4000795C00082DE97040EFF3058272B10C46E2
:104D500000F0E0FD4FF0004530B1210C04D1058B8F
:104D6000C178A0B2FFF730FF284670BDDFF804C05D
:104D700000DF70BDAF5C0008EFF305830BB182204C
:104D80007047DFF808C000DF70470000D55C0008FE
:104D9000EFF305820AB100207047DFF808C000DF9A
:104DA00070470000295D0008DFF80CC000DFDFF865
:104DB0000CC000DFFEE70000995D0008B55D00084B
:104DC000DFF804C000DF7047ED5D0008094C4FF0CC
:104DD000FF3529462068FFF77BFF02460846102A68
:104DE000F7D1FFF7EDFF0028F3D0024608469047C1
:104DF000EFE70000200000204FEA000151E8000F1B
:104E000028B1036841E80032002AF7D17047BFF3A8
:104E10002F8F704710B568B161B10B3121F00302DB
:104E2000016844680B1A1B1B934205D208460968A7
:104E30000029F5D1002010BD3CB121180368C1E95B
:104E40000032016001F1080010BD4260083010BD61
:104E500070B50C46002812D04FF6FF71084D8842FD
:104E600004D22A680146104600F0A6FB2868447068
:104E7000044800F025F9BDE8704000F079BC70BD31
:104E8000840000209C0100200F4810B50D494268A5
:104E90000E480B680088934204D00A60CB88421EFB
:104EA0001A448A808A8882420AD100200860064813
:104EB00000F006F90146BDE81040034800F0AABB27
:104EC00010BD0000940000209C01002090000020F4
:104ED00070B5194DE86800282CD0A88A401EA88219
:104EE000002621E0A06838B161684160606810B1B7
:104EF000A16881606660A6600F482146183800F0FE
:104F000089FBA08AA8826078042804D10B49E08A32
:104F100009880844A08201206070E068E860E068C9
:104F200008B10561E6602661A88A002802D1EC6814
:104F3000002CD7D170BD0000B401002090000020EB
:104F400070B504000FD00D4DA17801262868827835
:104F500091420CD900F07AFB286846702046BDE8E3
:104F6000704000F005BC064800F0AAF8F7E766704C
:104F70002146BDE87040024800F04CBB8400002090
:104F80009C0100200321FFF763BF000010B5044619
:104F9000008B084320836278618B062A18D0052A8B
:104FA00019D1084217D001EA0002628388432083A6
:104FB000204600F085FB01206070628B08212046AE
:104FC00000F076FB2146BDE81040034800F022BB0C
:104FD00031EA0002EAD010BD9C01002002461548CB
:104FE00010B500EB810050F8044C002C21D0208B30
:104FF000104320836278618B062A17D0052A18D1C6
:10500000084216D001EA00026283884320832046CA
:1050100000F056FB01206070628B0821204600F0F2
:1050200047FB2046BDE81040FFF78ABF31EA000287
:10503000EBD010BD5428001003460E4810B504688C
:105040008C46208B42B133EA000101D0062009E0F2
:1050500098432083022010BD10EA030201D062832E
:10506000F6E70520C1B263836046FFF7F1FE012039
:1050700010BD000084000020814202D342688A42B1
:1050800001D80120704750E8002F0A6040E8001264
:10509000002AF8D10020704768B161B108390022B8
:1050A00002E00246006830B18842FAD12AB10068B5
:1050B0001060002070470120704700214160F8E730
:1050C0000146406842684A600B780022022B05D0F6
:1050D000012B03D0032B01D04260704743680BB112
:1050E0009960426082607047810700D0002070475D
:1050F00070B5044600201546207001226270A17030
:105100006060A060E0602061A082E0822083608314
:1051100084F82000608C18B90448FFF76DFEA06287
:1051200029462046BDE8704000F01CB8200200105F
:1051300008B1082901D2012070470144091F00224B
:1051400001600A6042601046704700000348002179
:10515000016003490968C180704700009400002085
:10516000605E000810B5428C920803D10F4A1268A5
:10517000C2F38D02836A03EB8202530700D5121F2C
:10518000403A4FF08073C2E90E1300234FEA030444
:1051900042F823405B1C0E2BFAD3C36913624262B0
:1051A000C162806A0249016010BD00005C5E0008B7
:1051B000A52E5AE2C1898089081A7047012202701F
:1051C00000224270827042600281428110398281E5
:1051D0008908C181704700002DE9F04104464078FC
:1051E00000270E464FF00108012855D004F10C05A8
:1051F00002282BD0032818D0A089E189884262D2E6
:10520000208904EB80000661D5E85F0F401CC5E8EB
:10521000510F0029F8D12089401C80B22081E189FA
:10522000884200D12781BDE8F0810846FFF7E4FD00
:105230000600F8D02046FFF743FF0546606800B936
:1052400067703146284600F02DFA31E02046FFF71E
:1052500037FF0646606800B967700021304600F0ED
:1052600021FA2189F06904EB81010861D5E85F0F1B
:10527000401CC5E8510F0029F8D12089401C80B29C
:105280002081E189884200D1278186F8018030465B
:1052900000F016FA314611E02046FFF711FF0546EF
:1052A000606800B9677032461021284600F000FAA5
:1052B00085F80180284600F003FA2946BDE8F04150
:1052C000034800F0A7B9BDE8F0410320FBF73EB961
:1052D0009C01002070B50446808915460026C8B39D
:1052E000608904EB8000006908606089401C80B21E
:1052F0006081E189884200D16681607802280AD005
:1053000014F10C04D4E85F0F401EC4E8510F0029CB
:10531000F8D1002070BD2046FFF7D2FE0546606838
:1053200000B966700021284600F0BCF92189E869BF
:1053300004EB810108612089401C80B22081E18951
:10534000884200D12681284600F0BAF92846FFF7A6
:10535000F7FDDEE7FFE73DB10A48626801682AB160
:10536000204600F057F907E0012070BD6160006839
:10537000C0E901640120607008212846FFF768FD3C
:10538000F2E7000084000020411C13D00B4A4FF6C6
:10539000FE7190420CD800EB4002C2EBC0120848EC
:1053A000036803EBC202521EB2FBF3F0884200D93D
:1053B000084670474FF6FF707047000000093D0037
:1053C0006C5E00082DE9F0410446408820B1234E70
:1053D000A1683268914202D0FF20BDE8F081401EF2
:1053E0000004000C608036D131686078DFF870808E
:1053F0008870626801270AB32046FFF761FE054600
:10540000002100F04FF9284600F05AF96780A560A6
:10541000A87860703168D8F804008A788078824271
:1054200001D3284615E00E4800F0F4F829460C4850
:1054300000F0F0F8306847706F7009E0D8F8042089
:105440009278824207D9064800F0E4F83068477045
:105450000020FFF775FD0020BFE70000840000205A
:105460009C01002070B5174E0D46044641883068F7
:1054700039B1A168814208D16088401C6080002059
:1054800070BDA06080786070F6E775B16278807852
:10549000824203D28870A06800F0E2F8606830B100
:1054A0002046316800F0B6F807E0012070BD306892
:1054B000606030680021C0E9011409212846FFF727
:1054C000C7FCF2E78400002070B51A48012100688B
:1054D000417000F0BBF8184D6C7816E005EBC40184
:1054E00048680278E2B1012A1FD000F015F9E87887
:1054F000641C844200D100240F48801CD0E84F1F58
:10550000491EC0E8421F002AF8D1A8780028E5D13A
:105510006C700A48FFF7D4FDBDE8704000F028B970
:10552000896889B2FFF732FDE1E78968FFF754FE29
:10553000DDE7000084000020D02700109C0100203F
:105540000548017811B101214170704703494FF0BE
:1055500080500860704700008C00002004ED00E0DF
:10556000F0B4144B9C1CDD784FEA030CD4E84F2FA9
:10557000AA4202D1BFF32F8F0EE0521CC4E8462F7F
:10558000002EF3D1DCE84F2F541CAC4200D1002494
:10559000CCE8464F002EF5D1DC78944205D903EBD8
:1055A000C202C2E90101F0BC7047F0BC0220FAF768
:1055B000CDBF0000D0270010154A10B5D368FBB14D
:1055C00013469B8A09E000BFD2F80CC0BCF1000F63
:1055D00016D0BCF81440624623448B42F4D3D468FE
:1055E000C460D0600261D0F80CC0BCF1000F01D0E3
:1055F000CCF81000591A8182908A401A908210BD0E
:105600000024C460D060C91A02619182848210BDF6
:10561000B401002010B502780023022A03D0012A29
:1056200001D0032A00D1012391F802C000E0104606
:10563000426812B194786445F9D24A6041601BB166
:1056400002B19160886010BD0020FBE703494A6801
:105650004260002282604860704700009C01002088
:1056600010B5836804462BB9607801280ED1084B29
:1056700003E09B6818780028FBD0204600F034F83F
:105680002146BDE810401846FFF7C4BF10BD00001A
:105690009C01002090F82010406A09B160307047EA
:1056A0002030704710B50C46FFF7F4FF046010BDC2
:1056B00070B50C461546FFF7EDFFC0E9004570BD1B
:1056C00010B5016900290ED0C268CA60C368002203
:1056D0003BB18B8A848A23448B82C3681961C26080
:1056E00000E08A82026110BD816839B142684A6077
:1056F0004168002901D0806888607047054906E04C
:105700004A68824202D140684860704711460029C9
:10571000F6D170479C01002010B5416881B1FFF7B8
:10572000CFFC0446FFF7CCFF012060700146204605
:10573000FFF7B8FF2146BDE810400348FFF76ABFF6
:105740004188491C418010BD9C010020064800682A
:10575000D0E90910814203D300680449884202D08D
:105760000120FAF7F3BE704784000020A52E5AE20C
:105770000749022248604270064A1278002A05D082
:1057800006C98A4202D0C078FFF7F0B9704700001E
:1057900084000020920000202DE9F04104460D46CF
:1057A0009046FFF7BBF9002006463849384B02E027
:1057B00041F82060401C1A889042F9D335483022C5
:1057C00001883548FFF77EF93448006880B240F020
:1057D0000042334801683348FFF774F93248082221
:1057E000018832480068FFF76DF9314FFF20314AD8
:1057F000F8707E8400213846FFF77AFC2E48042199
:10580000017046602D480170C66006618682786A24
:105810002030FAF7C7FC2A482B490760022078702D
:105820002848067046700978C170284801684FF012
:10583000E020416186610721016125480168254A10
:10584000114301600068224900F07F40C0431439D1
:10585000B0FA80F00968C0F10800C1F3022181426A
:1058600000DB481C1A49091F0B686FF080728240E8
:1058700063F317020A60FFF769FC42462946204697
:10588000BDE8F041002300F06DB80000542800107E
:10589000585E0008745E0008000000105C5E00089E
:1058A000785E0008200200109C5E000818000020AE
:1058B0006C010020490500089C010020B401002073
:1058C00084000020D0270010805E0008645E00087D
:1058D00020ED00E00000FFFF0B4810B5006801213B
:1058E0004170FFF7B3FEFFF7CFFA08490888401C64
:1058F0000880FFF7EDFA00F085FA0548FFF7E0FBB6
:10590000BDE81040FFF734BF840000209000002065
:105910009C010020002805D0810702D101780029D0
:1059200000D000207047000030B50D4C00232268E5
:1059300008E000BFB2F808C08C4505D813461268CD
:10594000A1EB0C01002AF5D189B20260018112B1EC
:105950001589691A11810BB1186030BD206030BD06
:10596000800000202DE9F041804616461F460D4676
:1059700011F0FF0F00D14D1C1648FFF73DFA04004F
:1059800026D0280AA6626084E9B242462046E76132
:10599000FFF7AEFB01251048104905E000EB85023A
:1059A00052F8042C22B16D1C0A889542F6D90025C4
:1059B00000EB850040F8044C0948E570007818B108
:1059C00001212046FFF7C2F82046FFF7B9FA284622
:1059D000BDE8F0810000001054280010585E000857
:1059E000920000202DE9F041244C234F244B2268E3
:1059F0000026D17808B1814218D103EB810056709E
:105A000040F8046C1F48916AFFF736FB20688662F5
:105A1000397811B10021FFF799F81B482168FFF789
:105A20002BFB00202660FFF78BFA1FE0174909883F
:105A300088421ED803EB800555F8044CCCB12046B3
:105A4000FFF752FE2046FFF73BFE45F8046C0D4879
:105A5000A16AFFF711FBA662387818B10021204631
:105A6000FFF774F821460848FFF706FB0020BDE861
:105A7000F081FF20FBE7000092000020840000205E
:105A8000542800102002001000000010585E00088A
:105A900002480068002800D0C078704784000020C9
:105AA00000B52DED048B83B041EC180BFDF7C8FD5C
:105AB00041EC190B19EE100A19EE901A8DED009BAE
:105AC000002818BF0120084320F00040C0F17F608B
:105AD00000F1E040C00F14D018EE101A18EE900A32
