:020000040800F2
:1000000010060020250500082D0500082F05000812
:100010003105000833050008350500080000000020
:1000200000000000000000000000000009020008BD
:100030003905000800000000AD0200080D030008AB
:100040003F0500083F0500083F0500083F05000880
:100050003F0500083F0500083F0500080916000895
:10006000391600086B160008D71500083F05000870
:100070003F0500083F0500083F0500083F05000850
:100080003F0500083F0500083F0500083F05000840
:100090003F0500083F0500083F0500083F05000830
:1000A0003F0500083F0500083F0500083F05000820
:1000B000D10A0008B10A00083F0500083F05000802
:1000C0003F0500083F0500083F0500083F05000800
:1000D0003F0500083F0500083F0500083F050008F0
:1000E0003F0500083F0500083F0500083F050008E0
:1000F0003F0500083F0500083F0500083F050008D0
:100100003F0500083F0500083F0500083F050008BF
:100110003F0500083F0500083F0500083F050008AF
:100120003F0500083F0500083F0500083F0500089F
:100130003F0500083F0500083F0500083F0500088F
:100140003F0500083F0500083F0500083F0500087F
:100150003F0500083F0500083F0500083F0500086F
:100160003F0500083F0500083F0500083F0500085F
:100170003F0500083F0500083F0500083F0500084F
:100180003F0500083F050008DFF814D004F0E8F848
:100190000021024805F03AFCFEE70000886C0008E8
:1001A0001006002080F309887047684680F30988AC
:1001B00004480078C00714BF0220032080F314888D
:1001C00070470000506C0008DFF818C0EFF305839B
:1001D0001B0618BF6047EFF31483DB0708BF6047B7
:1001E00000DF7047B55B0008DFF818C0EFF3058348
:1001F0001B0618BF6047EFF31483DB0708BF604797
:1002000000DF7047355E0008EFF30980816911F85F
:10021000021C002933D190E80F1010B5E047BDE86B
:100220001040EFF3098C8CE807001D4B93E80600A3
:10023000914208BF704781B11EF0100F06BF2CED30
:10024000108A0120002081F820002CE9F00FC1F86D
:1002500024C00CB406F060F90CBC1A60D2F824C0BB
:10026000BCE8F00F92F8200000281ABFBCEC108AFE
:100270006FF0120E6FF0020E8CF30988704710B504
:10028000084A1268914209D8074C54F8214090E876
:100290000F10A047EFF3098C8CE80F0010BD000091
:1002A000B8000020A4430008A443000810B505F0DE
:1002B000F1FFBDE81040174B93E80600914208BFDC
:1002C0007047EFF3098C1EF0100F06BF2CED108A5B
:1002D0000120002081F820002CE9F00FC1F824C093
:1002E0000CB406F019F90CBC1A60D2F824C0BCE8B2
:1002F000F00F92F8200000281ABFBCEC108A6FF0B3
:10030000120E6FF0020E8CF30988704710B506F0DC
:10031000C9F9CEE7B80000200CB50020019000908C
:100320007548006840F480307349086000BF724827
:10033000006800F4003000900198401C0190009883
:1003400018B90198B0F5A06FF1D16B48006810F4AE
:10035000003F02D00120009001E0002000900098B2
:10036000012845D164484030006840F0805062491F
:10037000403108606148006840F480405F4908608F
:100380005D48083000685C4908310860084600682C
:1003900040F4004008600846006840F4A05008603F
:1003A0005748091F0860081F006840F08070091F47
:1003B000086000BF5048006810F0007FFAD040F29B
:1003C0000560504908604C480830006820F0030080
:1003D0004949083108600846006840F0020008609A
:1003E00000BF45480830006800F00C000828F8D12C
:1003F0000CBD10B54448006840F4700042490860E4
:100400003D48006840F001003B49086000203A493F
:1004100008310860384800683C490840364908609F
:100420003B48091D0860081F006820F48020091F50
:100430000860002030490C310860FFF76DFF4FF075
:10044000006031498039086010BD70B5002000227D
:10045000022300240221284D08352D6805F00C00E8
:1004600020B1042806D0082834D107E0294D2A4EAF
:10047000356033E0294D284E35602FE01E4D2D1D8F
:100480002D68C5F380541C4D2D1D2D6805F03F01CE
:1004900054B1224DB5FBF1F5174E361D3668C6F343
:1004A000881605FB06F209E01A4DB5FBF1F5124E70
:1004B000361D3668C6F3881605FB06F20E4D2D1D57
:1004C0002D68C5F301456D1C6B00B2FBF3F5124EB0
:1004D000356003E00F4D104E356000BF00BF064D84
:1004E00008352D68C5F303150D4E705D0A4D2D6856
:1004F000C540094E356070BD0038024000700040B4
:1005000008544007003C024088ED00E0FFFFF6FE83
:10051000103000240024F4000000002000127A00B3
:10052000040000200648804706480047FEE7FEE733
:10053000FEE7FEE7FEE7FEE7FEE7FEE7FEE7FEE793
:10054000F30300088901000800BFFEE700BFFEE7D3
:1005500000F002FA00F0C7FA00F010FB00F0A6FE6F
:1005600001F0CDFA10A001F088FB0021114805F040
:10057000EDFA114908600021104805F0E7FA10492A
:10058000086000210F4805F0E1FA0F4908600021DA
:100590000E4805F0DBFA0E49086003E04FF0FF302B
:1005A00005F028FAFAE700004D61696E204D6F648E
:1005B00065000000986C000848000020A86C000846
:1005C00030000020B86C000870000020C86C0008E3
:1005D0003400002008B502223921684603F0C9FA28
:1005E00008BD00B5B1B007202B90EE202A90552011
:1005F0002990FF20289007208DF8B60000208DF864
:10060000B8008DF8B7008DF8B50040208DF8B40023
:100610002DA803F098FA40208DF8B00015208DF831
:10062000B10000208DF8B2002CA803F0E0FA7F2082
:1006300027900121102001F0D3FF00208DF8C00089
:100640008DF8C30001202F902FA9A64801F082FD4C
:10065000012222212BA803F0C6F901223C212AA85D
:1006600003F0C1F901223B2129A803F0BCF90122C2
:100670003D2128A803F0B7F901223E2127A803F065
:10068000B2F90121880301F0EFFF0021042002F0FC
:10069000EDFAFFF79FFF9FED940A944880ED000A62
:1006A0009FED930A80ED010A9FED920A80ED020A08
:1006B0009FED910A80ED030A9FED900A80ED040AF8
:1006C0009FED8F0A80ED050A9FED8E0A80ED060AE8
:1006D0009FED8D0A80ED070A9FED8C0A80ED080AD8
:1006E0009FED8B0A80ED090A9FED8A0A80ED0A0AC8
:1006F0009FED890A80ED0B0A1AA800F0B2FB0DA845
:1007000000F0AFFB684600F0ACFB31B000BD30B587
:100710000B46002122E0002440F8214000221AE08C
:1007200001EB4104714D05EB840404EB8204D4ED2C
:10073000000A53F8224000EE104AB8EEC00A20EE3C
:10074000800ABDEEC00A10EE104A50F821502C4429
:1007500040F82140521C042AE2DB491C0329DADB61
:100760000468083404604468113C44608468123CA6
:10077000846030BD1FB50446684603F0A0FA4FF40C
:100780007A700390FFF726FF69462046FFF7BFFF08
:100790001FBD70B52DED048B04460D46164600EEC8
:1007A000106AB8EEC01A00EE105AF8EEC00A00EE59
:1007B000104AB8EEC00A00F08BFAB0EE409AF0EEA4
:1007C000609A9FED560B53EC102B51EC190B03F074
:1007D0005EFB41EC100BB0EE408AF0EE608A51EC0B
:1007E000180B03F0D9FB00EE100ABDEC048B70BDB2
:1007F00070B52DED048B04460D46164600EE106ACA
:10080000B8EEC01A00EE105AF8EEC00A00EE104A18
:10081000B8EEC00A00F0AEFAB0EE409AF0EE609A80
:100820009FED3E0B53EC102B51EC190B03F02FFBFB
:1008300041EC100BB0EE408AF0EE608A51EC180BE0
:1008400003F0AAFB00EE100ABDEC048B70BD86B06D
:1008500047E04FF0FF31012005F06CF98DE807000B
:1008600003A8FFF787FF2F48039900F0D9FA2E4815
:10087000049900F0D5FA2D48059900F0D1FA4FF00F
:10088000FF312B48006805F02FF9284BDA6A264B18
:10089000D96A244BD86AFFF77CFFB1EE400A25489D
:1008A00080ED000A214BDA6A1F4BD96A1D4BD86ACA
:1008B000FFF79EFF204880ED000A1D48006805F004
:1008C00007F91E48007820B902211D48006805F08C
:1008D00017F91948D0ED000A164890ED000A00F00B
:1008E00080F8B6E7001002409621863FD400002031
:1008F00075029ABC17B7D13B5839B43B1826833FD1
:100900002E9020BC304CA6BC3B70CEBB9A99813F48
:1009100039D6453DDC4683BDCDCC4CBCAA9F962242
:10092000DCA54C4004010020380100206C010020AF
:10093000640000205C0000206000002044000020D3
:100940003000002010B5574C2060241D2160241D6C
:100950002260241D236010BD1CB50121082001F078
:100960003FFE4FF47840009002208DF804000320F1
:100970008DF8050000208DF8060001208DF8070095
:100980006946494801F0E6FB02220B21464801F086
:100990006CFC02220C21444801F067FC02220D216C
:1009A000414801F062FC02220E213F4801F05DFC4B
:1009B00002220F213C4801F058FC00231A46194638
:1009C0001846FFF7BFFF1CBDF0EE400AF5EEC00A67
:1009D000F1EE10FA02D2B1EE600A7047B0EE600A92
:1009E000FBE71FB5F0EE401AB0EE601AB0EE080A51
:1009F000B4EEC01AF1EE10FA0ADD002000909FED6F
:100A00002B0A21EE000ABDEEC00A8DED020A18E0A5
:100A1000B0EE080AB4EEC01AF1EE10FA0ED2B0EE43
:100A2000410AFFF7D1FFDFED210A20EE200ABDEEDB
:100A3000C00A8DED000A0020029002E00020009024
:100A40000290B0EE080AF4EEC01AF1EE10FA0ADDD8
:100A5000002001909FED150A21EE800ABDEEC00A2C
:100A60008DED030A18E0B0EE080AF4EEC01AF1EEBC
:100A700010FA0ED2B0EE610AFFF7A6FFDFED0B0A07
:100A800020EE200ABDEEC00A8DED010A0020039081
:100A900002E00020019003909DE80F00FFF752FF55
:100AA0001FBD000034080040000C02400000364426
:100AB00010B50121804802F076FE40B101217F4847
:100AC000006805F01DF801217B4802F07DFE10BD95
:100AD00010B50121880702F066FE18B101218807D0
:100AE00002F072FE10BD1FB500240121022001F0AA
:100AF000AAFD1D208DF80C0000208DF80D000120AE
:100B00008DF80E008DF80F0003A801F0BAF94FF62A
:100B1000FF7001900020ADF80000ADF808006946B4
:100B2000654802F088F9322401222146624802F029
:100B3000BFF901221146604802F01EFE01215E4805
:100B400002F002FA1FBD1CB50121022001F048FD90
:100B5000684601F047FB4FF42050009001208DF8CB
:100B6000040003208DF8050000208DF806008DF8A4
:100B700007006946524801F0EDFA1CBD10B58AB075
:100B80000121042001F05FFD1E208DF810000020DF
:100B90008DF8110001208DF812008DF8130004A8C3
:100BA00001F06FF94FF6FF7002900020ADF80400DD
:100BB000ADF80C00ADF8060001A9424802F03BF97F
:100BC0004148006840084149B0FBF1F0401E84B242
:100BD000012221463B4802F06BF97020ADF8140069
:100BE0000120ADF816000420ADF818004AF201000B
:100BF00007900220ADF820000020ADF822004FF44D
:100C00008070ADF824000020ADF8260005A92D481D
:100C100002F0A6F946F6AD20079005A9294802F092
:100C2000D8F943F25650079005A9264802F01EFA5B
:100C300041F6AA20079005A9224802F07DFA012179
:100C4000204802F081F901211E4802F06EFD0AB031
:100C500010BD1FB500240121084601F0F4FC1C2042
:100C60008DF80C0000208DF80D0001208DF80E008D
:100C70008DF80F0003A801F004F94FF6FF70019002
:100C80000020ADF80000ADF8080069464FF0804044
:100C900002F0D1F8402401222146900702F008F921
:100CA00001221146900702F067FD0121880702F03A
:100CB0004BF9FFF748FF1FBD00040040480000202B
:100CC000000402400008004000000020808D5B000E
:100CD00010B52DED108BB0EE408AF0EE608AB0EECC
:100CE000419A19EE100A03F044F941EC100BB0EEF2
:100CF00040EAF0EE60EA9FED481B03F0E1FDB0EE44
:100D000040CAF0EE60CA18EE900A03F032F941ECE6
:100D1000100BB0EE40EAF0EE60EA9FED3F1B03F0EF
:100D2000CFFDB0EE40DAF0EE60DA53EC1C2B51EC64
:100D30001D0B03F005F841EC100BB0EE40BAF0EEDD
:100D400060BA04F005FCB0EE40AAF0EE60AA18EE1E
:100D5000100A03F00EF941EC100BB0EE40FAF0EE81
:100D600060FAB0EE4A1AF0EE6A1A03F0B9FCBDEC74
:100D7000108B10BD10B52DED108BB0EE408AF0EE4B
:100D8000608AB0EE419A19EE100A03F0F2F841ECD5
:100D9000100BB0EE40EAF0EE60EA9FED1F1B03F08F
:100DA0008FFDB0EE40CAF0EE60CA18EE100A03F0F4
:100DB000E0F841EC100BB0EE40EAF0EE60EA9FED97
:100DC000161B03F07DFDB0EE40DAF0EE60DA53EC76
:100DD0001C2B51EC1D0B02F0B3FF41EC100BB0EEDD
:100DE00040BAF0EE60BA04F0B3FBB0EE40AAF0EE09
:100DF00060AA18EE900A03F0BCF841EC100BB0EEBC
:100E000040FAF0EE60FAB0EE4A1AF0EE6A1A03F019
:100E100067FCBDEC108B10BD00000000000000401E
:100E2000B0F9303050F82330826AD21A8262B0F9B9
:100E3000302040F82210B0F9303050F82330826A68
:100E40001A448262028E521C12B20286028E0A2A52
:100E500001D1002202860A23826A92FBF3F2C26267
:100E60007047002103E0002240F82120491C0A2994
:100E7000F9DB002282620286704710B50446FFF754
:100E8000B0FBFFF7E4FC10BD10B5044600F0E0F83D
:100E900000F0C9F910BD01E000F0FFFAFCE701E045
:100EA00000F03AFFFCE7000000BFFEE770B5044623
:100EB000F748058805E02800A5F1010501D1FFF7F5
:100EC000F3FF0221F34801F088FE0028F3D0214609
:100ED000F04801F04BFEEE48058805E02800A5F13A
:100EE000010501D1FFF7E0FF0121EA4801F075FE9D
:100EF0000028F3D0E74801F036FEC0B270BD2DE9FE
:100F0000F047074688461546012D01DD402600E0E2
:100F100000264FF48051E04801F09AF948EA0600B3
:100F2000FFF7C4FF8146002404E0385DFFF7BEFFF1
:100F30008146641CAC42F8DB4FF48051D64801F086
:100F400085F94846BDE8F08700B587B001218803E0
:100F500001F079FB0121022001F042FB0121022076
:100F600001F03EFB05220D21CB4801F07EF9052260
:100F70000E21C94801F079F905220F21C64801F078
:100F800074F902208DF8180000208DF819008DF8F2
:100F90001A0002208DF81B000003059005A9BE4829
:100FA00001F0D8F84FF48040059005A9BA4801F047
:100FB000D1F84FF40040059005A9B74801F0CAF8F0
:100FC000B44801F04BFC0020ADF80000ADF804007F
:100FD000ADF80600ADF808004FF40070ADF80A0057
:100FE0001820ADF80C000020ADF80E000720ADF879
:100FF00010004FF48270ADF802006946A54801F078
:1010000053FC0121A34801F030FD01208DF81800A8
:1010100000208DF819008DF81A004FF480500590CB
:1010200001208DF81B0005A99B4801F093F84FF4AF
:101030008051994801F00AF900223A211046FFF741
:101040005EFF00223B211046FFF759FF07B000BDAD
:101050001FB5FFF779FF29208DF80000012200213C
:101060006846FFF74CFF06208DF80000012211466C
:101070006846FFF744FF07208DF800000122032196
:101080006846FFF73CFF02208DF8000008208DF82D
:10109000010004208DF8020000208DF803008DF877
:1010A00004000C208DF8050000208DF806005D205E
:1010B0008DF8070094208DF8080002208DF80900B3
:1010C0000E208DF80A003B208DF80B0073208DF860
:1010D0000C0042208DF80D00F8208DF80E00002045
:1010E0008DF80F00102206216846FFF708FF022046
:1010F0008DF80000012217216846FFF700FF182035
:101100008DF800001D208DF801001C208DF80200D4
:10111000C7208DF8030040208DF80400B0208DF822
:101120000500062218216846FFF7E9FEB6208DF873
:10113000000010208DF80100EA208DF802000A203E
:101140008DF8030000208DF8040019208DF80500AB
:10115000062221216846FFF7D2FE59208DF80000B3
:10116000012229216846FFF7CAFE88208DF8000079
:1011700031208DF801000B208DF8020003222C2174
:101180006846FFF7BCFE00223B211046FFF7B7FE82
:1011900000223A211046FFF7B2FE00223621104607
:1011A000FFF7ADFE1FBD2DE9F04106468846144607
:1011B0001F462FB9012C01DDC02504E0802502E087
:1011C000012F00D1C0254FF48051334801F040F881
:1011D00048EA0500FFF76AFE06E00020FFF766FE1A
:1011E0003070601E84B2761C002CF6DC4FF4805107
:1011F000294801F02BF8BDE8F081F8B504460E4609
:1012000002223F212046FFF77AFE054600223521C3
:101210002046FFF774FE054601231A46352168462D
:10122000FFF7C1FFF8BD1FB530E04FF0FF310220DE
:1012300004F080FC8DE807004FF0FF31174800688C
:1012400004F052FC164890ED000ADFED160A30EE6D
:10125000200ABCEEC00A10EE100AC0B28DF80C00D5
:10126000114890ED000ADFED0F0A30EE200ABCEEC7
:10127000C00A10EE100AC0B28DF80D0007480068D1
:1012800004F026FC022103A8FFF7B7FFCDE700001A
:10129000500000200038004000040240640000209C
:1012A0005C0000200000B4426000002000B591B056
:1012B000FCA003F079F80121022001F091F90FA8B8
:1012C00000F090FF1E200F9000208DF840000220BB
:1012D0008DF8410000208DF8420002208DF8430077
:1012E0000FA9F84800F036FF0121880301F0BCF98E
:1012F0000121022001F074F90DA800F073FFE02035
:101300000D9001208DF8380002208DF83900002062
:101310008DF83A0002208DF83B000DA9E94800F055
:1013200019FF0421012001F0A1FC10200B900020E6
:101330008DF8300008208DF8310001208DF8320042
:101340000BA800F019FE0A208DF8280000208DF867
:10135000290001208DF82A008DF82B000AA800F042
:1013600090FD0121084601F081FC02200890002038
:101370008DF8240008208DF8250001208DF8260026
:1013800008A800F0F9FD07208DF81C0000208DF85A
:101390001D0001208DF81E008DF81F0007A800F029
:1013A00070FD0221012001F061FC04200590002065
:1013B0008DF8180008208DF8190001208DF81A000A
:1013C00005A800F0D9FD08208DF8100000208DF848
:1013D000110001208DF812008DF8130004A800F010
:1013E00050FD0321012001F041FC08200290002063
:1013F0008DF80C0008208DF80D0001208DF80E00EE
:1014000002A800F0B9FD09208DF8040000208DF835
:10141000050001208DF806008DF8070001A800F0F6
:1014200030FD0020A8490860A8490860E021A548CF
:1014300000F00EFF11B000BDA3480068022805DAD5
:10144000A1480068401CA049086002E000209E49B5
:101450000860704710B5142004F0CCFA10BD10B528
:10146000E021984800F0F4FE9748006820B1012878
:1014700007D002280FD109E02021924800F0E6FEB3
:1014800009E040218F4800F0E1FE04E080218D4812
:1014900000F0DCFE00BF00BF10BD10B5FFF7DFFF9E
:1014A0008A4802688848016889A002F07DFFFFF73A
:1014B000D1FFFFF7C1FF8C48006803281ED18B487D
:1014C00000782A2842D18A48006800283ED00020AF
:1014D0008749086087480078012806D1002085499F
:1014E000087085A000F0C9FB30E001208149087038
:1014F0008749087087A000F0C0FB27E07A480068A1
:10150000002823D17B48007801281FD17748007834
:1015100031280CD17648006848B100207449086031
:1015200001207B4908707BA000F0A7FB0EE06F480C
:10153000007832280AD16E48006838B100206C4922
:1015400008607349087079A000F097FB10BD5E48F1
:10155000006820B1012815D0022839D125E05B4868
:10156000006830B1012806D0022806D0032808D12F
:1015700005E0312070473420FCE73720FAE72A20C5
:10158000F8E725E05148006830B1012806D002286C
:1015900006D0032808D105E03220EBE73520E9E743
:1015A0003820E7E73020E5E712E04848006830B12E
:1015B000012806D0022806D0032808D105E03320F0
:1015C000D8E73620D6E73920D4E72320D2E700BF7A
:1015D00000BF5820CEE710B500203C49086010201D
:1015E00000F030FD60B1102000F03DFDFFF7AFFFCF
:1015F0003E49087000203C49086001203C490860D1
:10160000102000F01BFD10BD10B501202F4908600F
:10161000022000F017FD58B1022000F024FDFFF772
:1016200096FF3249087001202F4908603049086050
:10163000022000F003FD10BD10B502202349086010
:10164000042000F0FFFC60B1042000F00CFDFFF767
:101650007EFF2649087002202349086001202449A2
:101660000860042000F0EAFC10BD10B50320174903
:101670000860082000F0E6FC78B1082000F0F3FCD8
:10168000FFF765FF194908700320174908601848DB
:10169000006810B9012016490860082000F0CEFC4F
:1016A00010BD00000A5B494E464F5D206B657970A6
:1016B000616420696E6974616C697A6174696F6EC6
:1016C00000000000000402407400002078000020A8
:1016D0000A5363616E3A20636F6C2025692C207277
:1016E0006F77202569000000680000207C00002042
:1016F0006C000020440000204D61696E204D6F6435
:1017000065202020202020202020202020202000B4
:101710009C000020536571204D6F64653A204F682E
:101720002C20506C656173652E2E2E005365712040
:101730004D6F64653A20517565656E20202020202C
:101740002020200010B5044614B1012C0AD104E079
:101750000421FD4800F07AFD04E00421FA4800F07D
:1017600077FD00BF00BF10BD10B50020FFF7EAFFF6
:101770000120FFF7E7FF052004F03CF910BD10B58C
:10178000044614B1012C0AD104E00121EE4800F016
:101790005DFD04E00121EC4800F05AFD00BF00BFF0
:1017A00010BD10B5044614B1012C0AD104E080210B
:1017B000E64800F04BFD04E08021E44800F048FDDD
:1017C00000BF00BF10BD10B5044614B1012C0AD1F2
:1017D00004E04021DD4800F039FD04E04021DB4811
:1017E00000F036FD00BF00BF10BD10B5044614B1B7
:1017F000012C0AD104E02021D44800F027FD04E0A8
:101800002021D24800F024FD00BF00BF10BD10B55C
:10181000044614B1012C0AD104E01021CB4800F099
:1018200015FD04E01021C94800F012FD00BF00BF03
:1018300010BD10B5044614B1012C0CD105E04FF4D5
:101840000061C24800F002FD05E04FF40061BF48AE
:1018500000F0FEFC00BF00BF10BD10B5044614B17F
:10186000012C0CD105E04FF48061B84800F0EEFC8B
:1018700005E04FF48061B54800F0EAFC00BF00BF0E
:1018800010BD10B5044614B1012C0CD105E04FF485
:101890000071AE4800F0DAFC05E04FF40071AB488F
:1018A00000F0D6FC00BF00BF10BD10B5044614B157
:1018B000012C0CD105E04FF48071A44800F0C6FC67
:1018C00005E04FF48071A14800F0C2FC00BF00BFEA
:1018D00010BD10B50446072C1FD2DFE804F0041F2A
:1018E0003B546D869F00002099490870FFF7DDFF8B
:1018F0000120FFF7C6FF0120FFF7AFFF0120FFF730
:1019000098FF0120FFF783FF0120FFF76EFF012002
:10191000FFF759FF0120FFF744FF98E000208C49B2
:1019200008700120FFF7C1FF0020FFF7AAFF012088
:10193000FFF793FF0120FFF77CFF0120FFF767FF10
:101940000120FFF752FF0120FFF73DFF0120FFF7C5
:1019500028FF7CE00120FFF7A8FF0020FFF791FFA0
:101960000020FFF77AFF0120FFF763FF0120FFF758
:101970004EFF0120FFF739FF0120FFF724FF012070
:10198000FFF70FFF63E00020FFF78FFF0020FFF756
:1019900078FF0020FFF761FF0020FFF74AFF0120DA
:1019A000FFF735FF0120FFF720FF0120FFF70BFFB6
:1019B0000120FFF7F6FE4AE00120FFF776FF012045
:1019C000FFF75FFF0020FFF748FF0020FFF731FF20
:1019D0000120FFF71CFF0120FFF707FF0120FFF7A1
:1019E000F2FE0120FFF7DDFE31E00120FFF75DFF91
:1019F0000120FFF746FF0020FFF72FFF0020FFF731
:101A000018FF0020FFF703FF0020FFF7EEFE012084
:101A1000FFF7D9FE0120FFF7C4FE18E00120FFF711
:101A200044FF0120FFF72DFF0120FFF716FF0120E3
:101A3000FFF7FFFE0120FFF7EAFE0120FFF7D5FECA
:101A40000020FFF7C0FE0020FFF7ABFE00BF00BF85
:101A50000120FFF794FE10BD10B50020FFF739FFFD
:101A6000FFF782FE0120FFF734FFFFF77DFE10BD78
:101A700010B5044614B1012C0AD104E00221324809
:101A800000F0E4FB04E002212F4800F0E1FB00BF7E
:101A900000BF10BD1CB50121102000F0A1FD68465B
:101AA00000F0A0FB4FF47F60009001208DF804004F
:101AB00002208DF8050000208DF806008DF8070043
:101AC0006946224800F046FB1CBD1CB501210820D8
:101AD00000F086FD684600F085FB0720009001209D
:101AE0008DF8040002208DF8050000208DF8060016
:101AF0008DF807006946144800F02CFB1CBD10B59A
:101B000014A002F051FC1B4803F0D6FF1A490860EC
:101B1000FFF7DBFFFFF7BEFF0120FFF7A9FF012062
:101B2000FFF710FE0520FFF7D4FEFFF71DFEFFF7BD
:101B300093FF0220FFF7CDFEFFF716FE0420FFF70C
:101B4000C8FEFFF711FE10BD000C0240001002405D
:101B5000800000205B494E464F5D20496E697469E4
:101B6000616C697A696E6720746865204C43442E05
:101B70000A000000DC6C00088400002010B5012081
:101B8000FFF7A7FEFFF7F0FD10BD10B50620FFF729
:101B9000A0FEFFF7E9FD10BD70B5054668E02C78A2
:101BA00048480078182802D1FFF7EFFF04E04548C5
:101BB0000078302800DB70BD14F0010F03D1012044
:101BC000FFF773FE02E00020FFF76FFE14F0020F34
:101BD00003D10120FFF755FE02E00020FFF751FE80
:101BE00014F0040F03D10120FFF737FE02E00020BC
:101BF000FFF733FE14F0080F03D10120FFF719FEA1
:101C000002E00020FFF715FE14F0100F03D10120B1
:101C1000FFF7FDFD02E00020FFF7F9FD14F0200FB3
:101C200003D10120FFF7E1FD02E00020FFF7DDFD19
:101C300014F0400F03D10120FFF7C5FD02E00020A2
:101C4000FFF7C1FD14F0800F03D10120FFF7A9FDBC
:101C500002E00020FFF7A5FD0020FFF790FDFFF751
:101C600083FD6D1C17480078401C1649087000BFA2
:101C70002878002893D100BF9DE710B504464FF0A7
:101C8000FF311148006803F02FFFFFF777FF204670
:101C9000FFF782FF0C48006803F01AFF10BD10B573
:101CA00004464FF0FF310848006803F01DFFFFF7BE
:101CB0006CFF2046FFF770FF0348006803F008FF41
:101CC00010BD000080000020840000201149096838
:101CD00011F0010F0ED00F498039096811F0010F82
:101CE00008D000BF4FF0604109680029FAD04FF0DA
:101CF00060421070704770B504460D462046FFF7ED
:101D0000E5FF70BD10B504462046FFF7DFFF10BDAC
:101D100000BFFEE7800E00E010B54D4800780128B6
:101D20004ED14C48007800284BD1411E4A480068EB
:101D300003F0DAFE9FED490A494880ED000A9FED65
:101D4000470A484880ED000A9FED470A444880ED65
:101D5000000A9FED420A434880ED000A01214348F2
:101D6000006803F0CDFE4FF4FA7003F043FE9FEDE0
:101D7000400A3B4880ED000A9FED380A394880ED63
:101D8000000A01213948006803F0BAFE4FF4FA70E6
:101D900003F030FE9FED310A314880ED000A9FEDDF
:101DA0002F0A304880ED000A01213048006803F016
:101DB000A7FE2948006803F08BFE642003F01AFE9A
:101DC00045E024480078012841D1811E224800685E
:101DD00003F08AFEBBEE0E0A224880ED000A9FED5A
:101DE0001F0A1F4880ED000A01212048006803F007
:101DF00087FE4FF4FA7003F0FDFD9FED1E0A1948AF
:101E000080ED000A9FED150A154880ED000A0121BA
:101E10001648006803F074FE4FF4FA7003F0EAFD10
:101E20009FED0E0A0E4880ED000A9FED0C0A0D484A
:101E300080ED000A01210D48006803F061FE0648AC
:101E4000006803F045FE4FF47A7003F0D3FD10BD37
:101E5000440000209C0000206400002000000000DE
:101E60005C00002060000020000020C23000002044
:101E7000000020420000B44233490143334A11605C
:101E8000704770B5002100230F22C47824B32F4C73
:101E9000246804F4E064C4F5E064C4F30721C1F1EC
:101EA0000404E3B20A4144789C40E1B284781440CF
:101EB00021430C07210E264C05786155047804F067
:101EC0001F050124AC4005786D114FF0E02606EBAC
:101ED0008505C5F8004109E0047804F01F040125D8
:101EE000A5401C4C0678761144F8265070BD1A4A5D
:101EF0000A400243154B1B1F1A60704739B1134A41
:101F0000121D12680243114B1B1D1A6006E00F4A96
:101F1000121D126882430D4B1B1D1A607047042866
:101F200008D14FF0E021096941F004014FF0E022AF
:101F3000116107E04FF0E021096921F004014FF041
:101F4000E0221161704700000000FA050CED00E08E
:101F500000E400E080E100E080FFFF1F0020444932
:101F60000860091D0860091D0860091D08604148D6
:101F70003F4914310860704700213D498279002AA9
:101F80003AD00A46126803689A430B461A600A1D43
:101F9000126803689A430B1D1A60027911440A689B
:101FA00003681A430A60324A0832126803689A4387
:101FB0002F4B08331A601A1D126803689A432C4B82
:101FC0000C331A604279102A0ED11A1F1268036866
:101FD0001A43274B08331A601A1D126803681A4304
:101FE000234B0C331A600DE02149427911440A68F1
:101FF00003681A430A6005E0027911440A6803681D
:102000009A430A6070470021016001710C214171FF
:102010000021817170471649103109680143144A43
:1020200010321160704701460020114A14321268C4
:102030000A4201D0012000E0002070470C49143111
:1020400008607047014600200022094B1B6803EA24
:102050000102074B14331B680B4202D00AB1012066
:1020600000E000207047024914310860704700000A
:10207000003C0140FFFF7F0010B504468C488442BD
:1020800008D10121084600F000FB0021012000F0EA
:10209000FCFA5EE08748844208D10121022000F06A
:1020A000F4FA0021022000F0F0FA52E08248844263
:1020B00008D10121042000F0E8FA0021042000F0FA
:1020C000E4FA46E07D48844208D10121082000F06E
:1020D000DCFA0021082000F0D8FA3AE0784884427F
:1020E00008D10121102000F0D0FA0021102000F0CA
:1020F000CCFA2EE07348844208D10121202000F060
:10210000C4FA0021202000F0C0FA22E06E48844288
:1021100008D10121402000F0B8FA0021402000F051
:10212000B4FA16E06948844208D10121802000F009
:10213000ACFA0021802000F0A8FA0AE0644884424A
:1021400007D10121801500F0A0FA0021A01500F0B0
:102150009CFA10BDF0B50A4600210023002400BF00
:102160003DE0012505FA01F3156805EA03049C42E8
:1021700034D105684F000326BE40B543056015798C
:102180004E00B5400668354305601579012D02D033
:102190001579022D16D185684F000326BE40B54340
:1021A000856055794E00B540866835438560456841
:1021B00001268E40B5434560456896798E40B6B29B
:1021C00035434560C5684F000326BE40B543C56032
:1021D000D5794E00B540C6683543C560491C102905
:1021E000BFD3F0BD4FF6FF71016000210171417155
:1021F0008171C171704708B54FF480320092009A26
:102200000A430092009AC261C161009AC261C26928
:102210000092C269009208BD0246002013690B4279
:1022200001D0012000E0002070470146086980B21B
:1022300070470246002053690B4201D0012000E0A4
:10224000002070470146486980B27047018370479B
:10225000418370470AB1018300E0418370474161C7
:10226000704742694A4042617047F0B5002300243C
:102270004D07ED0E02FA05F3CE1000F1200555F8DA
:1022800026504E07F70E0F26BE40B543CF1000F183
:10229000200646F82750CE1000F1200555F82650AC
:1022A00045EA0304CE1000F1200545F82640F0BDB4
:1022B000000002400004024000080240000C0240FE
:1022C000001002400014024000180240001C0240AE
:1022D00000200240FA48006840F00100F849086018
:1022E0000020F74908310860F5480068F5490840C2
:1022F000F3490860F448091D0860081F006820F4CD
:102300008020091F08600020ED490C3108607047EB
:102310000021EB4A921C117011460870704710B5ED
:1023200001460022002300204A11012A02D1E44C78
:10233000236808E0022A03D1E14C7034236802E0EC
:10234000DF4C7434236801F01F02012494401C42C6
:1023500001D0012000E0002010BD38B50020009021
:102360000024002500BF3120FFF7D9FF0546009863
:10237000401C00900098B0F5A06F01D0002DF2D065
:102380003120FFF7CCFF08B1012400E000242046F3
:1023900038BD01460020CA4A106820F0F80040EA23
:1023A000C10010607047C949086070470021C44AE5
:1023B000703211701170012802D004280AD104E093
:1023C0000121BF4A7032117005E00521BC4A70320C
:1023D000117000E000BF00BF7047BD490860704742
:1023E00070B5049C41EA82150126C6EB530645EA06
:1023F0000645054345EA0465B14E361D356070BD9E
:10240000B24908667047820142EA0172AC4B8433DC
:102410001A607047AD4988667047AC49C864704718
:1024200002460020A64B0833186820F0EC6042EA10
:1024300001031843A24B083318607047024600207E
:102440009F4B0833186820F0784042EA0103184394
:102450009B4B08331860704701460020984A0832A9
:10246000106820F00300084310607047944808305B
:10247000006800F00C00704701460020904A0832C6
:10248000106820F0F00008431060704701460020FB
:102490008B4A0832106820F4E050084310607047FF
:1024A00001460020864A0832106820F4604040EA65
:1024B000C10010607047F0B5002100220024022501
:1024C000002602237E4F08373F6807F00C0121B138
:1024D000042905D0082937D105E07E4F076036E092
:1024E0007D4F076033E0764F3F1D3F68C7F380564E
:1024F000734F3F1D3F6807F03F036EB1764FB7FB48
:10250000F3F7DFF8BCC10CF1040CDCF800C0CCF32D
:10251000881C07FB0CF40CE06E4FB7FBF3F7DFF8F9
:10252000A0C10CF1040CDCF800C0CCF3881C07FB44
:102530000CF4634F3F1D3F68C7F301477F1C7D00CC
:10254000B4FBF5F7076002E0624F076000BF00BF11
:102550005B4F08373F6807F0F00109095F4F7A5C6D
:102560000768D7404760564F08373F6807F4E05187
:10257000890A5A4F7A5C4768D7408760504F0837BE
:102580003F6807F46041490B544F7A5C4768D74075
:10259000C760F0BD002100F44072B2F5407F0AD15F
:1025A000474A0832116821F4F8114D4A024011439C
:1025B000434A08321160424A70321268C0F30B037A
:1025C0001A433F4B70331A607047414944390860E1
:1025D00070473F494039086070474249086070477A
:1025E00039B1374A303212680243354B30331A6002
:1025F00006E0334A303212688243314B30331A607E
:10260000704739B12E4A3432126802432C4B3433AE
:102610001A6006E02A4A343212688243284B343367
:102620001A60704739B1264A383212680243244B87
:1026300038331A6006E0224A383212688243204B4F
:1026400038331A60704739B11D4A4032126802436C
:102650001B4B40331A6006E0194A4032126882432D
:10266000174B40331A60704739B1154A443212682B
:102670000243134B44331A6006E0114A4432126895
:1026800082430F4B44331A60704739B10C4A103201
:10269000126802430A4B10331A6006E0084A1032EF
:1026A00012688243064B10331A607047E1B1044A46
:1026B000143212680243024B14331A6019E000000E
:1026C00000380240FFFFF6FE1030002400004742B1
:1026D000800E47420024F40000127A009D00002082
:1026E000FFFCFF0F5C0147425B4A126882435A4B72
:1026F0001A60704739B1584A121D12680243564B8E
:102700001B1D1A6006E0544A121D12688243524B88
:102710001B1D1A60704739B14F4A0C3212680243D0
:102720004D4B0C331A6006E04B4A0C321268824360
:10273000494B0C331A60704739B1474A103212685E
:102740000243454B10331A6006E0434A10321268C8
:102750008243414B10331A60704739B13E4A3C32D4
:10276000126802433C4B3C331A6006E03A4A3C3262
:1027700012688243384B3C331A60704739B1364A8D
:10278000403212680243344B40331A6006E0324A4A
:10279000403212688243304B40331A60704739B17F
:1027A0002D4A4432126802432B4B44331A6006E030
:1027B000294A443212688243274B44331A607047D7
:1027C00039B1254A4C3212680243234B4C331A600C
:1027D00006E0214A4C32126882431F4B4C331A6088
:1027E000704739B11C4A5032126802431A4B5033B9
:1027F0001A6006E0184A503212688243164B503372
:102800001A60704739B1144AD21F12780243124B32
:10281000DB1F1A7006E0104AD21F127882430E4B5B
:10282000DB1F1A7070470C486030006840F0807001
:10283000094960310860704701460020064A083A9D
:1028400012680A4201D0012000E0002070470249CE
:10285000891F0870704700001438024010B5044604
:10286000F648844208D101218014FFF765FF00215A
:10287000A014FFF761FF16E0F148844208D101215E
:102880000014FFF748FF00212014FFF744FF0AE07F
:10289000EC48844207D10121C013FFF73CFF00211F
:1028A000E013FFF738FF10BD10B50022028802F4D4
:1028B00041520B884C8823438C882343CC88234384
:1028C0000C8923434C8923438C892343CC8923439C
:1028D0001A430280838B4FF2FF74234083830B8A59
:1028E000038210BD2DE9F04F0025022300240127AB
:1028F00000220026944690469146B0F81CA04FF264
:10290000400B0AEA0B0AA0F81CA04FF0020AA0F83C
:1029100020A0858BD1F808A0BAF1020F01D100BF29
:102920006AE0B1F804A0BAF1000F01D1012700E07C
:102930000227DFF814A3DAF800A01AF4000F09D078
:10294000DFF804A3DAF800A02AF4000ADFF8F8B2EE
:10295000CBF800A0DFF8F0A20AF17C0ADAF800A0B8
:10296000CAF38818DFF8E0A20AF17C0ADAF800A0BE
:10297000CAF30279DFF8D0A2AAF1040ADAF800A0BB
:102980000AF03F0CDFF8C4A2BAFBFCFA0AFB08FA13
:10299000BAFBF9F6B1F806A0BAF5007F0ED14FEAFE
:1029A000162A0AEB8A0A4FEA4A0AD1F808B0BAFB9B
:1029B000FBFA0AF1050A1FFA8AF20FE04FEA471AFA
:1029C000B6FBFAFA0AEB8A0A4FEA4A0AD1F808B0CB
:1029D000BAFBFBFA0AF1050A1FFA8AF24FF00A0A5B
:1029E000B2FBFAF202F00104A2EB040ACAF34F03AD
:1029F0004FF6FF7A0AEA0424022B01DBFF2B01DDEC
:102A000002230024B1F806A04AEA040A4AEA030AAB
:102A1000A0F820A0B1F804A0B1F80CB04AEA0B0A63
:102A2000B1F802B04AEA0B0AB1F800B04AEA0B0A60
:102A30004AF4006A4AEA05058583BDE8F08F002163
:102A4000018041808180C180018141818181C1817A
:102A50000721018270470021018041808180C1806F
:102A60000221816000218181704721B1028842F0FA
:102A70004002028004E002884FF6BF731A400280D1
:102A8000704721B1828B42F48062828304E0828BA2
:102A90004FF6FF331A408283704702884FF2FF736C
:102AA0001A40028002880A4302807047B1F5804FC5
:102AB00004D1028842F48042028004E002884BF68E
:102AC000FF731A4002807047A1F57E42FF3A04D09E
:102AD000028842F48072028004E002884FF6FF63AD
:102AE0001A400280704721B1828842F0040282803D
:102AF00004E082884FF6FB731A408280704721B150
:102B0000828842F01002828004E082884FF6EF73E0
:102B10001A408280704730B500220023848B4FF228
:102B200040052C40848302240484828B0C88B4F5F5
:102B3000007F01D00C8814B94FF4807308E00C8832
:102B4000B4F5407F03D00C88B4F5807F00D100231A
:102B50008C888D892C434D882C431C4344F400649D
:102B60002243828330BD0146888970478181704746
:102B700021B1028842F40052028004E002884DF63E
:102B8000FF731A4002807047018841F48051018030
:102B9000704702460020012901D0108B00E0908A86
:102BA00070470146088A70471AB183880B438380B7
:102BB00002E083888B438380704730B50024002374
:102BC0000C110125A540ABB21AB185881D43858043
:102BD00002E085889D43858030BD02460020138930
:102BE0000B4201D0012000E000207047CA4302815F
:102BF0007047F0B50246002000240023002501F0B4
:102C00000F070126BE40B4B20B1101269E40B3B29D
:102C1000968806EA03051689264202D00DB10120E6
:102C200000E00020F0BD10B5002201F00F040123E8
:102C3000A3409AB2D343038110BD0000003001408D
:102C400000380040003C00400838024000127A0082
:102C500010B501218803FFF76FFD00214FF480407C
:102C6000FFF76AFD10BD1A490860704730B50022B1
:102C70008B071C0F0F2303FA04F2154B08338C103B
:102C800053F824309343124C08348D1044F8253007
:102C900023468C1053F824308C07240F00FA04F4D8
:102CA00023430B4C08348D1044F8253030BD0949BE
:102CB00008607047084908607047002004492031C7
:102CC000096811F4807F01D0012000E000207047E6
:102CD00000380140DC0027420004274210B50446BA
:102CE000FE48844208D101210846FFF725FD002156
:102CF0000120FFF721FD9DE0B4F1804F08D10121B3
:102D00000846FFF708FD00210120FFF704FD91E0D0
:102D1000F348844208D101210220FFF7FCFC002186
:102D20000220FFF7F8FC85E0EE48844208D101213B
:102D30000420FFF7F0FC00210420FFF7ECFC79E011
:102D4000E948844208D101210820FFF7E4FC002172
:102D50000820FFF7E0FC6DE0E448844208D101213F
:102D60001020FFF7D8FC00211020FFF7D4FC61E011
:102D7000DF48844208D101212020FFF7CCFC00214C
:102D80002020FFF7C8FC55E0DA48844208D1012131
:102D90000220FFF7D1FC00210220FFF7CDFC49E023
:102DA000D548844209D101210804FFF7C5FC002160
:102DB0004FF48030FFF7C0FC3CE0D048844209D19A
:102DC00001214804FFF7B8FC00214FF40030FFF761
:102DD000B3FC2FE0CA48844209D101218804FFF7DF
:102DE000ABFC00214FF48020FFF7A6FC22E0C54891
:102DF000844208D101214020FFF78DFC00214020B2
:102E0000FFF789FC16E0C048844208D101218020E8
:102E1000FFF781FC00218020FFF77DFC0AE0BB4822
:102E2000844207D101218015FFF775FC0021A01510
:102E3000FFF771FC10BD00220288A84B98420ED00B
:102E4000AC4B98420BD0B0F1804F08D0A44B9842C5
:102E500005D0A44B984202D0A34B984204D14FF620
:102E60008F731A404B881A43A04B984207D0A04B4F
:102E7000984204D04FF6FF431A400B891A43028050
:102E80004B68C3620B880385944B984202D0994BE0
:102E9000984201D18B7A03860123838270474FF0D9
:102EA000FF314160002101800181418081727047C2
:102EB0000185828270470A46002101884FF68F7390
:102EC000194011430180704741627047C1627047E9
:102ED0000146486A70470146088D704721B1028853
:102EE00042F00202028004E002884FF6FD731A40AD
:102EF0000280704721B1028842F00402028004E09F
:102F000002884FF6FB731A400280704721B1028895
:102F100042F08002028004E002884FF67F731A407C
:102F20000280704702884FF6F7731A4002800288C9
:102F30000A430280704702884FF6FF431A4002801E
:102F400002880A430280704721B1028842F00102E0
:102F5000028004E002884FF6FE731A400280704738
:102F600070B5002400220023058C4FF6FE76354014
:102F70000584028C8388048B4FF68F752C40B51E18
:102F80002C400D882C43751E2A408D892A434D887C
:102F90002A43524DA84202D0564DA84213D14FF6B3
:102FA000F7752A40CD892A434FF6FB752A408D8854
:102FB0002A434FF6FF652B404FF6FF552B400D8AF5
:102FC0002B434D8A2B43838004838D6845630284A1
:102FD00070BD70B5002400220023058C4FF6EF76FB
:102FE00035400584028C8388048B48F6FF752C409D
:102FF0004FF6FF452C400D884FF6FF7606EA052573
:103000002C434FF6DF752A408D8906EA05152A43C1
:103010004D8806EA05152A43304DA84202D0354DA9
:10302000A8421DD14FF67F752A40CD894FF6FF7615
:1030300006EA05152A434FF6BF752A408D8806EA31
:1030400005152A434FF6FF352B404FF2FF752B40F5
:103050000D8A06EA85052B434D8A06EA85052B4332
:10306000838004838D688563028470BD70B50024FD
:1030700000220023058C4FF6FF6635400584028C44
:103080008388848B4FF68F752C404FF6FC752C404F
:103090000D882C434FF6FF552A408D894FF6FF7659
:1030A00006EA05252A434D8806EA05252A430B4DE5
:1030B000A84202D00F4DA84238D14FF2FF752A40E6
:1030C000CD894FF6FF7606EA05252A434FF6FF35F0
:1030D0002A408D8806EA05252A4319E000000140B0
:1030E0000004004000080040000C004000100040B8
:1030F0000014004000040140004001400044014031
:103100000048014000180040001C00400020004022
:103110004EF6FF752B404DF6FF752B400D8A06EAE3
:1031200005152B434D8A06EA05152B4383808483BE
:103130008D68C563028470BD70B500220023002431
:10314000058C4EF6FF7635400584038C8488828B8F
:1031500048F6FF752A404FF6FF452A400D884FF686
:10316000FF7606EA05252A434DF6FF752B408D892B
:1031700006EA05352B434D8806EA05352B43FE4DFF
:10318000A84202D0FD4DA84208D14BF6FF752C4055
:103190000D8A4FF6FF7606EA85152C4384808283DC
:1031A0008D680564038470BD0021018041808180A9
:1031B00081608181C18101824182704770B503467F
:1031C000002000241846183001258D40ACB21D8C1B
:1031D000A5431D8409B108290AD100EB61000568E7
:1031E0004FF68F76354005600568154305600FE0A2
:1031F0000D1FC5F34E052844056848F6FF76354097
:10320000056005684FF6FF7606EA0226354305603D
:1032100070BD4163704781637047C163704701644B
:1032200070470A460021018B4FF68F7319401143F6
:10323000018370470A460021018B48F6FF7319404D
:103240004FF6FF7303EA02231943018370470A46CE
:103250000021818B4FF68F73194011438183704792
:103260000A460021818B48F6FF7319404FF6FF7321
:1032700003EA02231943818370470A460021018B28
:103280004FF6F77319401143018370470A46002136
:10329000018B4FF2FF7319404FF6FF7303EA0223CD
:1032A0001943018370470A460021818B4FF6F7735B
:1032B00019401143818370470A460021818B4FF2E8
:1032C000FF7319404FF6FF7303EA0223194381830A
:1032D00070470A460021018B4FF6FB7319401143DA
:1032E000018370470A460021018B4FF6FF331940D6
:1032F0004FF6FF7303EA02231943018370470A461E
:103300000021818B4FF6FB73194011438183704775
:103310000A460021818B4FF6FF3319404FF6FF73A9
:1033200003EA02231943818370470A460021018B77
:103330004FF67F7319401143018370470A460021FD
:10334000018BC1F30E014FF6FF7303EA0223194309
:10335000018370470A460021818B4FF67F73194025
:103360001143818370470A460021818BC1F30E010E
:103370004FF6FF7303EA02231943818370470A461D
:103380000021018C4FF6FD731940114301847047F1
:103390000A460021018C4FF6F7731940114301844E
:1033A00070470A460021018C4FF6DF7319404FF633
:1033B000FF7303EA02131943018470470A46002190
:1033C000018C4FF67F7319404FF6FF7303EA021327
:1033D0001943018470470A460021018C4FF6FF53C0
:1033E00019404FF6FF7303EA022319430184704723
:1033F0000A460021018C4FF2FF7319404FF6FF730C
:1034000003EA02231943018470470A460021018C14
:103410004DF6FF7319404FF6FF7303EA0233194369
:103420000184704730B5002301248C40A3B2048C82
:103430009C430484048C02FA01F5ADB22C4304844D
:1034400030BD30B5002304248C40A3B2048C9C43CF
:103450000484048C02FA01F5ADB22C43048430BD1F
:10346000828B4FF2FF331A408283828B4FF6FF73B9
:1034700003EA01231A4382837047F0B50C461546D0
:10348000002100220026078C4EF6FF7C07EA0C077D
:103490000784818B028C4FF6FF7707EA043640F6EB
:1034A000FF4739404FF6FF7707EA052739434FF6C4
:1034B000FF7707EA0337394345F6FF773A4046F48A
:1034C00080573A4381830284F0BD828B4FF6F373B9
:1034D0001A408283828B0A4382837047F0B50C4680
:1034E0001546002100220026078C4FF6FF6C07EAE4
:1034F0000C070784818B028C4FF6FF7707EA0426BE
:103500004FF60C7739404FF6FF7707EA03172F4342
:1035100039434FF2FF573A4046F480773A4381836C
:103520000284F0BD028B4FF2FF331A400283028BFC
:103530004FF6FF7303EA01231A4302837047F0B585
:103540000C461546002100220026078C4FF6EF7C22
:1035500007EA0C070784018B028C4FF6FF7707EA16
:10356000041640F6FF4739404FF6FF7707EA033766
:1035700039434FF6FF7703E00000014000040140AB
:1035800007EA052739434FF65F773A4046F01007C0
:103590003A4301830284F0BD028B4FF6F3731A4065
:1035A0000283028B0A4302837047F0B50C4615462E
:1035B00000210022068C4FF6FE773E400684018BE8
:1035C000028C4FF60C7631407E1C06EA03162E4321
:1035D00031434FF6F576324044F001063243018321
:1035E0000284F0BD70B505460C46208850B9238989
:1035F000A28861882846FFF7D8FFE1882846FFF7B0
:10360000CBFF25E0208804280AD12389A28861887D
:103610002846FFF794FFE1882846FFF783FF17E06D
:10362000208808280AD12389A28861882846FFF7C4
:1036300055FFE1882846FFF748FF09E02389A28863
:1036400061882846FFF719FFE1882846FFF708FF41
:1036500070BD002101804180012181800021C18055
:10366000018170472DE9F04105460C4600260127EF
:10367000608808B9022600E00026A088012801D150
:10368000022700E001272088A0B92389A288618849
:103690002846FFF78AFFE1882846FFF77DFF238948
:1036A0003A4631462846FFF74AFFE1882846FFF7A9
:1036B00039FF13E02389A28861882846FFF73FFF7E
:1036C000E1882846FFF72EFF23893A4631462846EF
:1036D000FFF76BFFE1882846FFF75EFFBDE8F0814A
:1036E0000146486B70470146886B70470146C86BBE
:1036F00070470146086C70470A884B881A438B88CC
:103700001A43CB881A430B891A434B891A438B8976
:103710001A43A0F844207047002101804180818035
:10372000C180018141818181704731B1B0F844206D
:1037300042F40042A0F8442005E0B0F84420C2F36F
:103740000E02A0F84420704721B1828842F00402A2
:10375000828004E082884FF6FB731A4082807047B3
:1037600021B1828842F00102828004E082884FF613
:10377000FE731A40828070471AB183890B4383819C
:1037800002E083898B4383817047818270470246C0
:103790000020138A0B4201D0012000E00020704776
:1037A000CA430282704730B502460020002300243D
:1037B000158A05EA0103958905EA010413B10CB1E4
:1037C000012000E0002030BDCA430282704741EA78
:1037D0000203A0F8483070471AB183890B438381F4
:1037E00002E083898B438381704721B1828842F054
:1037F0000802828004E082884FF6F7731A408280C4
:10380000704701894FF6F8721140018170470A46EE
:10381000002101894FF68F731940114301817047D0
:1038200030B504460D4629462046FFF7F0FF2089B3
:1038300040F00700208130BD2DE9F04104460D46DF
:1038400016461F46602D06D13B46012231462046D2
:10385000FFF775FE05E03B46012231462046FFF7A3
:10386000A4FE29462046FFF7D2FF208940F007003A
:103870002081BDE8F08130B50C4600210189C9B234
:103880004FF6FF7505EA03251543254329430181BA
:1038900030BD2DE9F04105460E46174698460024F6
:1038A00043463A4631462846FFF7E5FF2C894FF656
:1038B000F870044044F007044FF68F70044044F061
:1038C00070042C81BDE8F081F0B504460D46164623
:1038D0001F463B46324629462046FFF7CCFF20894B
:1038E00040F480402081F0BD82884FF68F731A40EB
:1038F000828082880A438280704702894FF6F8737B
:103900001A40028102890A430281704702894FF6F8
:103910007F731A40028102890A4302817047F0B521
:103920000C4615461E460021002200230189028B09
:10393000038C4FF6F877394021434FF6FC473A4065
:1039400040F201173A434FF6DD773B404FF6FF77E1
:1039500007EA06172F433B43018102830384F0BD2E
:1039600021B1828842F08002828004E082884FF692
:103970007F731A4082807047A0F850107047000093
:1039800000BFFEE710B504464FF48050E8490860D8
:1039900007E0E7490868411EE54A116008B9FFF7EA
:1039A000EFFF0221E348FFF718F90028F1D0214684
:1039B000E048FFF7DBF84FF48050DD49086007E08E
:1039C000DB490868411EDA4A116008B9FFF7D8FFE1
:1039D0000121D848FFF701F90028F1D0D548FFF7B9
:1039E000C2F8C0B210BD70B505460E461446012C93
:1039F00001DD46F040060821CF48FEF729FC30469D
:103A0000FFF7C0FF05E02878FFF7BCFF601E84B217
:103A10006D1C012CF7DA0821C748FEF717FC70BDB2
:103A200000B587B001210803FEF71EFE01210846FC
:103A3000FEF7D6FD01211020FEF7D2FD0121102056
:103A4000FEF7CEFD01211020FEF7CAFD052211462A
:103A5000BA48FEF70AFC05220621B848FEF705FC25
:103A600005220721B548FEF700FC02208DF818005A
:103A700000208DF81A0002208DF81B008DF8190027
:103A80002020059005A9AD48FEF764FB8020059035
:103A900005A9AA48FEF75EFB4020059005A9A748A6
:103AA000FEF758FBA348FEF7D9FE0020ADF8000052
:103AB000ADF80400ADF80600ADF808004FF4007052
:103AC000ADF80A000820ADF80C000020ADF80E009B
:103AD0000720ADF810004FF48270ADF8020069467F
:103AE0009448FEF7E1FE01219248FEF7BEFF082050
:103AF000059001208DF8180000208DF81A00022092
:103B00008DF8190005A98C48FEF724FB08218A4886
:103B1000FEF79CFB0120059000208DF818008DF821
:103B20001A0002208DF8190000208DF81B0005A94D
:103B30008148FEF70FFB0220059005A97E48FEF79D
:103B400009FB07B000BD38B5044600200090FFF720
:103B500067FF607821780843E178084321790843BA
:103B6000A17808430090012220216846FFF73BFF1F
:103B700038BD70B506460C461546012D02DD44F0F1
:103B8000C00401E044F0800408216B48FEF760FBAC
:103B90002046FFF7F7FE06E00020FFF7F3FE307047
:103BA000681E85B2761C002DF6DC08216248FEF7FF
:103BB0004DFB70BD38B50446002000900122212144
:103BC0006846FFF7D6FF9DF8000000F0D000009097
:103BD000207861780843A17808439DF800100843D5
:103BE0000090012221216846FFF7FDFE38BD38B55F
:103BF000044600200090012238216846FFF7B9FFF3
:103C0000207861780843A178084300900122382188
:103C10006846FFF7E8FE38BD38B50446012220218A
:103C20006846FFF7A6FF9DF8000000F0BF00009077
:103C30009DF8000020430090012220216846FFF7F4
:103C4000D2FE38BD38B50446012220216846FFF770
:103C500090FF9DF8000000F07F0000909DF80000AC
:103C600020430090012220216846FFF7BCFE38BDAA
:103C700038B50446012220216846FFF77AFF9DF8F7
:103C8000000000F0DF0000909DF80000204300904D
:103C9000012220216846FFF7A6FE38BD08B50122A3
:103CA00021216846FFF765FF9DF8000040F04000C5
:103CB0000090012221216846FFF795FE08BD3EB520
:103CC00005460024012220216846FFF752FF062204
:103CD000292101A8FFF74DFF9DF8000010F02000FA
:103CE00002D0202820D10FE000240AE001A911F819
:103CF000140040B200EBC000400028602D1D601C85
:103D0000C4B2032CF2DB10E000240AE001A911F890
:103D1000140040B200EBC000C00028602D1D601CE4
:103D2000C4B2032CF2DB00E000BF00BF3EBD0000C8
:103D3000B0000020003001400010024000000240AE
:103D40002DE9FE4F804681EA0300C00F0C4600902B
:103D500021F0004123F00045B8EB0200A94105D253
:103D60004046214690461C460B46024623F0004042
:103D7000104304D14046214603B0BDE8F08F270D23
:103D8000C7F30A00C3F30A510290401A0190402879
:103D900066DAC3F3130040F4801B0098924620B10A
:103DA0000023D2EB030A63EB0B0B01985946C0F1D9
:103DB0004002504600F022F906460D46504659464C
:103DC000019A00F02AF910EB08006141002487EA0B
:103DD000115284EAE7731A433BD0009A3AB3019A2E
:103DE000012A4FEA075210DC001B61EB02014FF081
:103DF000004202EA0752CDE90042001C41F5801161
:103E000032462B4600F05EF9B6E7001B61EB02017B
:103E1000001C41F5801300185B412018A2F5001723
:103E200047EB030140EAD570B6196D4111E06D080A
:103E30004FEA360645EAC0754FEA0752001B61EBB0
:103E40000201001C41F5801149084FEA30000019B9
:103E5000514132462B4603B0BDE8F04F00F025B982
:103E60000098012240000023D0EB020263EBE073D4
:103E7000009821464FEAE074B8EB000061EB0401C2
:103E8000E9E783F000435BE781F0004158E72DE963
:103E9000FE4F81EA030404F0004421F00041009445
:103EA0004FF0000B23F0004350EA010402D052EA25
:103EB000030404D10020014603B0BDE8F08FC3F332
:103EC0000A54C1F30A552C44A4F2F3340194A0FB24
:103ED0000254C1F3130141F48011C3F3130343F4FB
:103EE000801301FB024400FB034E840A970A44EA54
:103EF000815447EA8357A4FB076802958D0A05FBA6
:103F000007854FEA932C04FB0C542705029D4FEACA
:103F1000065847EA1637B5EB08056EEB070C870E17
:103F2000920E47EA811742EA8312A7FB0201B6EB21
:103F30000B0164EB00042B0D43EA0C335E1844EBD9
:103F40001C50DA465146E7FB0201C5F313044FEA61
:103F50000B3343EA14534FEA0432019C43EA06034D
:103F6000A4F10C040294009CCDE900B400F0AAF87E
:103F7000A2E700F0004230F000400AD0C10D01F588
:103F80006071C0F3160042EA0151C20840071143B4
:103F9000704700200146704701F0004330B421F023
:103FA000004150EA010206D00A0DA2F56072C1F389
:103FB0001301002A02DC30BC00207047440F44EAA1
:103FC000C104C100E01830BC00EBC25000F037B8AB
:103FD00030B50B46014600202022012409E021FAD9
:103FE00002F59D4205D303FA02F5491B04FA02F5D6
:103FF0002844151EA2F10102F1DC30BD202A04DBA9
:10400000203A00FA02F1002070479140C2F12003EB
:1040100020FA03F3194390407047202A06DBCB17A0
:10402000203A41FA02F043EAE07306E041FA02F373
:10403000D040C2F120029140084319467047002940
:10404000A8BF7047401C490008BF20F0010070471E
:1040500010B4B0FA80FC00FA0CF050EA010404BF7E
:1040600010BC704749B1CCF1200421FA04F411FAD4
:104070000CF118BF012121430843A3EB0C01CB1D18
:104080000106000A002BBEBF002010BC704700EBE9
:10409000C35010440029A4BF10BC7047401C490005
:1040A00008BF20F0010010BC704710B5002B08DAE3
:1040B000401C41F1000192185B411A4301D120F0EC
:1040C000010010BD2DE9F04D92469B4611B1B1FAA9
:1040D00081F202E0B0FA80F220329046FFF78EFFC4
:1040E00004460F4640EA0A0041EA0B0153465A468D
:1040F000084303D120463946BDE8F08D114653EA06
:10410000010015D0C8F14002504600F03BF90546C9
:104110000E46504659464246FFF770FF084301D00D
:10412000012000E00020054346EAE0762C433743B7
:104130000A984FEA4453A0EB08004FEAD4240A300F
:104140004FF0000244EA47544FEAD72502D5002039
:104150000146D1E7010510196941DDE9084500195B
:104160006941BDE8F04DA0E72DE9F04D81EA030477
:1041700004F0004B21F0004514464FF0000A23F0F4
:10418000004150EA050220D054EA01021DD0C5F3D7
:104190000A570246C5F31303C1F31300C1F30A56CD
:1041A00040F4801543F48013A7EB0608101BD64695
:1041B00008F2FD3873EB050002D308F1010801E0B5
:1041C00092185B41B8F1000F03DA00200146BDE808
:1041D000F08D00204FF48011064684460EE0171B38
:1041E00073EB050705D3121B63EB050306434CEA8B
:1041F000010C49084FEA300092185B4150EA010770
:10420000EDD152EA030012D082EA040083EA0501EC
:10421000084303D100224FF0004308E0101BAB41DC
:1042200002D20122002302E06FF0010253101AEBC8
:1042300006004CEB085110EB0A0041EB0B01BDE806
:10424000F04DFFF732BF70B521F0004303430CD0AF
:10425000C1F30A550024D5EB040564EB0403D6171B
:10426000AD1AB34102DB0020014670BD201841EBBE
:10427000025170BD2DE9F04D00231A461B1A8A41E8
:1042800003DB00200146BDE8F08DC1F30A52C1F303
:10429000130141F480154FF0000BD10702D1001833
:1042A0006D41521E0027044640F2FF11384601EBD3
:1042B000620A3E468046024600204FF4801100F01C
:1042C00061F8C2197141BB1846EB0100B4EB030C55
:1042D00075EB000C04D3E41A65EB000517460E4697
:1042E000241908F101006D4180463428E3DDF919F5
:1042F00046EB0600091BA84103D24FF0FF321346DC
:1043000001E0002213461BEB070046EB0A51BDE813
:10431000F04DFFF7CABE0EB5C10F80EAE070084449
:10432000CA07002140F233438DE80E000A460B46CF
:10433000FFF7C8FE03B000BD30B5002904DB4FF025
:104340000044404264EB0101002B04DB4FF00044C9
:10435000524264EB0303994208BF904230BD000013
:10436000064C074D06E0E06840F0010394E80700C2
:1043700098471034AC42F6D3FBF70AFF086E0008EA
:10438000386E0008202A04DB203A21FA02F00021CE
:10439000704721FA02F3D040C2F120029140084355
:1043A00019467047000000000FB4054B10B503A973
:1043B000044A029801F0D2F910BC5DF814FB000029
:1043C000F71C00088800002003B401984100009801
:1043D00050EAC12018BF04204A0D18BF40F0010068
:1043E00040F2FF72B2EB515F08BF40F002000128BB
:1043F00008BF052002B0704770B59F482DED020B35
:104400002DED068B079D25F00044A0421DDC9B4846
:10441000844202DC0FD1069868B19DED060B53EC87
:10442000102B51EC100BFFF78BFCBDEC068B02B090
:1044300041EC100B70BD002DCCBF9FED910B9FED9B
:10444000920BBDEC068B02B070BD9148A04215DD09
:104450009048A042D8BF4FF0FF3440DD9DED060BE1
:1044600051EC100BFFF7B0FF042808BF01F02CF946
:104470009DED060BBDEC068B02B070BD9DED060BED
:1044800051EC100B01F04CFA41EC100B82488DED11
:10449000060B9FED838BA0423CDD8348A0421FDDCD
:1044A00000249FED839B51EC100B53EC192BFFF76D
:1044B00047FC9DED060B41EC1A0B53EC192B51EC0C
:1044C000100BFFF7E4FC53EC182BFFF7DAFC53EC6E
:1044D0001A2BFFF749FE41EC100B8DED060B49E05E
:1044E000012453EC182B51EC100BFFF729FC9DED28
:1044F000060B41EC190B53EC182B51EC100BFFF78A
:10450000C0FC53EC192BFFF72FFE41EC100B8DED87
:10451000060B2FE06848A0421FDD02249FED689B38
:1045200051EC100B53EC192BFFF7B1FC53EC182B8B
:10453000FFF706FC9DED060B41EC180B53EC192B15
:1045400051EC100BFFF79DFC53EC182BFFF70CFE02
:1045500041EC100B8DED060B0CE053EC102B0324FB
:104560009FED590B51EC100BFFF7FEFD41EC100BCA
:104570008DED060B9DED060B53EC102B51EC100B43
:10458000FFF785FC41EC180B53EC182BFFF77FFC71
:1045900041EC190B4E480621B0EE490AF0EE690ACB
:1045A000784401F012F853EC182B51EC100BFFF784
:1045B0006EFC41EC180B4748B0EE490AF0EE690A70
:1045C0000521784401F001F853EC192B51EC100B44
:1045D000FFF75DFC41EC100B51EC180B53EC102B6A
:1045E000002C0EDAFFF7ACFB9DED061B53EC112BF4
:1045F000FFF74DFC9DED061B53EC112BFFF744FC20
:1046000035E0FFF79DFB9DED061B53EC112BFFF7EB
:104610003EFC41EC100B3048784400EBC40090EDB8
:10462000001B51EC100B53EC112BFFF72AFC9DEDF6
:10463000061B53EC112BFFF724FC41EC110B274810
:10464000784400EBC40090ED000B51EC110B53ECDF
:10465000102BFFF719FC41EC100B002DA2BFBDEC95
:10466000068B02B070BD51EC100B81F0004141ECA3
:10467000100BFFE600000000000010440000F07F77
:10468000182D4454FB21F93F182D4454FB21F9BF48
:104690000000DC3F0000203E0000F33F000000006F
:1046A000000000000000F03F0000E63F00000000B6
:1046B00000000000000000400080034000000000F7
:1046C000000000000000F83F000000000000F0BF04
:1046D0002C280000E22700006C270000242700009F
:1046E00070B52DED040B2DED028B82B0DDE90534A4
:1046F000DDF81CC062422CF00041224341EAD27531
:104700005F4A049E23F00040954205D87542354328
:1047100040EAD575954210D99DED060B53EC102B50
:104720009DED040B51EC100BFFF70AFB41EC100B55
:1047300002B0BDEC028B04B070BDACF14055A5F1E8
:104740007F6525430BD0022505EAAC7545EAD37594
:1047500006439FED4D8B9FED4E2B07D010E09DED56
:10476000040B51EC100B01F0A3F839E0002D14BF3D
:10477000012D9DED040BDBD0022D34D0032D37D05D
:104780000C439FED451B9FED460B0AD0914218D17B
:10479000904209D121F0804120F08040079105909E
:1047A0000FE0002BC4DA10E03F4C7C44002D08BF22
:1047B00094ED000BBCD0012D0CD0022D13D0032D95
:1047C00016D0904219D1002BB2DAB0EE410AF0EEC9
:1047D000610AADE794ED000B51EC100B81F0004144
:1047E00041EC100BA4E7B0EE480AF0EE680A9FE730
:1047F000B0EE420AF0EE620A9AE7401A00153C2831
:1048000017DCBCF1000FBCBF10F13C0F9FED280B73
:104810000FDB9DED060B53EC102B9DED040B51ECC3
:10482000100BFFF7A1FC01F07BF801F041F841EC1F
:10483000100B002D8DED000B3FF47AAF012D10D041
:10484000022D9FED1D0B53EC102B9DED000B51EC39
:10485000100B0ED0FFF715FB53EC182BFFF711FBD5
:10486000BEE710EE900A80F0004001909DED000B35
:104870005EE7FFF706FB53EC182BFFF705FBAFE7EE
:104880000000F07F00000000182D4454FB21094077
:10489000182D4454FB2109C0182D4454FB21F9BFA5
:1048A000182D4454FB21F93F52260000000000005F
:1048B0000000000000000000075C143326A6A13CA5
:1048C0002DE9F04D2DED040B2DED0E8B94B0DDE9AF
:1048D0002350259CDDF888A025F0004624F00048F0
:1048E000BAF1000F14BF0121002101EB4502FE497E
:1048F00053184A1093422AD3002814BF01230023DF
:1049000003EB44030B44F9498B4220D358EA0001DE
:104910009FEDF78B6FD0DFF8E0B35D4503D1BAF1BF
:10492000000F05D181E0BAF1000F08BF002100D0CF
:10493000012101EB450111F5001F08D8002814BF23
:104940000121002101EB440111F5001F0AD99DED61
:10495000240B53EC102B9DED220B51EC100BFFF7A9
:10496000EFF940E00027002DBCBFE449884521DA7B
:10497000E3498845A8BF02271CDAC3451ADCE14990
:1049800001EB2851142908DDC1F1340220FA02F1AB
:1049900001FA02F282420DD108E058B9C1F11402C5
:1049A00028FA02F101FA02F2424503D101F00101B5
:1049B000C1F1020756EA0A019FEDD3AB1CD1002CCE
:1049C0001ADA002D18BF022F01D0012F07D00220C4
:1049D00000F09AFE53EC1A2B51EC180B05E1022063
:1049E00000F092FE7DE041EC100B14B0BDEC0E8B9C
:1049F00004B0BDE8F08D18E09FEDC5BB9FEDC69BF0
:104A0000002877D1BD48804522D105F1804010F5BE
:104A1000801008BFBAF1000F07D0B3450ADC002CA4
:104A2000A8BF9DED240BE0DA0DE0B0EE480AF0EEF1
:104A3000680ADAE7002C06DA9DED240B51EC100B26
:104A400081F00041CFE7B648784490ED000BCCE709
:104A5000D84553D1002C4EDA2EB1864240D1BAF15E
:104A6000000F48D12CE0BAF1000F19D0022000F05D
:104A70004BFE53EC192B51EC190BFFF708FA41ECE4
:104A8000100B8DED020B9DED220B8DED000B10EE4A
:104A9000900A039961F31E0003909DED020BA4E7B9
:104AA0008DED02BB9DED220B1BEE901A10EE900ACD
:104AB0008DED000B61F31E0003909DED020B94E75A
:104AC0008DED02AB9DED220B1AEE901A10EE900ABE
:104AD0008DED000B61F31E0003909DED020B84E74A
:104AE00009DA9DED220B51EC180B53EC102BFFF75C
:104AF0003BFB78E71DE09DED220B76E7864218DA56
:104B0000B4F1804F0DD0A4F10050B0F1FF5010D19E
:104B1000002D0EDB9DED220B51EC100B01F0A6FEDB
:104B200061E79DED220B53EC102B51EC100B00F0C4
:104B3000E1BC9DED220B51EC100B00F0F1FE41ECBD
:104B4000100BBAF1000F8DED120B34D19FED760BE7
:104B5000DEB1A6F1E040B0F17F602CD1002D01DD87
:104B6000002C0DDA002D01DD002C1FDB002D16DAE4
:104B7000002C14DB012F08BF9FED6D0B3FF435AF08
:104B8000B0EE4B0AF0EE6B0A2FE7022F18BF002D94
:104B90000CD0012F0AD1002DFFF627AF06E0002D23
:104BA000B8BF002C07DA012F3FF41FAFB0EE4A0A5E
:104BB000F0EE6A0A19E7012000EBE5700490384333
:104BC0000CD05D48002580457DDD5C495C4888450A
:104BD00013DDB0420CDB002C18DB30E0012000F0CC
:104BE00093FD53EC1A2B51EC1A0BFFF7BDFAFAE6C2
:104BF000B34502DC002C09DC21E0864202DA002CFD
:104C00001DDA03E05E452DDD002C18DD022000F0EA
:104C10007BFD53EC192B51EC190BFFF738F941ECE4
:104C2000100B1BEE900A10EE901A8DED020B8DED1D
:104C300000BB61F31E0003909DED020BD5E6022040
:104C400000F062FD00F040FD10EE901A18EE900AA0
:104C50008DED020B8DED008B61F31E0003909DED39
:104C6000020BC2E69DED220B53EC182B51EC100BFE
:104C7000FFF707F941EC100B8DED0C0B9FED320B9C
:104C800053EC102B9DED0C0B51EC100BFFF7FFF8C4
:104C90009FED2F1B53EC112BFFF7F6F89DED0C1B2E
:104CA00053EC112BFFF7F3F89FED2B1B53EC112B5B
:104CB000FFF7EAF89DED0C0B41EC1A0B53EC102BAF
:104CC00051EC100B00E08AE0FFF7E1F853EC1A2BEF
:104CD000FFF7DDF89FED220B41EC1B0B53EC102B83
:104CE0009DED0C0B40E00000FFFF1F00FFFF0F00D9
:104CF000000000000000F03F0000F03F0000F07FE7
:104D00000000404301FCFFFF000000000000000025
:104D1000000000000000F07F0000000000000070B4
:104D2000B42300000000000000000000000000802C
:104D3000000000000000F0FF0000E0410000F04330
:104D4000FFFFEF3F00000000000000000000D03F28
:104D5000555555555555D53F000000000000E03F22
:104D6000000000604715F73F51EC100BFFF78FF87C
:104D700041EC1A0B9FEDFE0B51EC1B0B53EC102B6F
:104D8000FFF785F841EC1B0B9FEDFB0B53EC102B51
:104D90009DED0C0B51EC100BFFF779F853EC1B2B2E
:104DA000FFF76FF841EC1B0B51EC1A0B53EC1B2B6C
:104DB000FEF7C6FF41EC100B53EC1A2B8DED080BE0
:104DC00008959DED080B51EC100BFFF75AF853ECCA
:104DD0001B2BFFF759F841EC100B00F0AFB9002086
:104DE000B6F5801F11DA9FEDE60B53EC102B9DED0D
:104DF000120B51EC100BFFF74AF841EC100B6FF05F
:104E0000340010EE906A8DED120BDF4900EB265056
:104E1000A0F2FF38C6F3130040F07F6646F040561C
:104E20008842D8BF002409DDD8498142C8BF012487
:104E300004DC002408F10108A6F58016D448784463
:104E400000EBC40A13969AED000B53EC102B9DED6A
:104E5000120B51EC100BFFF714F89AED000B41EC1C
:104E60001B0B53EC102B9DED120B51EC100BFEF7AE
:104E700067FF41EC100B51EC180B53EC102BFFF7B4
:104E800073F941EC1C0B51EC1B0B53EC1C2BFEF784
:104E9000FEFF41EC1A0BBF488DED0AAB78440A9532
:104EA00090ED000B4FF0005040EA660000EB8440AC
:104EB0008DED100B00F5002011909AED000B53ECD6
:104EC000102B9DED100B51EC100BFEF7DAFF9DED52
:104ED000121B53EC112BFEF7D7FF41EC100B53ECD8
:104EE000102B9DED0A0B51EC100BFEF7D0FF9DED42
:104EF000100B41EC1D0B53EC102B9DED0A0B51ECEC
:104F0000100BFEF7C4FF53EC1B2BFEF7BDFF53EC59
:104F10001D2BFEF7B6FF53EC1C2BFEF7B8FF41EC40
:104F20001C0B53EC1A2B51EC1A0BFEF7B0FF41ECA3
:104F30001B0B99480621B0EE4B0AF0EE6B0A784441
:104F400000F043FBB0EE40DAF0EE60DA53EC1B2BDE
:104F500051EC1B0BFEF79BFF53EC1D2BFEF797FF4D
:104F60009DED0A0B41EC1B0B53EC1A2B51EC100B73
:104F7000FEF7E6FE53EC1C2BFEF789FF53EC1B2BD0
:104F8000FEF7DEFE9DED0A0B41EC1D0B53EC102BE2
:104F900051EC100BFEF77BFF41EC1B0B9FED80EB00
:104FA00053EC1E2BFEF7CCFE53EC1D2BFEF7C8FE78
:104FB00041EC100B53EC1E2B8DED100B10959DED5D
:104FC000100B51EC100BFEF75CFF53EC1B2BFEF7A4
:104FD00058FF53EC1D2BFEF757FF9DED100B41ECD6
:104FE0001D0B53EC102B9DED0A0B51EC100BFEF733
:104FF0004EFF41EC1B0B53EC1A2B51EC1D0BFEF733
:1050000046FF9DED100B41EC1A0B53EC102B51ECAD
:105010001C0BFEF73CFF53EC1A2BFEF791FE41EC04
:105020001A0B51EC1B0B53EC1A2BFEF789FE41ECCB
:10503000100B53EC1B2B8DED0A0B0A959DED0A0B03
:1050400051EC100BFEF71DFF53EC1A2BFEF71CFF63
:1050500041EC1A0B9FED540B53EC102B9DED0A0BFA
:1050600051EC100BFEF713FF41EC1B0B9FED500BA7
:1050700051EC1A0B53EC102BFEF709FF41EC1A0B05
:105080009FED4D0B53EC102B9DED0A0B51EC100BCB
:10509000FEF7FDFE53EC1A2BFEF752FE41EC100B0F
:1050A0004748784400EBC40090ED001B51EC100B16
:1050B00053EC112BFEF744FE41EC1A0B4046FFF770
:1050C0002AF941EC100B53EC1A2B8DED0C0B51EC23
:1050D0001B0BFEF735FE41EC100B3A48784400EB11
:1050E000C40451EC100B94ED001B53EC112BFEF794
:1050F00027FE9DED0C1B53EC112BFEF721FE41EC1E
:10510000100B8DED080B08959DED0C0B53EC102B3F
:105110009DED080B51EC100BFEF7B3FE94ED000B68
:1051200053EC102BFEF7ADFE53EC1B2BFEF7A9FE44
:1051300053EC1A2BFEF7A8FE41EC100B0498791ED5
:10514000B0EE48BAF0EE68BA084308BF9FED1E8B78
:105150009DED241B53EC102B8DED001B00959DED58
:10516000240B51EC100BFEF792FE41EC1A0B2FE0D2
:10517000FE822B654715F73F44DF5DF80BAE543ECA
:1051800000000000000040438E9803007AB60B0038
:105190009E1E0000601F0000CE1D000000000000E9
:1051A0000000000000000840000000E009C7EE3FDA
:1051B000FD033ADC09C7EE3FF5015B14E02F3EBE6C
:1051C0005A1C0000101C0000000000000000F0BF8E
:1051D0009DED000B53EC102B9DED240B51EC100BAF
:1051E000FEF74FFE9DED081B53EC112BFEF74FFE13
:1051F00053EC1A2BFEF7A4FD9DED080B41EC1A0BA6
:1052000053EC102B9DED000B51EC100BFEF73FFE05
:1052100041EC100B51EC1A0B8DED0A0B53EC102BDB
:10522000FEF78EFD41EC100BB54910EE904A10EEE2
:10523000100A8DED020B8C4235DB611A084318D140
:105240009DED0A0B53EC102B9DED020B51EC100B56
:10525000FEF717FE41EC1C0B9FEDAB0B51EC1A0B4C
:1052600053EC102BFEF76CFD53EC1C2BFFF764F88E
:1052700033D2022000F048FA53EC192B51EC190BF1
:10528000FEF705FE41EC100B18EE900A10EE901A96
:105290008DED020B8DED008B61F31E0003909DEDF3
:1052A000020BFFF7A2BB9A4A24F00041914214D3AB
:1052B0009849214408437FF4C2AC9DED0A0B53EC9E
:1052C000102B9DED020B51EC100BFEF7DAFD53ECA9
:1052D0001A2BFFF731F87FF6B2AC24F000408E496C
:1052E0008E4A002601EB20519042D8BF9DED0A0B5B
:1052F0002DDD481C4FF4801121FA00F02044C0F34A
:105300000A51874AA1F2FF317A4492ED000B854A97
:105310008DED0C0BCA4020EA0202C0F3130040F4EA
:105320008010C1F1140120FA01F60D92002CB8BFD3
:1053300076429DED0C0B53EC102B9DED0A0B51ECBE
:10534000100BFEF79EFD41EC100B8DED0A0B53EC9C
:10535000102B51EC1A0BFEF7F3FC41EC100B8DED0A
:105360000C0B9FED710B0C9553EC102B9DED0C0B62
:1053700051EC100BFEF78BFD41EC190B9FED6C0B04
:1053800053EC102B9DED0C0B51EC100BFEF77FFD39
:105390009DED0A0B41EC1C0B53EC102B9DED0C0BFF
:1053A00051EC100BFEF76DFD53EC1A2BFEF76CFD64
:1053B0009FED611B53EC112BFEF769FD53EC1C2B89
:1053C000FEF7BEFC41EC1A0B51EC190B53EC1A2BF7
:1053D000FEF7B6FC41EC100B53EC192B8DED020BD4
:1053E000FEF74FFD53EC1A2BFEF74EFD9DED020B21
:1053F00041EC190B53EC102B51EC100BFEF747FD51
:1054000041EC100B4E488DED0C0B0521784400F05B
:10541000DCF89DED0C1B51EC100B53EC112BFEF73F
:1054200036FD9DED021B53EC112BFEF72DFD41ECDB
:10543000100B53EC192B8DED080B9DED020B51EC6D
:10544000100BFEF724FD53EC192BFEF779FC9FEDB2
:105450003E0B41EC1A0B53EC102B9DED080B51EC5D
:10546000100BFEF70EFD9DED080B41EC190B53ECF4
:10547000102B9DED020B51EC100BFEF708FD53ECC9
:10548000192BFEF771FE53EC1A2BFEF7FAFC9DED7B
:10549000021B53EC112BFEF7F4FC53EC1B2BFEF715
:1054A000F3FC41EC100B10EE900A8DED020B00EBBB
:1054B000065001150029C4BF03909DED020B15DCB9
:1054C000324651EC100BFEF7BEFEFEF77DFF0428BE
:1054D00008BF00F0F9F832469DED020B51EC100BBD
:1054E000FEF7B1FE41EC100B8DED020B53EC102BCF
:1054F00051EC180BFEF7CBFCFFF775BA000000006B
:105500000000904000000000FE822B654715973C8C
:1055100000CC904000346F3F01FCFFFF0000E03FF3
:10552000F41A0000FFFF0F0000000000432EE63FCA
:10553000396CA80C615C20BEEF39FAFE422EE63FC2
:1055400030190000000000000000000000000040D2
:1055500000B52DED048BB0EE408AF0EE608A83B08A
:1055600051EC180BFEF786FE41EC190B19EE100AF0
:1055700019EE901A8DED009B002818BF01200843FA
:1055800020F00040C0F17F6000F1E040C00F14D077
:1055900018EE101A18EE900A8DED008B002918BF36
:1055A0000121084320F00040C0F17F6000F1E0409D
:1055B000C00F04BF012000F0A7F8B0EE490A03B005
:1055C000F0EE690ABDEC048B00BD70B504462DED0C
:1055D000028B4D1E00EBC500B0EE408AF0EE608AF3
:1055E00090ED000B35F0060017D053EC182B51EC62
:1055F000100BFEF74CFC41EC100B6D1E04EBC500CC
:1056000090ED001B51EC100B53EC112BFEF798FBA7
:1056100041EC100B35F00600E7D1022D36D0042DF9
:105620001CD0062D1CBFBDEC028B70BD53EC182B9B
:1056300051EC100BFEF72BFC94ED0A1B53EC112BD5
:10564000FEF77EFB53EC182BFEF721FC94ED080BC4
:1056500053EC102BFEF774FB41EC100B53EC182BA2
:1056600051EC100BFEF713FC94ED060B53EC102BD2
:10567000FEF766FB53EC182BFEF709FC94ED041BB8
:1056800053EC112BFEF75CFB41EC100B53EC182B89
:1056900051EC100BFEF7FBFB94ED020B53EC102BBF
:1056A000FEF74EFB53EC182BFEF7F1FB94ED000BCD
:1056B00053EC102BFEF744FBBDEC028B41EC100BBE
:1056C00070BD0000000000009FED050B10B553EC0D
:1056D000102B51EC100BFEF7DAFB41EC100B10BD58
:1056E000000000000000001002E008C8121F08C1FE
:1056F000002AFAD170477047002001E001C1121F53
:10570000002AFBD170470000014908607047000083
:10571000D000002010B5002A06DA22F00042D21D87
:1057200022F00703102203E0D21C22F003030C2214
:1057300013B19C188C4201D9012010BD02440144D0
:105740008360C0E90021C91AD018884202D81060CD
:105750000246F9E70020106010BD00002DE9FF4F60
:1057600089B09B460446002597E0252833D10027C1
:10577000641C4E49B84601222378203B02FA03F00C
:10578000084202D00743641CF6E720782E2819D17E
:1057900014F8010F47F004072A280ED06FF02F02EB
:1057A0002078A0F1300109290CD808EB880102EB20
:1057B000410100EB0108641CF2E70A98641C50F8F0
:1057C000048B0A90207800286BD0642808D06928C0
:1057D00006D0752820D05A460B9990476D1C5BE087
:1057E0000A994FF00A0901C90A91002804DAC0F1A8
:1057F00000004FF02D0102E0390504D52B218DF872
:105800002010012103E0F90704D02021F7E78A46A0
:1058100008AE0EE00021FAE70A994FF00A0901C923
:105820000A91F7E74946FEF7D3FB01F1300106F88C
:10583000011D0028F6D1ADEB060000F12009780724
:1058400001D44FF00108C84502DDA8EB090000E0D3
:1058500000208046002706E008A85A46C05D0B9944
:1058600090476D1C7F1C5745F6DB04E030205A46FC
:105870000B9990476D1CB8F10001A8F10108F5DC07
:1058800005E016F8010B5A460B9990476D1CB9F1CB
:105890000001A9F10109F4DC641C207800287FF4E0
:1058A00064AF0DB02846BDE8F08F00000928010064
:1058B00010B541EC100BFEF79FFD51EC100B10BD25
:1058C00008480068C0010BD507480068C00707D02A
:1058D000054880380068002802DA04490120087071
:1058E00070470000FCED00E0800E00E0C6000020E4
:1058F0004FF06042D36F002BFCD0C36AD367D36FE5
:10590000002BFCD0C07840EA0120A2F87C00704750
:105910004FF06041CA6F002AFCD081F87C007047CC
:1059200041EC100B82B010EE900A8DED000B20F0D0
:10593000004001909DED000B02B051EC100B704740
:1059400070B504000D4603D012B92078012801D0AB
:10595000802070BD204600F00BFB28B12946204670
:1059600000F040F8002070BD812070BD024608485C
:1059700010B500EB810050F8040C002806D0114649
:1059800000F0D4FCBDE8104000F0C0BC10BD000029
:105990005428001010B504468089002821D0608961
:1059A00004EB8000006908606078022805D10021BE
:1059B000204600F0BBFC00F0A9FC04F10C0000BF85
:1059C000D0E85F1F491EC0E8521F002AF8D1608945
:1059D000401C80B26081E189884201D10020608151
:1059E000042010BD10B500F0A1FCBDE8104000F08F
:1059F0008DBC0000EFF3058109B182207047DFF80C
:105A000008C000DF70470000DB680008EFF3058284
:105A10000AB182207047EFF31482144B12F0030294
:105A200006D0012A1BD0022A11D0032A19D113E073
:105A3000EFF3088282F309881A78D2070AD002228B
:105A400082F31488BFF34F8FBFF36F8F09E01A788A
:105A5000D20706D10322F3E71A78D20701D0FF203C
:105A60007047DFF80CC000DF70470000506C000882
:105A7000F16800082DE90E40EFF30582B2B1020093
:105A80004FF0800000D021B10090DDE9011203B099
:105A900000BD11780129F7D101A91046FFF77AFF5F
:105AA000042801D00020EFE71020EDE7DFF804C064
:105AB00000DFECE7E9690008EFF3058109B1002098
:105AC0007047DFF808C000DF70470000236A000855
:105AD000EFF3058109B182207047DFF808C000DFCD
