:020000040800F2
:1000000010050020250500082D0500082F05000813
:100010003105000833050008350500080000000020
:1000200000000000000000000000000009020008BD
:100030003905000800000000AD0200080D030008AB
:100040003F0500083F0500083F0500083F05000880
:100050003F0500083F0500088B050008690D0008F2
:100060003F0500083F0500083F0500083F05000860
:100070003F0500083F0500083F0500083F05000850
:100080003F0500083F0500083F0500083F05000840
:100090003F0500083F0500083F0500083F05000830
:1000A0003F0500083F0500083F0500083F05000820
:1000B00095050008AB0500083F0500083F0500084E
:1000C0003F0500083F0500083F0500083F05000800
:1000D0003F0500083F0500083F0500083F050008F0
:1000E0003F0500083F0500083F0500083F050008E0
:1000F0003F0500083F0500083F0500083F050008D0
:100100003F0500083F0500083F0500083F050008BF
:100110003F0500083F0500083F0500083F050008AF
:100120003F0500083F0500083F0500083F0500089F
:100130003F0500083F0500083F0500083F0500088F
:100140003F0500083F0500083F0500083F0500087F
:100150003F0500083F0500083F0500083F0500086F
:100160003F0500083F0500083F0500083F0500085F
:100170003F0500083F0500083F0500083F0500084F
:100180003F0500083F050008DFF814D003F01AF817
:100190000021024803F088FDFEE70000B44E00088D
:1001A0001005002080F309887047684680F30988AD
:1001B00004480078C00714BF0220032080F314888D
:1001C000704700007C4E0008DFF818C0EFF305838D
:1001D0001B0618BF6047EFF31483DB0708BF6047B7
:1001E00000DF7047513E0008DFF818C0EFF30583C9
:1001F0001B0618BF6047EFF31483DB0708BF604797
:1002000000DF7047D1400008EFF30980816911F8E1
:10021000021C002933D190E80F1010B5E047BDE86B
:100220001040EFF3098C8CE807001D4B93E80600A3
:10023000914208BF704781B11EF0100F06BF2CED30
:10024000108A0120002081F820002CE9F00FC1F86D
:1002500024C00CB404F0AEFA0CBC1A60D2F824C06E
:10026000BCE8F00F92F8200000281ABFBCEC108AFE
:100270006FF0120E6FF0020E8CF30988704710B504
:10028000084A1268914209D8074C54F8214090E876
:100290000F10A047EFF3098C8CE80F0010BD000091
:1002A000700000204C3200084C32000810B504F0F9
:1002B0003FF9BDE81040174B93E80600914208BF94
:1002C0007047EFF3098C1EF0100F06BF2CED108A5B
:1002D0000120002081F820002CE9F00FC1F824C093
:1002E0000CB404F067FA0CBC1A60D2F824C0BCE865
:1002F000F00F92F8200000281ABFBCEC108A6FF0B3
:10030000120E6FF0020E8CF30988704710B504F0DE
:1003100017FBCEE7700000200CB500200190009084
:100320007548006840F480307349086000BF724827
:10033000006800F4003000900198401C0190009883
:1003400018B90198B0F5A06FF1D16B48006810F4AE
:10035000003F02D00120009001E0002000900098B2
:10036000012845D164484030006840F0805062491F
:10037000403108606148006840F480405F4908608F
:100380005D48083000685C4908310860084600682C
:1003900040F4004008600846006840F4A05008603F
:1003A0005748091F0860081F006840F08070091F47
:1003B000086000BF5048006810F0007FFAD040F29B
:1003C0000560504908604C480830006820F0030080
:1003D0004949083108600846006840F0020008609A
:1003E00000BF45480830006800F00C000828F8D12C
:1003F0000CBD10B54448006840F4700042490860E4
:100400003D48006840F001003B49086000203A493F
:1004100008310860384800683C490840364908609F
:100420003B48091D0860081F006820F48020091F50
:100430000860002030490C310860FFF76DFF4FF075
:10044000006031498039086010BD70B5002000227D
:10045000022300240221284D08352D6805F00C00E8
:1004600020B1042806D0082834D107E0294D2A4EAF
:10047000356033E0294D284E35602FE01E4D2D1D8F
:100480002D68C5F380541C4D2D1D2D6805F03F01CE
:1004900054B1224DB5FBF1F5174E361D3668C6F343
:1004A000881605FB06F209E01A4DB5FBF1F5124E70
:1004B000361D3668C6F3881605FB06F20E4D2D1D57
:1004C0002D68C5F301456D1C6B00B2FBF3F5124EB0
:1004D000356003E00F4D104E356000BF00BF064D84
:1004E00008352D68C5F303150D4E705D0A4D2D6856
:1004F000C540094E356070BD0038024000700040B4
:1005000008544007003C024088ED00E0FFFFF6FE83
:10051000103000240024F4000000002000127A00B3
:10052000040000200648804706480047FEE7FEE733
:10053000FEE7FEE7FEE7FEE7FEE7FEE7FEE7FEE793
:10054000F30300088901000800BFFEE700BFFEE7D3
:1005500010B500F057F800F004FA00F09DF800F034
:10056000CDF800F00BFD0021214803F03DFC2149AE
:1005700008600021204803F037FC2049086010BDC6
:1005800010B5FFF7E5FF002010BD10B5012000F009
:1005900026FF10BD10B50121880702F0D1FA012114
:1005A0001448006803F0FAFB10BD10B5012114488F
:1005B00002F0C6FA01211148006803F0EFFB10BDFC
:1005C0000EB508E04FF0FF31012003F001FC8DE88B
:1005D000070000F024F8F5E70EB508E04FF0FF3112
:1005E000012003F0F5FB8DE8070000F0DAFDF5E7E8
:1005F000C44E000828000020D44E00082C00002023
:100600000004004010B513A002F022FE002017499C
:100610000870174803F09EFB1649086010BD10B51E
:100620004FF0FF311348006803F0ACFB0F4804782B
:100630001048006803F09AFB14B1012C08D106E0C1
:1006400000F0CBF94FF4FA7003F022FB00E000BF9A
:1006500000BF10BD5B494E464F5D20696E697469ED
:10066000616C697A6546534D28290A0034000020E0
:10067000E44E00083000002008B51C208DF8000072
:1006800000208DF8010001208DF802008DF8030094
:10069000684600F0B2FD08BD0EB5FFF7EDFF012181
:1006A000084601F08CF949F64040ADF80000002002
:1006B000ADF80200142001900020ADF80800694652
:1006C0004FF0804001F073FD01221146900702F0C7
:1006D0000FFA0121880701F0F3FD0EBD08B51D20BA
:1006E0008DF8000000208DF8010001208DF8020037
:1006F0008DF80300684600F080FD08BD0EB5FFF7D9
:10070000EDFF0121022001F05AF949F64040ADF811
:1007100000000020ADF80200542001900020ADF848
:1007200008006946064801F042FD012211460448CE
:1007300002F0DEF90121024801F0C2FD0EBD000009
:10074000000400401149096811F0010F0ED00F4953
:100750008039096811F0010F08D000BF4FF06041E7
:1007600009680029FAD04FF060421070704770B5E8
:1007700004460D462046FFF7E5FF70BD10B5044660
:100780002046FFF7DFFF10BD00BFFEE7800E00E050
:100790001CB50121042001F012F90121082001F00B
:1007A000DBF84FF47040009002208DF80400032025
:1007B0008DF8050000208DF806008DF807006946C9
:1007C0009F4800F083FE02220C219D4800F009FFA3
:1007D00002220D219A4800F004FF02220E219848BF
:1007E00000F0FFFE02220F21954800F0FAFE1CBD2A
:1007F000F0B52DED0A8B8DB009A801F018F80B9813
:10080000450029468FA002F023FD44F620643227DC
:1008100017FB04F0B5FBF0F6284602F04DFB41EC67
:10082000100BB0EE40BAF0EE60BA53EC1B2B9FED0C
:10083000910B51EC100B02F0D0FA41EC100BB0EE22
:10084000409AF0EE609A304602F036FB41EC100B15
:10085000B0EE40BAF0EE60BA204602F02DFB41EC5B
:10086000100BB0EE40CAF0EE60CA53EC1B2B51ECFB
:100870001C0B02F040FA41EC100BB0EE40AAF0EE77
:1008800060AA53EC192B51EC1A0B02F034FA41EC2C
:10089000100BB0EE408AF0EE608A33463A462146AD
:1008A000764802F0D5FC53EC182B75A002F0D0FC72
:1008B000FFF76EFF601E0790701E80B2ADF8180043
:1008C0000020ADF82000ADF81A0006A9794801F023
:1008D0006EFC6020ADF804000020ADF8100001208F
:1008E000ADF8060040F2DC50039001A9714801F018
:1008F000F3FC08216F4801F07CFE0120ADF80600F2
:1009000040F2DC50039001A96A4801F01EFD082165
:10091000684801F077FE0120ADF806000020039042
:1009200001A9644801F05EFD0821624801F077FEEC
:100930000120ADF806000020039001A95D4801F0F8
:10094000B7FD08215B4801F073FE0121594801F011
:1009500099FC0121574801F0B3FC0DB0BDEC0A8BA6
:10096000F0BD10B5544803F0F5F9544908605448F7
:1009700003F0F0F953490860FFF73AFF10BD10B5D6
:1009800004464FF0FF314D48006803F0FBF94E4834
:1009900004604A48006803F0E9F910BD10B5044648
:1009A0004FF0FF314748006803F0ECF94748046016
:1009B0004448006803F0DAF910BD014611F15A0FFE
:1009C00001DB5A2902DD40F2DC50704701EB810067
:1009D000400000F2DC521046F7E72DE9F0414FF0FD
:1009E000FF313648006803F0CDF9374804683348D2
:1009F000006803F0BBF94FF0FF313248006803F0A4
:100A0000C1F9324805682F48006803F0AFF92A465B
:100A100021462FA002F01CFC2046FFF7CEFF064621
:100A20002846FFF7CAFF07463A46314632A002F091
:100A30000FFC204834300660001D0760BDE8F081DF
:100A4000000C02405B494E464F5D205468652066AD
:100A500072657175656E6379206F66204148423119
:100A6000202850434C4B31292069732025692048A8
:100A70007A0A0000000000000000F03F044F000868
:100A80005B494E464F5D2054686520706572696F02
:100A900064206F66207468652050574D2073696725
:100AA0006E616C206973202566207365636F6E64C8
:100AB000732E0A0000080040FC4E00084800002089
:100AC000004F00084C00002040000020440000209F
:100AD0005B494E464F5D20526F6C6C3D256920612D
:100AE0006E642050697463683D25692028646567D9
:100AF00072656573290A00005B494E464F5D2052BE
:100B00006F6C6C3D256920616E6420506974636868
:100B10003D256920286D6963726F7365636F6E642C
:100B200073290A0010B50F21994800F04DFD70217E
:100B3000974800F049FD9748006820B1012807D088
:100B400002280FD109E01021914800F03BFD00BFC1
:100B500020218F4800F036FD00BF40218C4800F076
:100B600031FD00BF00BF10BD10B58A4800680228E3
:100B700005DA88480068401C8649086002E00020C9
:100B800084490860FFF7CEFF10BD10B582480068A9
:100B9000032805DA80480068401C7F49086004E0AB
:100BA00000207D490860FFF7DFFF10BD10B5002170
:100BB000012001F017FA7848006830B1012809D007
:100BC00002280CD0032814D10EE00021012001F0EE
:100BD00009FA00BF0121084601F004FA00BF022112
:100BE000012001F0FFF900BF0321012001F0FAF913
:100BF00000BF00BF10BD10B5FFF794FFFFF7D6FF91
:100C0000012003F045F8FFF7C0FF10BD00B587B025
:100C100062A002F01DFB0121022000F09DFE05A84C
:100C200000F09CFC0F20059000208DF81800022099
:100C30008DF8190000208DF81A0002208DF81B0095
:100C400005A9534800F042FC0121880300F0C8FECA
:100C50000121022000F080FE03A800F07FFC70203C
:100C6000039001208DF8100002208DF81100002063
:100C70008DF8120002208DF8130003A9444800F0FB
:100C800025FC0021012001F0ADF902200190002097
:100C90008DF8080008208DF8090001208DF80A0061
:100CA00001A800F025FB06208DF8000000208DF83B
:100CB000010001208DF802008DF80300684600F065
:100CC0009CFA002033490860334908600F213048FE
:100CD00000F07AFC70212E4800F076FCFFF78BFFC5
:100CE00007B000BD2B48006820B1012815D00228AC
:100CF00038D125E02848006830B1012806D0022804
:100D000006D0032808D105E0312070473420FCE7E5
:100D10003720FAE72A20F8E700BF1F48006830B103
:100D2000012806D0022806D0032808D105E0322089
:100D3000EBE73520E9E73820E7E73020E5E700BFBB
:100D40001548006830B1012806D0022806D00328D3
:100D500008D105E03320D8E73620D6E73920D4E79C
:100D60002320D2E75820D0E710B5022000F026FB60
:100D700048B1FFF7B7FF0446214610A002F068FA19
:100D8000022000F02CFB022000F014FB10BD00003C
:100D90000004024050000020540000200A5B494E2D
:100DA000464F5D206B657970616420696E6974617E
:100DB0006C697A6174696F6E000000002025632001
:100DC0000000000000BFFEE770B50446FE4805883D
:100DD00005E02800A5F1010501D1FFF7F3FF02218D
:100DE000FA4801F0B6F80028F3D02146F74801F0A0
:100DF00079F8F548058805E02800A5F1010501D13D
:100E0000FFF7E0FF0121F14801F0A3F80028F3D03B
:100E1000EE4801F064F8C0B270BD70B504464FF4FE
:100E20008051EB4800F0D0FB2046FFF7CDFF054690
:100E30004FF48051E64800F0C5FB284670BD2DE90F
:100E4000F047074688461546012D01DD402600E0A3
:100E500000264FF48051DE4800F0B6FB48EA060059
:100E6000FFF7B2FF8146002404E0385DFFF7ACFFD6
:100E70008146641CAC42F8DB4FF48051D44800F04A
:100E8000A1FB4846BDE8F08700B587B00121880383
:100E900000F095FD0121022000F05EFD01210220FD
:100EA00000F05AFD05220D21C94800F09AFB0522E9
:100EB0000E21C74800F095FB05220F21C44800F021
:100EC00090FB02208DF8180000208DF819008DF895
:100ED0001A0002208DF81B000003059005A9BC48EC
:100EE00000F0F4FA4FF48040059005A9B84800F0EE
:100EF000EDFA4FF40040059005A9B54800F0E6FA78
:100F0000B24800F067FE0020ADF80000ADF8040024
:100F1000ADF80600ADF808004FF40070ADF80A0017
:100F20001820ADF80C000020ADF80E000720ADF839
:100F300010004FF48270ADF802006946A34800F03B
:100F40006FFE0121A14800F04CFF01208DF8180030
:100F500000208DF819008DF81A004FF4805005908C
:100F600001208DF81B0005A9994800F0AFFA4FF455
:100F70008051974800F026FB07B000BD1FB5FFF772
:100F800083FF29208DF80000012200216846FFF729
:100F900056FF06208DF80000012202216846FFF767
:100FA0004EFF07208DF80000012203216846FFF75D
:100FB00046FF02208DF8000008208DF80100042073
:100FC0008DF8020000208DF803008DF804000C203D
:100FD0008DF8050000208DF806005D208DF80700D3
:100FE00094208DF8080002208DF809000E208DF85D
:100FF0000A003B208DF80B0073208DF80C00422076
:101000008DF80D00F8208DF80E0000208DF80F00EF
:10101000102206216846FFF712FF02208DF800001B
:1010200018208DF801001D208DF802001C208DF87D
:101030000300C7208DF8040040208DF80500B02083
:101040008DF80600072217216846FFF7F8FEB62044
:101050008DF8000010208DF80100EA208DF80200C4
:101060000A208DF8030000208DF8040019208DF867
:101070000500062221216846FFF7E1FE59208DF880
:101080000000012229216846FFF7D9FE88208DF84B
:10109000000031208DF801000B208DF802000322A2
:1010A0002C216846FFF7CBFE3620FFF7B6FE3A202C
:1010B000FFF7B3FE3B20FFF7B0FE1FBD2DE9F04167
:1010C0000646884614461F462FB9012C01DDC0256F
:1010D00004E0802502E0012F00D1C0254FF48051AB
:1010E0003B4800F071FA48EA0500FFF76DFE06E0A4
:1010F0000020FFF769FE3070601E84B2761C002C61
:10110000F6DC4FF48051324800F05CFABDE8F08123
:1011100070B504460D4601231A4629462046FFF7BE
:10112000CDFF70BD70B504460D461646002332460D
:1011300029462046FFF7C2FF70BD10B504464FF4A4
:101140008051234800F040FABF20FFF73DFE002009
:10115000FFF73AFE2070641CBF20FFF735FE002029
:10116000FFF732FE20704FF48051194800F02AFA40
:1011700010BD38B53B216846FFF7CAFF9DF8000057
:10118000022805DB9DF80000FF2801DA012406E0B3
:101190009DF80000FF2801DB002400E00024204629
:1011A00038BDF8B53420FFF738FE35216846FFF723
:1011B000AFFFFFF7DEFF0646012E17D16846FFF7A7
:1011C000BCFF9DF8000005E05800002000380040FA
:1011D00000040240A0F15A059DF80100A0F15A0454
:1011E0002846FFF7CCFB2046FFF7D8FBF8BD0000F0
:1011F00033490143334A1160704770B50021002321
:101200000F22C47824B32F4C246804F4E064C4F59E
:10121000E064C4F30721C1F10404E3B20A41447855
:101220009C40E1B28478144021430C07210E264CE7
:1012300005786155047804F01F050124AC40057859
:101240006D114FF0E02606EB8505C5F8004109E079
:10125000047804F01F040125A5401C4C0678761183
:1012600044F8265070BD1A4A0A400243154B1B1F12
:101270001A60704739B1134A121D12680243114BAC
:101280001B1D1A6006E00F4A121D126882430D4BA7
:101290001B1D1A607047042808D14FF0E02109692E
:1012A00041F004014FF0E022116107E04FF0E0212E
:1012B000096921F004014FF0E0221161704700003C
:1012C0000000FA050CED00E000E400E080E100E041
:1012D00080FFFF1F002044490860091D0860091DA8
:1012E0000860091D086041483F4914310860704793
:1012F00000213D498279002A3AD00A4612680368E3
:101300009A430B461A600A1D126803689A430B1D24
:101310001A60027911440A6803681A430A60324A63
:101320000832126803689A432F4B08331A601A1D5B
:10133000126803689A432C4B0C331A604279102AC6
:101340000ED11A1F126803681A43274B08331A601C
:101350001A1D126803681A43234B0C331A600DE000
:101360002149427911440A6803681A430A6005E07A
:10137000027911440A6803689A430A6070470021A1
:10138000016001710C214171002181717047164982
:10139000103109680143144A103211607047014648
:1013A0000020114A143212680A4201D0012000E0E4
:1013B000002070470C491431086070470146002036
:1013C0000022094B1B6803EA0102074B14331B6818
:1013D0000B4202D00AB1012000E000207047024910
:1013E0001431086070470000003C0140FFFF7F009F
:1013F00010B504468C48844208D10121084600F00B
:1014000000FB0021012000F0FCFA5EE087488442E6
:1014100008D10121022000F0F4FA0021022000F09E
:10142000F0FA52E08248844208D10121042000F001
:10143000E8FA0021042000F0E4FA46E07D48844206
:1014400008D10121082000F0DCFA0021082000F07A
:10145000D8FA3AE07848844208D10121102000F0FF
:10146000D0FA0021102000F0CCFA2EE0734884421C
:1014700008D10121202000F0C4FA0021202000F032
:10148000C0FA22E06E48844208D10121402000F0D9
:10149000B8FA0021402000F0B4FA16E0694884420E
:1014A00008D10121802000F0ACFA0021802000F05A
:1014B000A8FA0AE06448844207D10121801500F0AF
:1014C000A0FA0021A01500F09CFA10BDF0B50A4664
:1014D00000210023002400BF3DE0012505FA01F3AF
:1014E000156805EA03049C4234D105684F000326C1
:1014F000BE40B543056015794E00B54006683543DA
:1015000005601579012D02D01579022D16D1856857
:101510004F000326BE40B543856055794E00B54067
:10152000866835438560456801268E40B543456031
:10153000456896798E40B6B235434560C5684F0020
:101540000326BE40B543C560D5794E00B540C66898
:101550003543C560491C1029BFD3F0BD4FF6FF715C
:1015600001600021017141718171C171704708B53D
:101570004FF480320092009A0A430092009AC261AE
:10158000C161009AC261C2690092C269009208BD3D
:101590000246002013690B4201D0012000E0002028
:1015A00070470146086980B27047024600205369BF
:1015B0000B4201D0012000E000207047014648693D
:1015C00080B2704701837047418370470AB101833D
:1015D00000E0418370474161704742694A4042617F
:1015E0007047F0B5002300244D07ED0E02FA05F315
:1015F000CE1000F1200555F826504E07F70E0F26A5
:10160000BE40B543CF1000F1200646F82750CE105B
:1016100000F1200555F8265045EA0304CE1000F1EC
:10162000200545F82640F0BD0000024000040240BD
:1016300000080240000C024000100240001402406A
:1016400000180240001C024000200240FA480068D6
:1016500040F00100F84908600020F74908310860AF
:10166000F5480068F5490840F3490860F448091D49
:101670000860081F006820F48020091F086000200F
:10168000ED490C31086070470021EB4A921C117043
:1016900011460870704710B5014600220023002053
:1016A0004A11012A02D1E44C236808E0022A03D13E
:1016B000E14C7034236802E0DF4C7434236801F09D
:1016C0001F02012494401C4201D0012000E00020B0
:1016D00010BD38B5002000900024002500BF312047
:1016E000FFF7D9FF05460098401C00900098B0F520
:1016F000A06F01D0002DF2D03120FFF7CCFF08B150
:10170000012400E00024204638BD01460020CA4ADA
:10171000106820F0F80040EAC10010607047C94925
:10172000086070470021C44A70321170117001289E
:1017300002D004280AD104E00121BF4A703211709E
:1017400005E00521BC4A7032117000E000BF00BF07
:101750007047BD490860704770B5049C41EA821526
:101760000126C6EB530645EA0645054345EA0465EE
:10177000B14E361D356070BDB249086670478201B2
:1017800042EA0172AC4B84331A607047AD498866F7
:101790007047AC49C864704702460020A64B083326
:1017A000186820F0EC6042EA01031843A24B0833AA
:1017B00018607047024600209F4B0833186820F0DD
:1017C000784042EA010318439B4B08331860704786
:1017D00001460020984A0832106820F003000843B0
:1017E0001060704794480830006800F00C007047A3
:1017F00001460020904A0832106820F0F0000843AB
:1018000010607047014600208B4A0832106820F4AF
:10181000E05008431060704701460020864A0832B5
:10182000106820F4604040EAC10010607047F0B5D5
:101830000021002200240225002602237E4F0837C3
:101840003F6807F00C0121B1042905D0082937D1E0
:1018500005E07E4F076036E07D4F076033E0764F4E
:101860003F1D3F68C7F38056734F3F1D3F6807F029
:101870003F036EB1764FB7FBF3F7DFF8BCC10CF155
:10188000040CDCF800C0CCF3881C07FB0CF40CE063
:101890006E4FB7FBF3F7DFF8A0C10CF1040CDCF8D6
:1018A00000C0CCF3881C07FB0CF4634F3F1D3F685E
:1018B000C7F301477F1C7D00B4FBF5F7076002E02A
:1018C000624F076000BF00BF5B4F08373F6807F0FB
:1018D000F00109095F4F7A5C0768D7404760564FAF
:1018E00008373F6807F4E051890A5A4F7A5C476825
:1018F000D7408760504F08373F6807F46041490B75
:10190000544F7A5C4768D740C760F0BD002100F4AF
:101910004072B2F5407F0AD1474A0832116821F47B
:10192000F8114D4A02401143434A08321160424ABD
:1019300070321268C0F30B031A433F4B70331A60C6
:10194000704741494439086070473F494039086051
:10195000704742490860704739B1374A30321268DF
:101960000243354B30331A6006E0334A3032126896
:101970008243314B30331A60704739B12E4A3432CA
:10198000126802432C4B34331A6006E02A4A343280
:1019900012688243284B34331A60704739B1264AA3
:1019A000383212680243244B38331A6006E0224A68
:1019B000383212688243204B38331A60704739B18D
:1019C0001D4A4032126802431B4B40331A6006E046
:1019D000194A403212688243174B40331A607047ED
:1019E00039B1154A443212680243134B44331A602A
:1019F00006E0114A4432126882430F4B44331A60A6
:101A0000704739B10C4A1032126802430A4B103346
:101A10001A6006E0084A103212688243064B1033FF
:101A20001A607047E1B1044A143212680243024B53
:101A300014331A6019E0000000380240FFFFF6FE80
:101A40001030002400004742800E47420024F4007A
:101A500000127A005A000020FFFCFF0F5C01474291
:101A60005B4A126882435A4B1A60704739B1584A30
:101A7000121D12680243564B1B1D1A6006E0544AA1
:101A8000121D12688243524B1B1D1A60704739B1F8
:101A90004F4A0C32126802434D4B0C331A6006E079
:101AA0004B4A0C3212688243494B0C331A60704720
:101AB00039B1474A103212680243454B10331A605D
:101AC00006E0434A103212688243414B10331A60D9
:101AD000704739B13E4A3C32126802433C4B3C33BA
:101AE0001A6006E03A4A3C3212688243384B3C3373
:101AF0001A60704739B1364A403212680243344B9B
:101B000040331A6006E0324A403212688243304B5A
:101B100040331A60704739B12D4A4432126802438B
:101B20002B4B44331A6006E0294A44321268824340
:101B3000274B44331A60704739B1254A4C3212683A
:101B40000243234B4C331A6006E0214A4C321268A0
:101B500082431F4B4C331A60704739B11C4A5032D4
:101B6000126802431A4B50331A6006E0184A50328A
:101B700012688243164B50331A60704739B1144AC9
:101B8000D21F12780243124BDB1F1A7006E0104A74
:101B9000D21F127882430E4BDB1F1A7070470C481D
:101BA0006030006840F0807009496031086070471B
:101BB00001460020064A083A12680A4201D0012074
:101BC00000E0002070470249891F0870704700003C
:101BD0001438024010B50446F648844208D1012169
:101BE0008014FFF765FF0021A014FFF761FF16E0E6
:101BF000F148844208D101210014FFF748FF002179
:101C00002014FFF744FF0AE0EC48844207D1012189
:101C1000C013FFF73CFF0021E013FFF738FF10BDB2
:101C200010B50022028802F441520B884C882343ED
:101C30008C882343CC8823430C8923434C8923433A
:101C40008C892343CC8923431A430280838B4FF230
:101C5000FF74234083830B8A038210BD2DE9F04F6C
:101C600000250223002401270022002694469046E6
:101C70009146B0F81CA04FF2400B0AEA0B0AA0F8FC
:101C80001CA04FF0020AA0F820A0858BD1F808A074
:101C9000BAF1020F01D100BF6AE0B1F804A0BAF1B5
:101CA000000F01D1012700E00227DFF814A3DAF8C2
:101CB00000A01AF4000F09D0DFF804A3DAF800A09E
:101CC0002AF4000ADFF8F8B2CBF800A0DFF8F0A29F
:101CD0000AF17C0ADAF800A0CAF38818DFF8E0A25B
:101CE0000AF17C0ADAF800A0CAF30279DFF8D0A280
:101CF000AAF1040ADAF800A00AF03F0CDFF8C4A247
:101D0000BAFBFCFA0AFB08FABAFBF9F6B1F806A02E
:101D1000BAF5007F0ED14FEA162A0AEB8A0A4FEA7B
:101D20004A0AD1F808B0BAFBFBFA0AF1050A1FFA11
:101D30008AF20FE04FEA471AB6FBFAFA0AEB8A0A70
:101D40004FEA4A0AD1F808B0BAFBFBFA0AF1050AD1
:101D50001FFA8AF24FF00A0AB2FBFAF202F001040B
:101D6000A2EB040ACAF34F034FF6FF7A0AEA0424EF
:101D7000022B01DBFF2B01DD02230024B1F806A0BA
:101D80004AEA040A4AEA030AA0F820A0B1F804A02B
:101D9000B1F80CB04AEA0B0AB1F802B04AEA0B0AF1
:101DA000B1F800B04AEA0B0A4AF4006A4AEA0505AB
:101DB0008583BDE8F08F0021018041808180C18052
:101DC000018141818181C181072101827047002108
:101DD000018041808180C180022181600021818158
:101DE000704721B1028842F04002028004E002887C
:101DF0004FF6BF731A400280704721B1828B42F4C4
:101E00008062828304E0828B4FF6FF331A40828324
:101E1000704702884FF2FF731A40028002880A431B
:101E200002807047B1F5804F04D1028842F48042AD
:101E3000028004E002884BF6FF731A40028070476C
:101E4000A1F57E42FF3A04D0028842F480720280FB
:101E500004E002884FF6FF631A400280704721B108
:101E6000828842F00402828004E082884FF6FB738D
:101E70001A408280704721B1828842F0100282802D
:101E800004E082884FF6EF731A408280704730B5C5
:101E900000220023848B4FF240052C4084830224CF
:101EA0000484828B0C88B4F5007F01D00C8814B9AF
:101EB0004FF4807308E00C88B4F5407F03D00C88A1
:101EC000B4F5807F00D100238C888D892C434D8808
:101ED0002C431C4344F400642243828330BD0146FA
:101EE000888970478181704721B1028842F400528D
:101EF000028004E002884DF6FF731A4002807047AA
:101F0000018841F480510180704702460020012978
:101F100001D0108B00E0908A70470146088A704714
:101F20001AB183880B43838002E083888B438380CC
:101F3000704730B5002400230C110125A540ABB239
:101F40001AB185881D43858002E085889D43858080
:101F500030BD0246002013890B4201D0012000E071
:101F600000207047CA4302817047F0B50246002046
:101F700000240023002501F00F070126BE40B4B263
:101F80000B1101269E40B3B2968806EA0305168916
:101F9000264202D00DB1012000E00020F0BD10B5B6
:101FA000002201F00F040123A3409AB2D34303811E
:101FB00010BD00000030014000380040003C0040EF
:101FC0000838024000127A0010B501218803FFF79B
:101FD0006FFD00214FF48040FFF76AFD10BD1A49E4
:101FE0000860704730B500228B071C0F0F2303FADF
:101FF00004F2154B08338C1053F824309343124CE1
:1020000008348D1044F8253023468C1053F82430C2
:102010008C07240F00FA04F423430B4C08348D1072
:1020200044F8253030BD0949086070470849086008
:102030007047002004492031096811F4807F01D0E5
:10204000012000E00020704700380140DC002742FA
:102050000004274210B50446FE48844208D10121FD
:102060000846FFF725FD00210120FFF721FD9DE037
:10207000B4F1804F08D101210846FFF708FD002187
:102080000120FFF704FD91E0F348844208D10121CB
:102090000220FFF7FCFC00210220FFF7F8FC85E09E
:1020A000EE48844208D101210420FFF7F0FC002112
:1020B0000420FFF7ECFC79E0E948844208D10121D3
:1020C0000820FFF7E4FC00210820FFF7E0FC6DE0AA
:1020D000E448844208D101211020FFF7D8FC0021F8
:1020E0001020FFF7D4FC61E0DF48844208D10121D1
:1020F0002020FFF7CCFC00212020FFF7C8FC55E092
:10210000DA48844208D101210220FFF7D1FC0021E6
:102110000220FFF7CDFC49E0D548844209D10121D6
:102120000804FFF7C5FC00214FF48030FFF7C0FC26
:102130003CE0D048844209D101214804FFF7B8FCB3
:1021400000214FF40030FFF7B3FC2FE0CA4884426F
:1021500009D101218804FFF7ABFC00214FF4802056
:10216000FFF7A6FC22E0C548844208D101214020A7
:10217000FFF78DFC00214020FFF789FC16E0C048E6
:10218000844208D101218020FFF781FC00218020BA
:10219000FFF77DFC0AE0BB48844207D1012180158E
:1021A000FFF775FC0021A015FFF771FC10BD0022A0
:1021B0000288A84B98420ED0AC4B98420BD0B0F19D
:1021C000804F08D0A44B984205D0A44B984202D02F
:1021D000A34B984204D14FF68F731A404B881A4391
:1021E000A04B984207D0A04B984204D04FF6FF4333
:1021F0001A400B891A4302804B68C3620B8803851F
:10220000944B984202D0994B984201D18B7A038625
:102210000123838270474FF0FF314160002101802C
:1022200001814180817270470185828270470A4630
:10223000002101884FF68F731940114301807047C8
:1022400041627047C16270470146486A7047014663
:10225000088D704721B1028842F00202028004E03A
:1022600002884FF6FD731A400280704721B1028840
:1022700042F00402028004E002884FF6FB731A4029
:102280000280704721B1028842F08002028004E09F
:1022900002884FF67F731A400280704702884FF61B
:1022A000F7731A40028002880A430280704702884E
:1022B0004FF6FF431A40028002880A4302807047AB
:1022C00021B1028842F00102028004E002884FF648
:1022D000FE731A400280704770B50024002200236C
:1022E000058C4FF6FE7635400584028C8388048B7E
:1022F0004FF68F752C40B51E2C400D882C43751E53
:102300002A408D892A434D882A43524DA84202D043
:10231000564DA84213D14FF6F7752A40CD892A436E
:102320004FF6FB752A408D882A434FF6FF652B40F8
:102330004FF6FF552B400D8A2B434D8A2B4383804C
:1023400004838D684563028470BD70B5002400224B
:102350000023058C4FF6EF7635400584028C838888
:10236000048B48F6FF752C404FF6FF452C400D8836
:102370004FF6FF7606EA05252C434FF6DF752A4017
:102380008D8906EA05152A434D8806EA05152A4374
:10239000304DA84202D0354DA8421DD14FF67F7571
:1023A0002A40CD894FF6FF7606EA05152A434FF6F7
:1023B000BF752A408D8806EA05152A434FF6FF357A
:1023C0002B404FF2FF752B400D8A06EA85052B4303
:1023D0004D8A06EA85052B43838004838D688563D7
:1023E000028470BD70B5002400220023058C4FF6D6
:1023F000FF6635400584028C8388848B4FF68F7589
:102400002C404FF6FC752C400D882C434FF6FF55A1
:102410002A408D894FF6FF7606EA05252A434D8826
:1024200006EA05252A430B4DA84202D00F4DA842CB
:1024300038D14FF2FF752A40CD894FF6FF7606EA74
:1024400005252A434FF6FF352A408D8806EA0525E3
:102450002A4319E000000140000400400008004049
:10246000000C004000100040001400400004014037
:102470000040014000440140004801400018004075
:10248000001C0040002000404EF6FF752B404DF62A
:10249000FF752B400D8A06EA05152B434D8A06EA87
:1024A00005152B43838084838D68C563028470BDCA
:1024B00070B5002200230024058C4EF6FF763540CF
:1024C0000584038C8488828B48F6FF752A404FF67A
:1024D000FF452A400D884FF6FF7606EA05252A4378
:1024E0004DF6FF752B408D8906EA05352B434D8847
:1024F00006EA05352B43FE4DA84202D0FD4DA84209
:1025000008D14BF6FF752C400D8A4FF6FF7606EA90
:1025100085152C43848082838D680564038470BD97
:10252000002101804180818081608181C18101829F
:102530004182704770B503460020002418461830C9
:1025400001258D40ACB21D8CA5431D8409B108291D
:102550000AD100EB610005684FF68F7635400560C3
:102560000568154305600FE00D1FC5F34E052844AF
:10257000056848F6FF763540056005684FF6FF763A
:1025800006EA02263543056070BD416370478163EA
:102590007047C1637047016470470A460021018B90
:1025A0004FF68F7319401143018370470A4600218B
:1025B000018B48F6FF7319404FF6FF7303EA0223BD
:1025C0001943018370470A460021818B4FF68F73B0
:1025D00019401143818370470A460021818B48F6D8
:1025E000FF7319404FF6FF7303EA022319438183F7
:1025F00070470A460021018B4FF6F77319401143CB
:10260000018370470A460021018B4FF2FF73194086
:102610004FF6FF7303EA02231943018370470A460A
:102620000021818B4FF6F773194011438183704766
:102630000A460021818B4FF2FF7319404FF6FF735A
:1026400003EA02231943818370470A460021018B64
:102650004FF6FB7319401143018370470A4600216E
:10266000018B4FF6FF3319404FF6FF7303EA022345
:102670001943018370470A460021818B4FF6FB7393
:1026800019401143818370470A460021818B4FF620
:10269000FF3319404FF6FF7303EA02231943818386
:1026A00070470A460021018B4FF67F731940114392
:1026B000018370470A460021018BC1F30E014FF6DA
:1026C000FF7303EA02231943018370470A4600217E
:1026D000818B4FF67F7319401143818370470A46FF
:1026E0000021818BC1F30E014FF6FF7303EA022331
:1026F0001943818370470A460021018C4FF6FD7310
:1027000019401143018470470A460021018C4FF69D
:10271000F77319401143018470470A460021018C68
:102720004FF6DF7319404FF6FF7303EA02131943A4
:10273000018470470A460021018C4FF67F731940CF
:102740004FF6FF7303EA02131943018470470A46E8
:102750000021018C4FF6FF5319404FF6FF7303EA37
:1027600002231943018470470A460021018C4FF26D
:10277000FF7319404FF6FF7303EA022319430184E4
:1027800070470A460021018C4DF6FF7319404FF641
:10279000FF7303EA023319430184704730B5002305
:1027A00001248C40A3B2048C9C430484048C02FA60
:1027B00001F5ADB22C43048430BD30B500230424B0
:1027C0008C40A3B2048C9C430484048C02FA01F56F
:1027D000ADB22C43048430BD828B4FF2FF331A40DC
:1027E0008283828B4FF6FF7303EA01231A438283AD
:1027F0007047F0B50C461546002100220026078CD4
:102800004EF6FF7C07EA0C070784818B028C4FF69B
:10281000FF7707EA043640F6FF4739404FF6FF7767
:1028200007EA052739434FF6FF7707EA03373943AD
:1028300045F6FF773A4046F480573A438183028455
:10284000F0BD828B4FF6F3731A408283828B0A436A
:1028500082837047F0B50C46154600210022002601
:10286000078C4FF6FF6C07EA0C070784818B028CFC
:102870004FF6FF7707EA04264FF60C7739404FF6FC
:10288000FF7707EA03172F4339434FF2FF573A40C8
:1028900046F480773A4381830284F0BD028B4FF285
:1028A000FF331A400283028B4FF6FF7303EA0123C2
:1028B0001A4302837047F0B50C46154600210022EA
:1028C0000026078C4FF6EF7C07EA0C070784018B84
:1028D000028C4FF6FF7707EA041640F6FF473940AF
:1028E0004FF6FF7707EA033739434FF6FF7703E0E8
:1028F000000001400004014007EA052739434FF674
:102900005F773A4046F010073A4301830284F0BDF6
:10291000028B4FF6F3731A400283028B0A43028341
:102920007047F0B50C46154600210022068C4FF684
:10293000FE773E400684018B028C4FF60C763140C8
:102940007E1C06EA03162E4331434FF6F5763240DD
:1029500044F00106324301830284F0BD70B50546A0
:102960000C46208850B92389A28861882846FFF741
:10297000D8FFE1882846FFF7CBFF25E02088042810
:102980000AD12389A28861882846FFF794FFE1884D
:102990002846FFF783FF17E0208808280AD12389FB
:1029A000A28861882846FFF755FFE1882846FFF78F
:1029B00048FF09E02389A28861882846FFF719FFAC
:1029C000E1882846FFF708FF70BD002101804180A3
:1029D000012181800021C180018170472DE9F041F2
:1029E00005460C4600260127608808B9022600E04B
:1029F0000026A088012801D1022700E001272088B5
:102A0000A0B92389A28861882846FFF78AFFE18858
:102A10002846FFF77DFF23893A4631462846FFF7CF
:102A20004AFFE1882846FFF739FF13E02389A2888F
:102A300061882846FFF73FFFE1882846FFF72EFF11
:102A400023893A4631462846FFF76BFFE18828463E
:102A5000FFF75EFFBDE8F0810146486B7047014615
:102A6000886B70470146C86B70470146086C704719
:102A70000A884B881A438B881A43CB881A430B89E0
:102A80001A434B891A438B891A43A0F84420704794
:102A90000021018041808180C1800181418181814B
:102AA000704731B1B0F8442042F40042A0F844200D
:102AB00005E0B0F84420C2F30E02A0F844207047AD
:102AC00021B1828842F00402828004E082884FF6BD
:102AD000FB731A408280704721B1828842F0010264
:102AE000828004E082884FF6FE731A40828070472D
:102AF0001AB183890B43838102E083898B438381ED
:102B000070478182704702460020138A0B4201D031
:102B1000012000E000207047CA430282704730B5B0
:102B20000246002000230024158A05EA0103958946
:102B300005EA010413B10CB1012000E0002030BD12
:102B4000CA430282704741EA0203A0F84830704746
:102B50001AB183890B43838102E083898B4383818C
:102B6000704721B1828842F00802828004E08288A6
:102B70004FF6F7731A408280704701894FF6F8725A
:102B80001140018170470A46002101894FF68F7379
:102B9000194011430181704730B504460D4629465E
:102BA0002046FFF7F0FF208940F00700208130BD6C
:102BB0002DE9F04104460D4616461F46602D06D10C
:102BC0003B46012231462046FFF775FE05E03B46B5
:102BD000012231462046FFF7A4FE29462046FFF792
:102BE000D2FF208940F007002081BDE8F08130B598
:102BF0000C4600210189C9B24FF6FF7505EA03258D
:102C0000154325432943018130BD2DE9F041054697
:102C10000E4617469846002443463A463146284613
:102C2000FFF7E5FF2C894FF6F870044044F00704E5
:102C30004FF68F70044044F070042C81BDE8F081A1
:102C4000F0B504460D4616461F463B463246294619
:102C50002046FFF7CCFF208940F480402081F0BD62
:102C600082884FF68F731A40828082880A4382805E
:102C7000704702894FF6F8731A40028102890A43AD
:102C80000281704702894FF67F731A4002810289E0
:102C90000A4302817047F0B50C4615461E460021D6
:102CA000002200230189028B038C4FF6F87739400C
:102CB00021434FF6FC473A4040F201173A434FF6A2
:102CC000DD773B404FF6FF7707EA06172F433B437C
:102CD000018102830384F0BD21B1828842F0800229
:102CE000828004E082884FF67F731A4082807047AA
:102CF000A0F8501070472DE9FE4F81EA030404F05C
:102D0000004421F0004100944FF0000B23F00043F9
:102D100050EA010402D052EA030404D10020014623
:102D200003B0BDE8F08FC3F30A54C1F30A552C4435
:102D3000A4F2F3340194A0FB0254C1F3130141F453
:102D40008011C3F3130343F4801301FB024400FB1F
:102D5000034E840A970A44EA815447EA8357A4FB46
:102D6000076802958D0A05FB07854FEA932C04FB43
:102D70000C542705029D4FEA065847EA1637B5EB73
:102D800008056EEB070C870E920E47EA811742EAA0
:102D90008312A7FB0201B6EB0B0164EB00042B0DC1
:102DA00043EA0C335E1844EB1C50DA465146E7FB0D
:102DB0000201C5F313044FEA0B3343EA14534FEAFD
:102DC0000432019C43EA0603A4F10C040294009C23
:102DD000CDE900B400F0D1F8A2E72DE9F04D81EA89
:102DE000030404F0004B21F0004514464FF0000AA4
:102DF00023F0004150EA050220D054EA01021DD020
:102E0000C5F30A570246C5F31303C1F31300C1F318
:102E10000A5640F4801543F48013A7EB0608101BF4
:102E2000D64608F2FD3873EB050002D308F101081D
:102E300001E092185B41B8F1000F03DA002001466F
:102E4000BDE8F08D00204FF48011064684460EE068
:102E5000171B73EB050705D3121B63EB0503064332
:102E60004CEA010C49084FEA300092185B4150EAE5
:102E70000107EDD152EA030012D082EA040083EA8E
:102E80000501084303D100224FF0004308E0101B66
:102E9000AB4102D20122002302E06FF00102531085
:102EA0001AEB06004CEB085110EB0A0041EB0B014A
:102EB000BDE8F04D00F054B80EB540F23341029138
:102EC0000021CDE900110A460B4600F056F803B088
:102ED00000BD30B50B46014600202022012409E048
:102EE00021FA02F59D4205D303FA02F5491B04FAC3
:102EF00002F52844151EA2F10102F1DC30BD2DE9D6
:102F0000F05F0546002092469B468846064681466D
:102F100040241BE0284641464746224600F073F90C
:102F200053465A46C01A914110D3114618462246BC
:102F300000F05AF92D1A67EB01084F46224601208E
:102F4000002100F051F917EB00094E41201EA4F1B9
:102F50000104DFDC484631462A464346BDE8F09F7F
:102F600010B5002B08DA401C41F1000192185B41BA
:102F70001A4301D120F0010010BD2DE9F04D924619
:102F80009B4611B1B1FA81F202E0B0FA80F2203230
:102F9000904600F029F904460F4640EA0A0041EA4B
:102FA0000B0153465A46084303D120463946BDE833
:102FB000F08D114653EA010015D0C8F14002504689
:102FC00000F021F905460E4650465946424600F0AB
:102FD0000BF9084301D0012000E00020054346EA38
:102FE000E0762C4337430A984FEA4453A0EB08009D
:102FF0004FEAD4240A304FF0000244EA47544FEA23
:10300000D72502D500200146D1E7010510196941F5
:10301000DDE9084500196941BDE8F04DA0E72DE95B
:10302000FE4F804681EA0300C00F0C46009021F05D
:10303000004123F00045B8EB0200A94105D240460B
:10304000214690461C460B46024623F000401043A2
:1030500004D14046214603B0BDE8F08F270DC7F3E9
:103060000A00C3F30A510290401A0190402866DA20
:10307000C3F3130040F4801B0098924620B1002354
:10308000D2EB030A63EB0B0B01985946C0F14002E7
:10309000504600F0A9F806460D4650465946019A9A
:1030A00000F0C1F810EB08006141002487EA1152DA
:1030B00084EAE7731A433BD0009A3AB3019A012A93
:1030C0004FEA075210DC001B61EB02014FF0004297
:1030D00002EA0752CDE90042001C41F58011324658
:1030E0002B46FFF74AFFB6E7001B61EB0201001C0D
:1030F00041F5801300185B412018A2F5001747EB3B
:10310000030140EAD570B6196D4111E06D084FEA30
:10311000360645EAC0754FEA0752001B61EB020113
:10312000001C41F5801149084FEA30000019514157
:1031300032462B4603B0BDE8F04FFFF711BF0098B1
:10314000012240000023D0EB020263EBE073009801
:1031500021464FEAE074B8EB000061EB0401E9E7B7
:1031600083F000435BE781F0004158E7C1F30A5266
:10317000C1F3130140F2FF3341F480119A4202DAA5
:1031800000200146704740F233439A42A2F2334294
:1031900002DC524200F037B800F026B830B5002902
:1031A00004DB4FF00044404264EB0101002B04DBE0
:1031B0004FF00044524264EB0303994208BF90422F
:1031C00030BD0000064C074D06E0E06840F001030A
:1031D00094E8070098471034AC42F6D3FCF7D8FFC8
:1031E0005C4F00088C4F0008202A04DB203A00FACC
:1031F00002F1002070479140C2F1200320FA03F34E
:10320000194390407047202A04DB203A21FA02F04B
:103210000021704721FA02F3D040C2F12002914010
:10322000084319467047202A06DBCB17203A41FA9B
:1032300002F043EAE07306E041FA02F3D040C2F143
:10324000200291400843194670470000000000002A
:103250000FB4054B10B503A9044A029800F0EAF830
:1032600010BC5DF814FB00006F0700083800002058
:1032700002E008C8121F08C1002AFAD1704770473F
:10328000002001E001C1121F002AFBD1704700009D
:103290002DE9FF5FDDE90220010DDDF838B00243C2
:1032A00010D10F9801244CA2012808D000210098C9
:1032B0000F9BC0E90021C0E90243BDE8FF9F6FEA10
:1032C0000B01F4E7A1F2FF3144F6105041430D1415
:1032D0000F9801280ED0A5EB0B00401C4FF0000406
:1032E0003E4EDFF8FC90B0F1000AA04605DACAF1C4
:1032F000000717E0CBF10000F0E7074612E0F807FF
:1033000007D02246334640464946FFF7F4FC804644
:1033100089462246334610461946FFF7ECFC044620
:103320000E467F10002FEAD1DDE90201BAF1000F4D
:1033300042464B4602DAFFF7DEFC01E0FFF74DFDA7
:1033400004460E460022274BFFF728FF03D84FF014
:10335000FF30014607E00022234B20463146FFF7AD
:103360005EFEFFF703FF102409E0002C0ADB0A22AF
:103370000023FFF7C4FD019B30321A55641E50EA4A
:103380000102F2D1641C019AC4F1110314440F9A92
:10339000012A09D00122084301D15B450FDD4FF01E
:1033A000000205F101050DE0084303D1A3EB0B0575
:1033B0006D1E09E000204FF0110B0F9088E701DA35
:1033C00000226D1E002A83D000980F99C0E90231B7
:1033D000C0E9004571E70000300000000000244013
:1033E0000000F03F0000F0430000E03F10B5002A6D
:1033F00006DA22F00042D21D22F00703102203E079
:10340000D21C22F003030C2213B19C188C4201D968
:10341000012010BD024401448360C0E90021C91AA3
:10342000D018884202D810600246F9E700201060E8
:1034300010BD00002DE9FF4F95B09B46894606461A
:10344000002512E2252878D10024761CF94A274667
:10345000012105943378203B01FA03F0104202D099
:103460000443761CF6E730782A2811D06FF02F033A
:103470003078A0F13002092A16D8059A44F00204E7
:1034800002EB820203EB42021044761C0590EFE748
:1034900059F8042B0592002A03DA504244F40054F0
:1034A000059044F00204761C30782E2816D116F8C8
:1034B000010F44F004042A280DD06FF02F02307859
:1034C000A0F13003092B09D807EB870302EB430374
:1034D000C718761CF3E759F8047B761C30786C2803
:1034E0000FD006DC4C2817D068280DD06A2814D1DC
:1034F00004E0742810D07A280FD10DE044F40014B1
:103500000AE044F4801401E044F4401472788242EA
:1035100002D1761C04F58014761C307866280BD016
:1035200013DC582877D009DC002875D04528F6D060
:103530004628F4D047281AD19FE118E0632835D0F7
:10354000642879D0652812D197E1702873D008DCFF
:103550006728F1D069286FD06E280DD06F2806D16A
:10356000B5E073282CD0752875D0782874D05A46C9
:10357000179990476D1C76E1C4F30250022809D0D8
:1035800003280DD0D9F8001004280DD00D6009F1E2
:10359000040968E1D9F80010EA17C1E90052F6E71A
:1035A000D9F800100D80F2E70D70F0E719F8041B50
:1035B0008DF8001000208DF80100EA46012003E09C
:1035C00059F804AB4FF0FF3061074FF0000102D40F
:1035D0000DE008F101018846B9420FDA8045F8DBB9
:1035E0001AF808100029F4D108E008F10101884612
:1035F0008142FADB1AF808100029F6D105985B46DB
:10360000A0EB080721463846179A00F09EFA284496
:1036100000EB080507E04DE02BE10DE01AF8010B87
:103620005A4617999047B8F10108F7D25B462146F0
:103630003846179A14E142E00A220092C4F302527B
:103640004FF0000A022A08D059F804CB032A4FEAA7
:10365000EC710AD00DE029E02AE009F1070121F020
:103660000702F2E802C1914609E00FFA8CFC4FEA2A
:10367000EC71042A03D14FFA8CFC4FEAEC7100295B
:1036800007DA0A460021DCF1000C61EB02012D2271
:1036900002E0220504D52B228DF80420012203E04C
:1036A000E20701D02022F7E7904653E00A2102E02A
:1036B00010220DE010214FF0000A00910BE01022C3
:1036C0004FF0000A44F004040827009203E00822A7
:1036D0004FF0000A0092C4F30252022A05D059F8B2
:1036E00004CB0021032A08D009E009F1070121F0E9
:1036F0000702F2E802C1914605E01FFA8CFC042A99
:1037000001D10CF0FF0C4FF00008220722D57028E1
:1037100027D0009B83F0100353EA0A0309D15CEA27
:10372000010206D030228DF804208DF80500022217
:103730009046009B83F0080353EA0A030AD15CEA2F
:10374000010201D1620705D530228DF804204FF027
:1037500001087F1E582809D037A003900EA80290B8
:1037600013E040228DF804200122E1E737A0F4E7BE
:1037700053466046009AFFF7C2FB84460398825C7A
:103780000298A0F10100029002705CEA0100EFD102
:10379000029806A9A1EB000000F1200A600702D5FB
:1037A00024F4803400E00127574502DDA7EB0A002E
:1037B00000E0002000EB0A01009005984144A0EBD6
:1037C00001000590E00306D45B462146179A059850
:1037D00000F0BBF90544002706E001A85A46C05D89
:1037E000179990476D1C7F1C4745F6DBE0030CD50D
:1037F0005B462146179A059800F0A7F9054404E0B6
:1038000030205A46179990476D1C0099481E009029
:103810000029F5DC08E0029802995A460078491C14
:103820000291179990476D1CBAF10001AAF1010AA3
:10383000F1DC6BE1092801003031323334353637A1
:1038400038396162636465660000000030313233EC
:10385000343536373839414243444546000000008C
:1038600000F060F9054406F10106307800287FF485
:10387000E9AD19B02846BDE8F08F620700D40627ED
:1038800009F1070222F0070CFCE80223E14603F0ED
:1038900000485FEA080C02D00FF27C2C0DE05FEAD2
:1038A000045C02D50FF2742C07E05FEAC47C02D0FE
:1038B0000FF26C2C01E0AFF2700C4FF0FF3823F0E8
:1038C0000043CDF850C065280CD006DC452809D04F
:1038D00046281DD047283ED13EE0662818D06728EC
:1038E00039D139E00021112F01DB112000E0781CD3
:1038F000CDE9000106A90EA8FFF7CAFCDDE90F011A
:103900000E9A03910021009207F1010A04914EE002
:103910004FF000400097CDE9011006A90EA8FFF76F
:10392000B7FCDDE90F0203920E9B11990022DDF82E
:103930000CA00093049219B907F1010100EB010AF0
:10394000B7EB0A0004D4C0F1FF3007F1010A04907C
:10395000AAEB0700019046E0012F00DA01270021C1
:10396000112F01DD112000E03846CDE9000106A944
:103970000EA8FFF78DFCDDE90F010E9A03910021DF
:1039800004910092BA4621070CD40399514500DAFC
:103990008A46BAF1010F05DD009AAAF10101515CD6
:1039A000302908D0B84202DA10F1040F06DA0121FA
:1039B000CDE9011017E0AAF10101E9E7002805DCD3
:1039C000049901440491AAEB000102E0411C514515
:1039D00000DD8A460499A0EB010000F1010001908E
:1039E0004FF000400290200704D40198504501DBBD
:1039F000CDF8048000208DF84F0002980DF14F079C
:103A0000B0F1004F25D02B200E9002984FF0020805
:103A100000280CDA404202902D200E9007E00A2187
:103A20000298FFF756FA3031029007F8011DB8F1FD
:103A30000001A8F10108F2DC02980028EFD1791EFC
:103A40000E980870307800F0200040F0450007F82C
:103A5000020D12A8A0EB070000F1070814980078E7
:103A600000B1012000EB0A01019801EBE07105981B
:103A70004144A0EB0100A0F101000590E00306D451
:103A80005B462146179A059800F05FF805441498A4
:103A9000007820B15A461799904705F10105E003D7
:103AA00023D55B462146179A059800F04EF8054449
:103AB0001BE00498002807DBDDE90301884203DDF1
:103AC0000098405C179901E0179930205A469047BA
:103AD00004986D1C401C04900198401E019004D174
:103AE0002E205A46179990476D1CBAF10001AAF191
:103AF000010ADEDC05E017F8010B5A4617999047DA
:103B00006D1CB8F10001A8F10108F4DC5B46214608
:103B1000179A0598A4E600002D0000002B00000075
:103B2000200000002DE9F041044600251E461746FE
:103B3000880405D406E039462020B04705F1010588
:103B4000641EF8D52846BDE8F0812DE9F041044611
:103B500000251E469046C80301D5302700E02027E7
:103B6000880405D506E041463846B04705F1010511
:103B7000641EF8D52846BDE8F081000008480068BA
:103B8000C0010BD507480068C00707D0054880383A
:103B90000068002802DA044901200870704700001C
:103BA000FCED00E0800E00E07E0000204FF060425F
:103BB000D36F002BFCD0C36AD367D36F002BFCD02C
:103BC000C07840EA0120A2F87C0070474FF06041C5
:103BD000CA6F002AFCD081F87C00704770B50400E1
:103BE0000D4603D012B92078012801D0802070BD85
:103BF000204600F00BFB28B12946204600F040F893
:103C0000002070BD812070BD0246084810B500EB51
:103C1000810050F8040C002806D0114600F0D4FCB6
:103C2000BDE8104000F0C0BC10BD0000141B001027
:103C300010B504468089002821D0608904EB8000FB
:103C4000006908606078022805D10021204600F054
:103C5000BBFC00F0A9FC04F10C0000BFD0E85F1F22
:103C6000491EC0E8521F002AF8D16089401C80B26A
:103C70006081E189884201D100206081042010BD6B
:103C800010B500F0A1FCBDE8104000F08DBC0000B4
:103C9000EFF3058109B182207047DFF808C000DF2B
:103CA00070470000094B0008EFF305820AB182203B
:103CB0007047EFF31482144B12F0030206D0012A6E
:103CC0001BD0022A11D0032A19D113E0EFF3088286
:103CD00082F309881A78D2070AD0022282F3148864
:103CE000BFF34F8FBFF36F8F09E01A78D20706D169
:103CF0000322F3E71A78D20701D0FF207047DFF8DC
:103D00000CC000DF704700007C4E00081D4B00080F
:103D10002DE90E40EFF30582B2B102004FF08000B2
:103D200000D021B10090DDE9011203B000BD11788F
:103D30000129F7D101A91046FFF77AFF042801D025
:103D40000020EFE71020EDE7DFF804C000DFECE72C
:103D5000154C0008EFF3058109B100207047DFF82A
:103D600008C000DF704700004F4C0008EFF30581EA
:103D700009B182207047DFF808C000DF70470000FB
:103D80006B4C0008EFF305820AB182207047DFF820
:103D900008C000DF704700008D4C00082DE970401E
:103DA000EFF3058272B10C4600F0E8FD4FF00045DC
:103DB00030B1210C04D1058BC178A0B2FFF724FFEC
:103DC000284670BDDFF804C000DF70BDC34C00089A
:103DD000EFF305830BB182207047DFF808C000DFE6
:103DE00070470000E94C0008EFF305820AB100209B
:103DF0007047DFF808C000DF704700003D4D000845
:103E0000DFF80CC000DFDFF80CC000DFFEE70000C9
:103E1000AD4D0008C94D0008DFF804C000DF704751
:103E2000014E0008094C4FF0FF3529462068FFF786
:103E30006FFF02460846102AF7D1FFF7EDFF002872
:103E4000F3D0024608469047EFE70000200000202C
:103E50004FEA000151E8000F28B1036841E8003241
:103E6000002AF7D17047BFF32F8F704710B568B1A4
:103E700061B10B3121F00302016844680B1A1B1B6E
:103E8000934205D2084609680029F5D1002010BDEB
:103E90003CB121180368C1E90032016001F108005A
:103EA00010BD4260083010BD70B50C46002812D01D
:103EB0004FF6FF71084D884204D22A680146104629
:103EC00000F0AEFB28684470044800F025F9BDE816
:103ED000704000F081BC70BD70000020DC0000204C
:103EE0000F4810B50D4942680E480B680088934290
:103EF00004D00A60CB88421E1A448A808A88824293
:103F00000AD100200860064800F006F90146BDE825
:103F10001040034800F0B2BB10BD0000800000203C
:103F2000DC0000207C00002070B5194DE8680028F6
:103F30002CD0A88A401EA882002621E0A06838B1B3
:103F400061684160606810B1A16881606660A660C8
:103F50000F482146183800F091FBA08AA8826078AB
:103F6000042804D10B49E08A09880844A082012072
:103F70006070E068E860E06808B10561E6602661AD
:103F8000A88A002802D1EC68002CD7D170BD0000AF
:103F9000F40000207C00002070B504000FD00D4D0F
:103FA000A17801262868827891420CD900F082FB22
:103FB000286846702046BDE8704000F00DBC0648F9
:103FC00000F0AAF8F7E766702146BDE870400248A5
:103FD00000F054BB70000020DC0000200321FFF73C
:103FE00063BF000010B50446008B0843208362784D
:103FF000618B062A18D0052A19D1084217D001EA88
:104000000002628388432083204600F08DFB01205C
:104010006070628B0821204600F07EFB2146BDE8DF
:104020001040034800F02ABB31EA0002EAD010BD7C
:10403000DC0000200246154810B500EB810050F866
:10404000044C002C21D0208B104320836278618B9C
:10405000062A17D0052A18D1084216D001EA000214
:10406000628388432083204600F05EFB012060705D
:10407000628B0821204600F04FFB2046BDE810402F
:10408000FFF78ABF31EA0002EBD010BD141B00100D
:1040900003460E4810B504688C46208B42B133EAC3
:1040A000000101D0062009E098432083022010BDC2
:1040B00010EA030201D06283F6E70520C1B26383F0
:1040C0006046FFF7F1FE012010BD000070000020E7
:1040D000814202D342688A4201D80120704750E8E9
:1040E000002F0A6040E80012002AF8D10020704733
:1040F00068B161B10839002202E00246006830B1BF
:104100008842FAD12AB1006810600020704701206F
:10411000704700214160F8E70146406842684A6004
:104120000B780022022B05D0012B03D0032B01D0EA
:104130004260704743680BB199604260826070478B
:10414000810700D00020704770B504460020154656
:10415000207001226270A1706060A060E060206148
:10416000A082E0822083608384F82000608C18B9EC
:104170000448FFF76DFEA06229462046BDE8704066
:1041800000F01CB86001001008B1082901D201201C
:1041900070470144091F002201600A604260104616
:1041A0007047000003480021016003490968C1808D
:1041B0007047000080000020744E000810B5428C4B
:1041C000920803D10F4A1268C2F38D02836A03EB8F
:1041D0008202530700D5121F403A4FF08073C2E9A4
:1041E0000E1300234FEA030442F823405B1C0E2BFE
:1041F000FAD3C36913624262C162806A02490160F4
:1042000010BD0000704E0008A52E5AE2C1898089B9
:10421000081A7047012202700022427082704260C8
:1042200002814281103982818908C1817047000072
:104230002DE9F0410446407800270E464FF0010872
:10424000012855D004F10C0502282BD0032818D0E2
:10425000A089E189884262D2208904EB800006614E
:10426000D5E85F0F401CC5E8510F0029F8D120891F
:10427000401C80B22081E189884200D12781BDE8BD
:10428000F0810846FFF7E4FD0600F8D02046FFF76E
:1042900043FF0546606800B967703146284600F064
:1042A00035FA31E02046FFF737FF0646606800B96F
:1042B00067700021304600F029FA2189F06904EB8B
:1042C00081010861D5E85F0F401CC5E8510F002946
:1042D000F8D12089401C80B22081E189884200D138
:1042E000278186F80180304600F01EFA314611E041
:1042F0002046FFF711FF0546606800B96770324637
:104300001021284600F008FA85F80180284600F0C0
:104310000BFA2946BDE8F041034800F0AFB9BDE80B
:10432000F0410320FCF712B9DC00002070B5044610
:10433000808915460026C8B3608904EB80000069B7
:1043400008606089401C80B26081E189884200D1A8
:104350006681607802280AD014F10C04D4E85F0F5B
:10436000401EC4E8510F0029F8D1002070BD20463E
:10437000FFF7D2FE0546606800B966700021284646
:1043800000F0C4F92189E86904EB81010861208902
:10439000401C80B22081E189884200D126812846D4
:1043A00000F0C2F92846FFF7F7FDDEE7FFE73DB171
:1043B0000A48626801682AB1204600F05FF907E008
:1043C000012070BD61600068C0E901640120607077
:1043D00008212846FFF768FDF2E700007000002082
:1043E000411C13D00B4A4FF6FE7190420CD800EBE3
:1043F0004002C2EBC0120848036803EBC202521E1F
:10440000B2FBF3F0884200D9084670474FF6FF70C0
:104410007047000000093D00804E00080321017034
:104420000021417041804160816070472DE9F04179
:104430000446408820B1234EA1683268914202D0E0
:10444000FF20BDE8F081401E0004000C608036D1E2
:1044500031686078DFF870808870626801270AB37D
:104460002046FFF759FE0546002100F04FF9284687
:1044700000F05AF96780A560A87860703168D8F8B4
:1044800004008A788078824201D3284615E00E48DD
:1044900000F0F4F829460C4800F0F0F83068477056
:1044A0006F7009E0D8F804209278824207D9064854
:1044B00000F0E4F8306847700020FFF76DFD002041
:1044C000BFE7000070000020DC00002070B5174E30
:1044D0000D4604464188306839B1A168814208D14F
:1044E0006088401C6080002070BDA0608078607093
:1044F000F6E775B162788078824203D28870A0684E
:1045000000F0E2F8606830B12046316800F0B6F89B
:1045100007E0012070BD3068606030680021C0E9AC
:10452000011409212846FFF7BFFCF2E770000020C4
:1045300070B51A4801210068417000F0BBF8184DB1
:104540006C7816E005EBC40148680278E2B1012AF4
:104550001FD000F015F9E878641C844200D10024D3
:104560000F48801CD0E84F1F491EC0E8421F002A98
:10457000F8D1A8780028E5D16C700A48FFF7CCFD87
:10458000BDE8704000F028B9896889B2FFF72AFDBC
:10459000E1E78968FFF74CFEDDE7000070000020CE
:1045A000901A0010DC0000200548017811B10121AB
:1045B0004170704703494FF0805008607047000019
:1045C0007800002004ED00E0F0B4144B9C1CDD7872
:1045D0004FEA030CD4E84F2FAA4202D1BFF32F8F2A
:1045E0000EE0521CC4E8462F002EF3D1DCE84F2F1A
:1045F000541CAC4200D10024CCE8464F002EF5D12B
:10460000DC78944205D903EBC202C2E90101F0BC97
:104610007047F0BC0220FBF799BF0000901A001011
:10462000154A10B5D368FBB113469B8A09E000BF59
:10463000D2F80CC0BCF1000F16D0BCF81440624692
:1046400023448B42F4D3D468C460D0600261D0F8B4
:104650000CC0BCF1000F01D0CCF81000591A8182B7
:10466000908A401A908210BD0024C460D060C91A9C
:1046700002619182848210BDF400002010B502789E
:104680000023022A03D0012A01D0032A00D10123EA
:1046900091F802C000E01046426812B19478644577
:1046A000F9D24A6041601BB102B19160886010BDCF
:1046B0000020FBE703494A684260002282604860AC
:1046C00070470000DC00002010B5836804462BB959
:1046D000607801280ED1084B03E09B681878002809
:1046E000FBD0204600F034F82146BDE810401846C3
:1046F000FFF7C4BF10BD0000DC00002090F82010C0
:10470000406A09B1603070472030704710B50C46E0
:10471000FFF7F4FF046010BD70B50C461546FFF7B7
:10472000EDFFC0E9004570BD10B5016900290ED04C
:10473000C268CA60C36800223BB18B8A848A234462
:104740008B82C3681961C26000E08A82026110BD79
:10475000816839B142684A604168002901D08068A7
:1047600088607047054906E04A68824202D1406885
:104770004860704711460029F6D17047DC000020E0
:1047800010B5416881B1FFF7C7FC0446FFF7CCFFC5
:104790000120607001462046FFF7B8FF2146BDE8C2
:1047A00010400348FFF76ABF4188491C418010BD93
:1047B000DC00002006480068D0E90910814203D3DC
:1047C00000680449884202D00120FBF7BFBE704751
:1047D00070000020A52E5AE207490222486042706C
:1047E000064A1278002A05D006C98A4202D0C0784B
:1047F000FFF7ECB970470000700000207E00002039
:104800002DE9F04104460D469046FFF7B7F9002028
:1048100006463849384B02E041F82060401C1A88AF
:104820009042F9D33548302201883548FEF7DEFD45
:104830003448006880B240F0004233480168334891
:10484000FEF7D4FD32480822018832480068FEF79E
:10485000CDFD314FFF20314AF8707E84002138466B
:10486000FFF772FC2E480421017046602D4801704C
:10487000C66006618682786A2030FBF793FC2A487E
:104880002B49076002207870284806704670097826
:10489000C170284801684FF0E0204161866107211E
:1048A000016125480168254A1143016000682249D9
:1048B00000F07F40C0431439B0FA80F00968C0F1BD
:1048C0000800C1F30221814200DB481C1A49091F7C
:1048D0000B686FF08072824063F317020A60FFF783
:1048E00061FC424629462046BDE8F041002300F025
:1048F0006DB80000141B00106C4E0008884E0008B4
:1049000000000010704E00088C4E0008600100107E
:10491000B04E000818000020AC0000204905000837
:10492000DC000020F400002070000020901A00102D
:10493000944E0008784E000820ED00E00000FFFFD4
:104940000B4810B5006801214170FFF7B3FEFFF777
:10495000C7FA08490888401C0880FFF7E5FA00F00C
:104960005BFA0548FFF7D8FBBDE81040FFF734BFFE
:10497000700000207C000020DC000020002805D012
:10498000810702D10178002900D000207047000083
:1049900030B50D4C0023226808E000BFB2F808C013
:1049A0008C4505D813461268A1EB0C01002AF5D1FD
:1049B00089B20260018112B11589691A11810BB1A6
:1049C000186030BD206030BD6C0000202DE9F04142
:1049D000804616461F460D4611F0FF0F00D14D1CB4
:1049E0001648FFF735FA040026D0280AA66260842C
:1049F000E9B242462046E761FFF7A6FB01251048D1
:104A0000104905E000EB850252F8042C22B16D1C20
:104A10000A889542F6D9002500EB850040F8044C41
:104A20000948E570007818B101212046FFF7BEF86B
:104A30002046FFF7B1FA2846BDE8F08100000010DB
:104A4000141B00106C4E00087E0000202DE9F04180
:104A5000244C234F244B22680026D17808B1814290
:104A600018D103EB8100567040F8046C1F48916A1E
:104A7000FFF72EFB20688662397811B10021FFF71D
:104A800095F81B482168FFF723FB00202660FFF7FD
:104A900083FA1FE01749098888421ED803EB800576
:104AA00055F8044CCCB12046FFF752FE2046FFF7E4
:104AB0003BFE45F8046C0D48A16AFFF709FBA662AE
:104AC000387818B100212046FFF770F821460848D1
:104AD000FFF7FEFA0020BDE8F081FF20FBE70000B1
:104AE0007E00002070000020141B001060010010E8
:104AF000000000106C4E000802480068002800D03A
:104B0000C07870477000002010B5002805D0FFF76E
:104B100067FC80B2FFF762FA402010BD70B5040058
:104B20000D4608D0206830B1B4F9040010F1030F2D
:104B300001DB032801DD862070BD244E306840B1C2
:104B4000204600F0FBF8A0B100F030F900F03CF98D
:104B500037E01F4840070CD11E4801681C48FFF78A
:104B600013FB30B9E16831B11948FFF77FF9020052
:104B700002D1852070BD0022B4F90400E168001D57
:104B800040EA01212068FFF73BFE7068D8B1C07889
:104B9000114901EB800050F8040C3060416A0D624D
:104BA000406A0E49416300210D4800F021F80D498B
:104BB000086000210C4800F0C1F80C490860002092
:104BC0003060002070BDFF2070BD0000700000202C
:104BD00030140010904E0008141B0010013E000815
:104BE000A84E000820000020984E00081C0000205D
:104BF00010B5040005D0216819B1606808B10278C9
:104C00000AB1002010BD8900103189B2FFF702FB04
:104C1000606810BD3EB504000D464FF0800012D014
:104C2000217801290FD12846FFF7DAFB82B201A9CA
:104C30002046FFF77BFB012801D0102003E00DB1D7
:104C4000402000E00020DDE9011203B030BD10B5C6
:104C5000002804D004680CB1207808B1002010BDF1
:104C60002046FFF7DBFB204610BD10B5FFF768FAC2
:104C700010B10178032901D0802010BDFFF7D6FBC9
:104C8000FF2801D0002010BD812010BD70B50D4659
:104C9000FFF756FA040002D02078032801D08020C4
:104CA00070BD2846FFF79CFB81B22046FFF70EFC43
:104CB000012801D0002070BD0DB1C12070BD812040
:104CC00070BD70B50C46FFF759FE4FF0004108B1BA
:104CD000220C01D0084670BD058BC178A0B2FFF749
:104CE000A9F9284670BD000070B504460D46000CB9
:104CF00001D086201EE008462CB1FFF771FB81B27F
:104D00000122A0B205E0FFF76BFB81B200224FF653
:104D1000FF70FFF7BDF9022802D04DB1402008E036
:104D200008200CB1214605E003490968498B01E0E0
:104D300000200021324670BD7000002070B50400D4
:104D40000E462BD0206848B3B4F9040010F1030FCD
:104D500024DB032822DCE16829B11148FFF786F83B
:104D6000050015D000E00025B4F90400E168001D3D
:104D700040EA012133462A462068FFF727FE40B16A
:104D8000084901EB8000084950F8040C426A51635D
:104D900070BD1DB129460248FFF7AAF9002070BD79
:104DA00030140010141B0010013E000810B5FFF76E
:104DB000A3FE002804D0034901EB800050F8040C46
:104DC00010BD0000141B001070B5FFF7D7FD0400E4
:104DD00003D0608C18B1A56A02E0802070BD002568
:104DE000E078FFF733FEFF2806D01DB10348A16A23
:104DF000FFF77EF9002070BD812070BD30140010D7
:104E000010B5FFF79DF920B101690A68C168104625
:104E100010BD0020014610BD2DE9F041114E34684F
:104E2000002C18D02089104F401E20814FF001081F
:104E30000EE0254624683460002229463868FEF7D3
:104E4000CDFE6879012808D085F80480002C02D0B6
:104E500020890028EDD0BDE8F08169892846FFF758
:104E600097FDF3E76C000020200000200700000001
:104E700020030201050001003F9002000100000034
:104E8000E8030000000000005C010000D0120000F8
:104E90006006000010000000253E0008020000002F
:104EA000010000002003000004000000301B00107F
:104EB0000000000081050008000000000100000063
:104EC00020030000C10500080000000001000000F0
:104ED00000000000D90500080000000001000000EB
:104EE0000000000088000020580200001A040000A2
:104EF000DC0500009E07000060090000940000200F
:104F0000A00000205B494E464F5D2054686520702C
:104F10006572696F642069732025692C2074686547
:104F20002064657369726564496E74657272757028
:104F3000744672657175656E6379206973202569A1
:104F40002C20616E642074686520707265736361E3
:104F50006C65722069732025692E0A008C4F000849
:104F60000000002088000000703200088C4F00080C
:104F700000000010501B0000803200081450000890
:104F8000880000208804000080320008007A030AAC
:104F900000000000000000000102030406070809E9
:104FA0000000000000000000000000000000000001
:104FB00000100000000000000000000000000000E1
:104FC00000000000000000000000000000000000E1
:104FD00000000000000000000000000000000000D1
:104FE00000000000001000000000010203040102A4
:104FF000030406070809000000000000000000008C
:1050000000000000000000000000000000000000A0
:04501000000000009C
:040000050800018965
:00000001FF
